:100000000C9450020C9488020C9488020C94880280
:100010000C9488020C9488020C9488020C94880238
:100020000C9488020C9488020C9429180C94E517FF
:100030000C9435190C9488020C9488020C94880254
:100040000C9488020C9488020C9488020C94880208
:100050000C9488020C9411190C9488020C94880258
:100060000C9488020C9488020C9488020C948802E8
:100070000C9488020C9488020C9488020C948802D8
:100080000C9488020C9488020C9488020C948802C8
:100090000C9488020C9488020C9488020C948802B8
:1000A0000C9488020C9488020C94880205010902C1
:1000B000A10185020901A1000509190129081500FE
:1000C0002501950875018102050109300931158165
:1000D000257F95027508810609381581257F9501D0
:1000E00075088106050C0A38021581257F95017572
:1000F000088106C0C005010980A101850319012AF4
:10010000B700150126B700950175108100C0050CD8
:100110000901A101850419012AA002150126A002E6
:10012000950175108100C005010906A1018506052C
:100130000719E029E71500250195087501810205D9
:1001400007190029EF1500250195F07501810205B9
:10015000081901290595057501910295017503910D
:1001600001C00660FF0961A1010962150026FF00B8
:100170009520750881020963150026FF00952075FA
:10018000089102C005010906A101050719E029E748
:1001900015002501950875018102950175088101F9
:1001A0000507190029FF150026FF0095067508812F
:1001B000000508190129051500250195057501910E
:1001C00002950175039101C00000000000000000CD
:1001D000000000000000000000000000000000001F
:1001E0000000000000000000000000007E0F00D4AE
:1001F000FFFFFFC7000000780000000000000000C3
:100200002A2B280000000000000000000000000071
:1002100000000029000000002C1E3420212224347C
:100220002627252E362D3738271E1F20212223244E
:1002300025263333362E37381F0405060708090AEA
:100240000B0C0D0E0F101112131415161718191A86
:100250001B1C1D2F3130232D350405060708090A04
:100260000B0C0D0E0F101112131415161718191A66
:100270001B1C1D2F3130354C2B0014001A000800B8
:10028000150017001C0018000C00120013002A00B3
:10029000E00004001600070009000A000B000D0032
:1002A0000E000F0033003400E1001D001B000600AB
:1002B0001900050011001000360037003800E50075
:1002C0002900E000E300E200777C2C002800787C25
:1002D000E600E700E400290001001E001F002000E6
:1002E00021002200230024002500260027002A00E8
:1002F000010000000000000000000000500051005C
:1003000052004F000000000001000000000000004B
:1003100000000000000000000000000000000000DD
:1003200001000100010001000100010001000100C5
:10033000010001000100010001001E021F02200255
:1003400021022202230224022502260227022A0079
:100350000100000000000000000000002D002E0041
:100360002F023002310235000100000000000000C1
:10037000000000002D022E022F0030003100350257
:100380000100010001000100010001000100010065
:100390000100010001000100010000000000000058
:1003A000000000000000000000000000000000004D
:1003B000010000000000000000000000000000003C
:1003C000000000000000000001000000000000002C
:1003D000000000000000000000000000000000001D
:1003E0000100010001000100010001000100010005
:1003F000010001000100010009025B00030100A0EF
:10040000FA090400000103010100092111010001A2
:1004100022440007058103080001090401000203CA
:1004200000000009211101000122220007058203BA
:100430002000010705030320000109040200010355
:1004400000000009211101000122B6000705840304
:1004500020000112010002000000086532050000C2
:1004600001010200011E0343006F0072006E00656F
:10047000006C006900750073002000720065007652
:10048000003100000014035900750073006800611A
:10049000006B006F0062006F00000004030904009D
:1004A00011241FBECFEFDAE0DEBFCDBF04B603FEDE
:1004B00018C08091620290916302A0916402B09191
:1004C00065028730904BA740B04B59F410926202FE
:1004D000109263021092640210926502E0E0F8E369
:1004E000099511E0A0E0B1E0E2ECFDE302C0059067
:1004F0000D92A436B107D9F722E0A4E6B1E001C01D
:100500001D92A236B207E1F70E945C190C948D1E71
:100510000C940000982FE0915E024091250257E074
:10052000E41302C080E008952E2F30E05E9FF001BA
:100530001124EA5DFD4F8181681306C08081981304
:1005400003C085818111EFCFF9013196E770E8CFC3
:10055000E8EDF0E080818E7F80831092E2001092BF
:10056000DA001092E100A0EEB0E08C9181608C93F3
:1005700080818F77808319BCA7EDB0E08C918E7F4E
:100580008C9380818F7E8083109210020895209139
:10059000E4003091E50095E6A9012091EC00822F5E
:1005A000817020FF06C08091E80080FF06C080E0D7
:1005B00008952091E80022FD1AC080911B02882333
:1005C00089F0853089F08091EB0085FD0FC0209186
:1005D000E4003091E50042175307F9F29150E1F63B
:1005E00084E0089582E0089583E0089581E008950D
:1005F00080911D0287FF13C08091E80082FF06C032
:100600008091E8008B778093E80004C080911B0202
:100610008111F2CF089580911B028823D9F3809134
:10062000E80080FFF8CF8091E8008E77ECCF982F1C
:100630009093E900242F762F50E0891731F07091C4
:10064000EC002091ED005091F00021FD07C09F5F6C
:10065000973071F78093E90081E008953091EB00C5
:100660003E7F3093EB003091ED003D7F3093ED0005
:100670003091EB0031603093EB007093EC002093ED
:10068000ED005093F0002091EE0027FDE0CF80E0D8
:100690000895B0E0A0E0EFE4F3E00C94ED1DC8EDA8
:1006A000D0E088818F7E8883E7EDF0E080818160F3
:1006B000808384E082BF81E08093100288818E7FF6
:1006C000888302EE10E0F80110821092DA0081EEC9
:1006D000C82ED12CF601108288818F77888388817B
:1006E0008068888388818F7D888319BC10921B0263
:1006F00010921C0210921A021092190290EEE92E2A
:10070000F12CF70180818B7F8083888181608883D1
:1007100042E060E080E00E941703F60180818E7F56
:100720008083F801808181608083808188608083FC
:10073000F70180818E7F8083888180618883CDB737
:10074000DEB7E8E00C94091EFC01CB0120912302E6
:10075000309124022617370790F0009729F4209152
:10076000E8002E772093E80040E0009751F4411113
:1007700008C08091E80082FF31C080E00895C9017F
:10078000F3CF20911B022223A9F12530A9F120915A
:10079000E80023FD2DC02091E80022FDEACF209142
:1007A000E80020FFE2CF3091F3002091F2000097A3
:1007B00019F02830310558F041E02830310509F0B2
:1007C00040E02091E8002E772093E800CECF4191C1
:1007D0004093F10001972F5F3F4FE9CF80911B02BB
:1007E000882341F0853041F08091E80083FFC1CF3C
:1007F00081E0089582E0089583E008952FB7F8948A
:1008000080910C0290910D02A0910E02B0910F0206
:100810002FBF089580910B01089590910C019130A4
:10082000E1F49091090297FF18C0E82FE695E6954C
:10083000E695803FF0F4F0E0E259FE4F877021E04A
:1008400030E0A90102C0440F551F8A95E2F7CA01A2
:1008500080959281892382830895E8E6F1E0919161
:10086000891303C0DF0111971C9251E0EE36F507A2
:10087000B1F7089590910C019130C1F49091090263
:1008800097FF14C0E82FE695E695E695803FF8F4CB
:10089000F0E0E259FE4F877021E030E001C0220F06
:1008A0008A95EAF78281822B82830895A8E6B1E0D7
:1008B000EFEF90E02D91821751F0EF3F19F42111E5
:1008C00001C0E92F9F5F9630A9F7EF3F09F4089523
:1008D0000E2E000CFF0BEA59FE4FE6CFA3E0B0E06E
:1008E000E4E7F4E00C94F31D9C01809107029091E1
:1008F000080282179307A1F03093080220930702A1
:10090000E0910502F0910602309751F084E089836E
:100910003B832A830084F185E02DCE010196099561
:100920002396E2E00C940F1EA3E0B0E0EAE9F4E0C5
:100930000C94F31D9C018091030290910402821794
:100940009307A1F03093040220930302E091050283
:10095000F0910602309751F083E089833B832A832C
:100960000084F185E02DCE01019609952396E2E001
:100970000C940F1EE0910502F0910602309729F0C9
:100980000190F081E02D0995089580E008950E947E
:10099000FE032091FF0130910002232B21F0809370
:1009A000FB019093FC012091010230910202232B64
:1009B00021F08093F9019093FA01E0910502F09102
:1009C0000602309749F082E08093FD010680F781AE
:1009D000E02D8DEF91E0099508958091F80180FD5B
:1009E00016C081FD16C082FD16C08091F7018823D4
:1009F000A1F0883280F428E0829FC001112468E2CF
:100A000070E00E94C21D862F672B39F0089582E0A6
:100A1000089584E0089588E0089581E00895809124
:100A2000F80180FD14C081FD14C082FD16C08091C4
:100A3000F601882381F08E3180F420E5829FC00189
:100A400011246EE170E00E94C21D862F089584E19A
:100A5000089588E2089588E0089580E50895282F94
:100A600035EB2303C001112497FF04C0805891097E
:100A7000892F089580589F4FFBCF80E00895F89408
:100A8000E82FE295EF70F0E041A18F7021E030E0B7
:100A9000B90102C0660F771F8A95E2F7CB01962F46
:100AA0009095942391A392A1892B82A37894089581
:100AB0009091090292FF10C041E0282F2471243048
:100AC00009F040E031E0282F2871283009F030E0AB
:100AD000431711F02CE0822793FF10C041E0282F2C
:100AE0002471243109F040E031E0282F28712831A9
:100AF00009F030E0431711F02CE0822730910A0210
:100B000030FF10C051E0282F2171213009F050E052
:100B100041E0282F2871283009F040E0541711F0E7
:100B200029E0822731FF10C041E0282F21712131B7
:100B300009F040E031E0282F2871283109F030E039
:100B4000431711F029E0822794FD877E0895803EA7
:100B50009105C1F1C8F48133910509F47DC048F4D1
:100B60008932910509F46DC08A32910509F47BC080
:100B7000089589339105D1F082389105B9F0853314
:100B8000910509F459C00895843E9105C1F138F4E6
:100B9000823E910521F1833E910531F10895863E13
:100BA0009105C1F1873E9105E1F108952091090277
:100BB000237009F065C020910A0223FF14C089E266
:100BC00090E008952091090220FD43C030910A026F
:100BD00030FF09C024FF4EC090E080E008952091CE
:100BE000090222FDF7CF08952091090222FD45C098
:100BF00030910A0230FD44C024FFF5CFEDCF2091A3
:100C00000A0221FFF0CF8091090284FDE5CF87EE33
:100C100090E008952091090223FFE5CF24FDDCCF69
:100C2000F6CF2091090223FD2EC030910A0231FF38
:100C3000E3CF84EE90E008952091090225FFD3CF01
:100C4000BECF2091090225FD21C020910A0223FF79
:100C5000CACF89E390E0C7CF2091090226FFC3CF16
:100C60008AE290E008952091090226FFBCCF81E33B
:100C700090E0089583EE90E0089582EE90E008956C
:100C800080EE90E0089586EE90E0089585E390E090
:100C900008951F93CF93DF930E94A705EC01811560
:100CA000924508F05FC0C11580E5D80708F0DDC0A7
:100CB000C03ED10538F5CD3CD10508F0AEC0C83AEC
:100CC000D10580F4C53AD10508F0A4C0C130D105E2
:100CD00009F443C0CE010497813A9105F0F1D0E0C8
:100CE000C0E03BC0CE01885A91094B97C0F7C85A63
:100CF000D0E0CC0FDD1FC25FDE4F0990D881C02D40
:100D0000D4642BC0C11590E4D907F0F4C11520E2DA
:100D1000D20708F0C4C0C83ED105F8F0CE019A95BC
:100D200081159F41E0F68D2F0E945805182FCE01A6
:100D300099270E94A705C12FD0E0DC2FCC27CC2714
:100D4000DF71C82BD92B09C0CE0199270E94A705B6
:100D5000CC27DF70C82BD92BD06ACE01DF91CF9181
:100D60001F910895C03882E5D807B8F5C03692E5DE
:100D7000D90708F05BC0C03422E5D207C8F4C032FE
:100D800082E5D80708F04BC02C2F2695269590E2D7
:100D9000299F900111248C2F8370C1E0D0E002C004
:100DA000CC0FDD1F8A95E2F7C22BD32BDD68D5CFA0
:100DB0002C2F26952695277080E2289F90011124DC
:100DC0008C2F8370C1E0D0E002C0CC0FDD1F8A956C
:100DD000E2F7C22BD32BDC68C0CFC03C92E5D90729
:100DE00060F48C2F8F71C03AD245A8F5C82FD0E09F
:100DF000DC2FCC27C46FD06AB0CFCE01805C924587
:100E0000809708F06CCFDC2FCC27CC27DF71C06F28
:100E1000D06AA3CFA497D064A0CFD0659ECFCF7166
:100E2000D0E0DC2FCC27C16FD06A97CF2C2F26952E
:100E30002695277080E2289F900111248C2F8370C3
:100E4000C1E0D0E002C0CC0FDD1F8A95E2F7C22BD3
:100E5000D32BDA6882CF0E945805C82FD0E0DC2F50
:100E6000CC27CC27DF71D06278CF8C2F8F710E9476
:100E7000580555E0D695C7955A95E1F7CF70D0E063
:100E8000DC2FCC27282F30E084FF05C044E0220F60
:100E9000331F4A95E1F7C22BD32BD0695ECF8D2F3C
:100EA0008F710E945805182FCE0199270E94A7051F
:100EB000C12FD0E0DC2FCC27CC27DF71C82BD92B5A
:100EC000D2CF982F90958091D40189238093D4011B
:100ED00008958091D4019091AB01892B9091AA0142
:100EE000992391F0892B90910C01913071F490919C
:100EF000090297FF0AC09EE120E731E040E09150EF
:100F000040F441111092AA01089596E028E631E0DC
:100F1000F5CFF90151919F01552389F34F5FEFCF31
:100F200080915E0290912502981301C008958F5F11
:100F30008770FACF292F943078F58C3068F590E0DF
:100F40003CE0239F800D911D1124682F677023E0E2
:100F5000969587952A95E1F7FC01EE0FFF1FE80FA4
:100F6000F91FE057FE4F50E040E080E0219130E073
:100F7000062E02C0369527950A94E2F72170332792
:100F8000042E01C0220F0A94EAF7822B4F5F5F4FB5
:100F90004330510559F7089580E00895292F943082
:100FA00090F58C3080F590E03CE0239F800D911D02
:100FB0001124282F277041E001C0440F2A95EAF739
:100FC00023E0969587952A95E1F7FC01EE0FFF1F28
:100FD000E80FF91FE057FE4F90E080E070E051917C
:100FE000DF0111979B01082E02C0369527950A94C0
:100FF000E2F7217021952527242325272C9301969C
:101000008330910561F708958093E30108959091ED
:10101000E30121E030E0F90101C0EE0F8A95EAF723
:10102000D90102C0AA0FBB1F6A95E2F7EA2B01C0E3
:10103000220F4A95EAF7892F8E23E81305C0292B42
:10104000822F0E940408089520952923F9CF21E0DA
:1010500030E001C0220F8A95EAF720958091E301E4
:1010600082230E94040808959091A9018095892304
:101070008093A901282F277069F4891759F090915E
:101080000A0292FF07C08695869586950E942708DA
:101090001092A901089521E030E001C0220F8A9545
:1010A000EAF78091E301822B0E940408089580935F
:1010B000E2010895662309F45DC08D3C41F40E946D
:1010C0000F058195809300020E94C70408958E3C0D
:1010D00019F40E940F05F6CF8F3C31F40E940F05E2
:1010E00081958093FF01F0CF803D19F40E940F0598
:1010F000F8CF893D29F40E94ED0480930102E4CFEA
:101100008A3D21F40E94ED048195F7CF8B3D31F4A7
:101110000E94ED04819580930202D6CF8C3D19F494
:101120000E94ED04F8CF9FE2980F983070F4815D33
:10113000990B21E030E001C0220F8A95EAF78091F7
:10114000FE01822B8093FE01BFCF8D3D31F4809153
:10115000F80181608093F801B7CF8E3D21F4809132
:10116000F8018260F7CF8F3D09F0AECF8091F80192
:101170008460F0CF4091FF018D3C59F480910002D2
:1011800087FF0DC01092000241110BC01092F601B2
:1011900008C08E3C81F48091000218169CF3442311
:1011A00081F08091010290910202892B09F08CCF8D
:1011B0001092F70189CF8F3C49F447FFF0CF10928E
:1011C000FF01809100028111ECCFE0CF803D19F446
:1011D0001416ACF3E4CF90910102893D29F419165D
:1011E000F4F610920102DBCF8A3D19F497FFD7CFB6
:1011F000F8CF909102028B3D29F497FFD0CF109247
:101200000202CDCF8C3D19F41916CCF3C8CF9FE262
:10121000980F983090F4815D990B21E030E0B9018E
:1012200002C0660F771F8A95E2F7CB0180959091F7
:10123000FE0189238093FE01B2CF8D3D31F4809170
:10124000F8018E7F8093F801AACF8E3D21F4809122
:10125000F8018D7FF7CF8F3D09F0A1CF8091F80184
:101260008B7FF0CF0F931F93CF93DF938B01EA0116
:1012700090911B02943061F58093E9008FEF90917B
:10128000E800815095FD06C095ED9A95F1F70000B4
:101290008111F5CF8091E80085FF1AC00E94C70236
:1012A000811111C08091E80085FD06C08091E800A1
:1012B0008E778093E800F2CFF80181918F018093BF
:1012C000F100219779F78091E8008E778093E8000C
:1012D000DF91CF911F910F910895BC0143E050E041
:1012E00084E00E9432090895BC0146E050E084E0A9
:1012F0000E9432090895BC0140E250E084E00E945F
:1013000032090895CF93DF93D82FC92F48E050E0DA
:10131000682F792F81E00E94320988E0ED2FFC2FA1
:10132000A1E1B2E001900D928A95E1F7DF91CF91B2
:10133000089581E08093E00080E28093D8001092CD
:10134000C9008FE19EE40197F1F700C0000087E03B
:1013500090EBDC018093620290936302A09364029D
:10136000B093650288E19CE00FB6F894A89580934D
:1013700060000FBE90936000FFCFCF93C82F6FEF38
:10138000811165E284E290E00E944C1E6FEFC11172
:1013900065E085E290E00E944C1E6FEFC11160E1B4
:1013A00086E290E00E944C1ECF910895CF93DF9388
:1013B000C8EAD1E060E0CE010E944C1E2196C11522
:1013C00084E0D807B9F7DF91CF9108951F93CF93A9
:1013D000DF93962F122F632F8430D8F49430C8F403
:1013E0004C30B8F4C42FD0E0CC0FDD1F28E1929F21
:1013F000C00DD11D112490E6899FC00DD11D11246F
:10140000CE0188960E944C1E612FCE0189960E94C3
:101410004C1EDF91CF911F910895AF92BF92CF9252
:10142000DF92FF920F931F93CF93DF93B12CA12CE8
:1014300000E0650110E013C0FE01259134914F2DAD
:10144000612F802F0E94E6092296F3948CE0F81217
:10145000F3CF8CE0C80ED11C1F5F143039F0E601C9
:10146000CC0FDD1FC858DD4FF12CE6CF0F5F80E3B6
:10147000A80EB11C0430E9F6DF91CF911F910F91B6
:10148000FF90DF90CF90BF90AF90089580E00E94D2
:10149000BD0960E087E290E00E944C1E0E940D0AA8
:1014A0000E94D60981E00E94BD09089584E290E07F
:1014B0000E942E1E853289F485E290E00E942E1E45
:1014C000853059F486E290E00E942E1E91E0803132
:1014D00009F090E0892F8170089580E0FCCF0F9390
:1014E0001F93CF93DF93EC0108811981C8010E94FB
:1014F0002E1E0F5F1F4F19830883DF91CF911F911D
:101500000F9108950F931F93CF93DF93843030F59D
:10151000643020F54C3010F5C42FD0E0CC0FDD1F27
:1015200028E1629FC00DD11D112430E6839FC00DBC
:10153000D11D1124CE0188960E942E1E082F10E086
:10154000102F0027CE0189960E942E1E9801282B6D
:10155000C901DF91CF911F910F91089590E080E034
:10156000F8CF462F672F743038F44C3028F484308D
:1015700018F40E94820A089580E090E00895B0E097
:10158000A0E0E5ECFAE00C94EE1D7C010091E30193
:101590008091E201082BC3E0D0E010E0DC2EC8010E
:1015A0000C2E02C0959587950A94E2F780FD09C03C
:1015B0002197A0F7D12C8D2DCDB7DEB7E7E00C94A5
:1015C0000A1EB7018C2F0E94B10A0E94490601979A
:1015D00079F3F1CFCF93DF93D82FC92F0E94BF0AA1
:1015E0006D2F7C2F0E94B10A0E944906DF91CF9196
:1015F0000895FC0184818823A1F0808191810E945B
:10160000EA0A282F92959F70963091F060F4925FCD
:101610009F70923030F481E0203F81F030F4283E1A
:1016200030F080E004C09A5FF3CF243FD1F70895F3
:1016300081E0283E20F0213FA1F7F9CF08950895D9
:10164000A6E0B0E0E6E2FBE00C94F21D9C0186E02F
:10165000F901DE01119601900D928A95E1F7F901E9
:10166000258189819A81222399F0662389F00E943D
:10167000BF0A182F682F89819A810E94CE0769813D
:101680007A81812F0E94B10A2696E3E00C940E1E07
:101690000E949A07182FF3CF90910A0292FB2227FB
:1016A00020F9281779F080FB92F990930A02609153
:1016B000090270910A0284E090E00E946A1E82E0B2
:1016C0000E943408089580910C01813059F5809171
:1016D000090287FF27C00E94690780936F0140E2DB
:1016E00050E06CEA71E08EE691E00E94801E892B4A
:1016F000C1F080E2EEE6F1E0ACEAB1E001900D92DB
:101700008A95E1F7E0910502F0910602309749F0E1
:1017100086E080936E010480F581E02D8EE691E0F5
:10172000099508950E9469078093660148E050E09A
:101730006CEC71E086E691E00E94801E892B89F3B3
:1017400088E0E6E6F1E0ACECB1E001900D928A951C
:10175000E1F7E0910502F0910602309711F3028063
:10176000F381E02D86E691E0DBCF1092D4018091E9
:101770000C01813039F58091090287FF23C0E0E731
:10178000F1E08EE1DF011D928A95E9F790E080E0BB
:101790000E94940490E080E00E946E041092AB01DD
:1017A0000E94630B86E0EDEFF1E0DF011D928A9568
:1017B000E9F71092F6011092F7011092F8010E94D9
:1017C000C7040895E8E6F1E086E0DCCFAAE2B0E0E5
:1017D000ECEEFBE00C94F21D8DE192E0FC01019631
:1017E0002091F100208322E085329207B9F78091A1
:1017F0001E02893009F45AC0C8F4823009F4B7C017
:10180000833009F486C0813091F18091E80083FF34
:101810003AC180911D0290911E029A3008F033C1A6
:10182000E92FF0E0E157F14E0C94D61D8A3009F40F
:101830008DC08B3051F780911D02813231F780913C
:10184000210290912202892B01F78091E800877F85
:101850008093E8000E94F80281E090911F029111AC
:1018600001C080E080930C010E94B50BCECF809127
:101870001D02813A51F68091E800877F8093E8004D
:101880008091210290912202892B61F468E081E12C
:1018900092E070E00E94A4038091E8008B7780932F
:1018A000E800B3CF60E090E080E0F3CF80911D02CC
:1018B000813209F0AACF80912102909122028D7F7E
:1018C000892B09F0A2CF8091E800877F8093E80000
:1018D0008091E80082FF18C09091F3008091F2009F
:1018E000029731F48091F100813011F0863021F4BB
:1018F0008091F10080930B018091E8008B778093B9
:10190000E8000E94F80281CF80911B028111E0CF94
:101910007CCF80911D02813A09F077CF809121021E
:1019200090912202892B09F070CF8091E800877F87
:101930008093E8008091E80080FFFCCF80910C014B
:101940008093F1008091E8008E77D9CF80911D02BD
:10195000813209F05ACF8091E800877F8093E800B8
:101960000E94F8028091200280930A014ECF80915C
:101970001D02813A09F049CF8091E800877F80936A
:10198000E8008091E80080FFFCCF80910A01D8CF69
:10199000803899F0823809F076C0809121028F70EA
:1019A000873008F070C08093E9008091EB0085FBE0
:1019B000882780F91092E90006C080911902909161
:1019C0001A02911182609091E800977F9093E8004D
:1019D0008093F1001092F1008091E8008E77B7C1FA
:1019E000882309F4A4C1823009F04DC080911F0200
:1019F0008111A8C1809121028F702FEF280F26300E
:101A000008F041C08093E9002091EB0020FF9AC1CB
:101A1000933031F48091EB0080628093EB0092C1AF
:101A20009091EB0090619093EB0021E030E001C0D9
:101A3000220F8A95EAF72093EA001092EA0080913B
:101A4000EB008860EACF81111EC010911F021F7742
:101A50008091E3008078812B8093E3008091E800FF
:101A6000877F8093E8000E94F8028091E80080FF61
:101A7000FCCF8091E30080688093E30082E0111145
:101A800083E080931B028091E80083FF0AC080916D
:101A9000E800877F8093E8008091EB00806280936C
:101AA000EB00AA96E3E00C940E1E8058823058F7A3
:101AB00040911F02509120024C3D83E05807A1F550
:101AC00083E08A838AE289834FB7F894DE01139614
:101AD00020E03EE051E2E32FF0E050935700E49124
:101AE00020FF03C0E295EF703F5FEF708E2F90E014
:101AF000EA30C0F0C7968D939D932F5F243159F73C
:101B00004FBF8091E800877F8093E8006AE270E031
:101B1000CE0101960E94A4038091E8008B77809308
:101B2000E800B1CFC096E7CF8091210290912202C8
:101B3000252F33272330310509F44AC078F52130A9
:101B4000310509F479C08BE590E0E8EFF3E022304D
:101B5000310509F098CF2091E800277F2093E80015
:101B600020912302309124028217930708F49C01EC
:101B700040E02115310509F064C0411162C0809137
:101B8000E80082FDC9CF80911B02882329F28530AD
:101B900019F28091E80083FFF2CFBECF21323105E8
:101BA00009F43BC02232310509F06DCF8330910535
:101BB00008F069CFFC01EE0FFF1FE95AFE4F0190BC
:101BC000F081E02D8C5A9E4FDC018C9190E011C089
:101BD000CA019927413089F082309105B1F0892BF3
:101BE00009F051CFEBE9F4E0E4918E2F90E0EBE9BE
:101BF000F4E0009709F447CFAECFE5E8F4E0E491D4
:101C00008E2F90E0E5E8F4E0F4CFE5E6F4E0E4912F
:101C10008E2F90E0E5E6F4E0ECCF8330910508F0FC
:101C200032CF880F991FFC01E35AFE4F0190F081DB
:101C3000E02D89E090E08FCF82E190E0E3E5F4E0F1
:101C40008ACF80911B02882309F466CF853009F47E
:101C500063CF8091E80083FD5FCF8091E80082FD33
:101C60008ECF8091E80080FF84CF9091F300809127
:101C7000F2002115310519F08830910550F041E04E
:101C8000089709F040E08091E8008E778093E800A3
:101C900070CF44914093F100319621503109019663
:101CA000E8CF803809F0EFCE8091E800877F8093FD
:101CB000E80080911C028093F1008ECE8111E3CE6A
:101CC00010911F02123008F0DECE8091E800877F6D
:101CD0008093E80010931C020E94F802112311F077
:101CE00084E005C08091E30087FDFACF81E0809316
:101CF0001B0242E061EC81E00E94170342E261ECCA
:101D000084E00E94170342E261EC82E00E94170324
:101D100042E260EC83E00E94170380911B02843052
:101D200021F081E080930D01AECE82E0FBCF809167
:101D30001F02813009F0A7CE81E0933009F080E0E6
:101D400080931A021092E9008091E800877F8093C7
:101D5000E8000E94F80297CE0E94B50B2FEF84E3B3
:101D60009CE0215080409040E1F700C0000088E1F5
:101D70009CE00FB6F894A895809360000FBE9093F6
:101D80006000FFCF882321F00E9461070E94630B4F
:101D90000895882339F09091D401892B8093D40140
:101DA0000E94630B0895882381F19CEF980F913A6C
:101DB00028F40E940D040E94630B089590E2980F8E
:101DC000983050F4877091E001C0990F8A95EAF736
:101DD000892F0E946107EFCF9BE5980F933028F47D
:101DE00090E080E00E949404089598E5980F9B315C
:101DF00028F490E080E00E946E04089593E3980F29
:101E0000933118F460E00E945A080895CF93C82FC8
:101E10008823B1F18CEF8C0F813AA0F580910C01F1
:101E2000813001F58091090287FF1CC0EC2FE695F7
:101E3000E695E695F0E0E259FE4F828190E04C2F66
:101E4000477021E030E002C0220F331F4A95E2F7CD
:101E500082239323892B79F08C2F0E940D040E94FA
:101E6000630B09C0E8E6F1E08191C817A9F321E00E
:101E7000EE36F207C9F78C2F0E943A040E94630BDA
:101E8000CF91089580E28C0F883068F4C77021E00C
:101E900030E001C0220FCA95EAF78091D401822B6D
:101EA0008093D401EBCF8BE58C0F833038F42C2F4B
:101EB0002452330BC9010E949404E2CFE8E5EC0FF1
:101EC000EB3150F4F0E0EE0FFF1FE25FFE4F808138
:101ED00091810E946E04D4CF83E38C0F833180F60E
:101EE00061E08C2F0E945A08CBCFA8E0B0E0EBE76E
:101EF000FFE00C94E71D8E010F5F1F4F88E0F80193
:101F000011928A95E9F794E4E92E91E0F92E68019F
:101F100028E4622E21E0722E88248394912CF7010C
:101F200081917F018F3F09F446C0F894E82FE29534
:101F3000EF70F0E021A18F70A40102C0440F551F83
:101F40008A95E2F7CA01922F982B91A392A18095CE
:101F5000892382A3789400C0E8E4F1E021E030E036
:101F6000B12CA12C41914F3F09F44CC0A42FA29554
:101F7000AF70B0E090968C9190E04F7002C0959554
:101F800087954A95E2F780FD3DC0C901A82AB92A84
:101F9000220F331F51E0E435F50721F7F7013197A0
:101FA00080818F3F11F00E943F0580EA8A95F1F70A
:101FB000F601B182A082F2E0CF0ED11C6E147F0434
:101FC00009F0ADCF48E050E0B8018AED91E00E9401
:101FD000801E892BE1F088E0F801AAEDB1E00190C4
:101FE0000D928A95E1F781E08093D9010E94FE036A
:101FF0009093D8018093D70110E0812F2896EEE0CE
:102000000C94031E90E080E0C1CF10E021C010913D
:10201000D901112389F3E090D701F090D8010E94F3
:10202000FE038E199F09059738F348E050E06AEDEA
:1020300071E08EEE91E00E94801E892B31F388E0E2
:10204000EAEDF1E0AEEEB1E001900D928A95E1F794
:102050001092D901D2CF1F93CF93DF93182FEB01AA
:102060000E94060F209739F4812F0E94D30EDF9132
:10207000CF911F9108958FE99FE00197F1F700C07C
:1020800000002197EFCFEF92FF920F931F93CF9312
:10209000DF93C62FD42F122FFC0185818823A9F04E
:1020A000609361020E94FE039093600280935F023E
:1020B000C77081E001C0880FCA95EAF70E94C90E77
:1020C000CDB7DEB7E6E00C940B1E80916102681379
:1020D00034C0E0905F02F09060020E94FE038E190F
:1020E0009F09883C910548F500E20D0FCD17A9F036
:1020F000C770FF24F3948F2D01C0880FCA95EAF7AB
:102100000E94C20E083048F48D2F877001C0FF0C6A
:102110008A95EAF78F2D0E94C90E70E060E0812F4A
:102120000E942B10083060F6D77081E001C0880F44
:10213000DA95EAF70E94C20EC3CFC77081E001C0F2
:10214000880FCA95EAF7F6CFA2E0B0E0EAEAF0E13C
:102150000C94E81D7C01FC018481882309F482C071
:1021600061E0C7010E94200B8C01F7018581882363
:1021700009F4EAC0980137572038310508F0A6C4A1
:10218000D02EFFE0F01708F45EC08FEF93E00E94BE
:102190002E1E811158C008EA11E0D11021C01A8307
:1021A00009833AE0932ECE0101960E946F0A88239C
:1021B00009F449C0813009F06FC0CE0101960E9438
:1021C0006F0A8130D1F4CE0101960E946F0A70E04F
:1021D00060E0893311F460E570E00E942B10E3CFDA
:1021E000011524E0120779F1C8010E942E1E811109
:1021F00001C0DA940F5F1F4FD0CF823039F4CE0187
:1022000001960E946F0A0E94060FCDCF833039F4E9
:10221000CE0101960E946F0A0E94D30EC4CF843073
:1022200081F4CE0101960E946F0A10E000E0482F71
:102230004053550B9A014A305105C0F00115110564
:1022400011F58111B0CF8091A901877059F0F70184
:102250008581882339F080910A0282FF03C082E0E1
:102260000E9434082296EDE00C94041E909EC0015A
:10227000919E900D11248901080F191FCE0101961E
:102280000E946F0AD4CFEFE9FFE03197F1F700C069
:10229000000001501109D2CFE82FF0E0E850FE4FC6
:1022A0008490282F26952695269530E0F901E8514F
:1022B000FE4FC4908770D12C082E02C0D594C794CD
:1022C0000A94E2F7F1E0CF22DD24F901E852FE4F53
:1022D000A490B12C082E02C0B594A7940A94E2F7FA
:1022E00041E0A422BB24F901E853FE4F049110E021
:1022F00002C0159507958A95E2F701701127C11460
:10230000D10419F081EE0E94060FA114B10419F056
:1023100086EE0E94060F70E060E0882D0E942B1070
:10232000A114B10419F086EE0E94D30EC114D10499
:1023300019F081EE0E94D30E0115110509F433CF77
:1023400070E060E08CE249CFF801E851FC47E730EB
:10235000F10508F0AFC3E756F14E0C94D61D26E206
:1023600041EE61EEC7010E9443106DCF27E245EEBA
:1023700065EEF8CF26E241EE60EEF4CF27E245EEBF
:1023800064EEF0CF26E241EE62EEECCF27E245EEBE
:1023900066EEE8CF28E241E0EBCF80910902816050
:1023A000809309026091090270910A0284E090E032
:1023B0000E946A1E0E94B50B46CF80910A02886077
:1023C00080930A02EFCF809109028260E9CF809169
:1023D00009028460E5CF809109028860E1CF809195
:1023E0000A028160EDCF80910A028260E9CF80917C
:1023F00009028061D5CF809109028062D1CF80919E
:1024000009028064CDCF0E94B50B809109028068DB
:10241000C7CF809109028C60C3CF80910A0283608C
:10242000CFCF809109028E7FBBCF80910A02877F38
:10243000C7CF809109028D7FB3CF809109028B7F36
:10244000AFCF80910902877FABCF80910A028E7F48
:10245000B7CF80910A028D7FB3CF809109028F7E22
:102460009FCF809109028F7D9BCF809109028F7B46
:1024700097CF0E94B50B809109028F7791CF809101
:102480000902837F8DCF80910A028C7F99CF809142
:10249000090282FB992790F921E0922790FB82F9AB
:1024A00090FB83F97DCF80910A02982F90959170CF
:1024B0008E7F892B90FB81F983CF90910902892F20
:1024C0008F7B96FF80646CCF0E94B50B90910902C0
:1024D000892F97FB87F9805863CF61E08EE090E009
:1024E0000E944C1E5FCF60E0F9CF90910902892FC6
:1024F0008F7E94FF806154CF90910902892F8E7F47
:1025000090FF81604DCF90910A02892F877F93FFC2
:10251000886056CF85E3C9C285E3D5C207375CE73B
:102520001507F9F008379CE7190721F19801205E9B
:1025300032452032310520F5811139C00F7181E01B
:1025400090E0FC0102C0EE0FFF1F0A95E2F78F0139
:102550006E2F83E090E00E944C1E802F0E9457084F
:1025600072CE81E00E944B0843E062E081E00E946D
:10257000070869CE882311F082E0F4CF82E0CDC253
:102580008823A9F00A35FCE71F0709F487C008F083
:102590005EC001303CE7130709F47EC003304CE70E
:1025A000140709F473C001151C4709F462C0F70150
:1025B0008581C080D180882309F474C0C6010E943F
:1025C000BF0A182F682FC6010E94CE07B601812FBF
:1025D0000E94B10A0E9449068C01882EF70175807D
:1025E000968092942FE092228091A901877009F140
:1025F000B72C7720F9F0812F807F803469F080E25A
:10260000800F8830B0F0812F807E803229F4F1E095
:10261000F01778F4992069F080910A0282FF09C0CE
:1026200082E00E9434088091A9018770BB24B39492
:102630008111B12C812F82958F70C82ED12C8C30B6
:1026400008F094C0F601E056F14E0C94D61D0B35FF
:102650008CE7180729F10C351C4709F0A8CF8091A9
:102660000A0282FB882780F991E089270E944C0B9F
:102670009ECF0E94B50BEFEFF4E32CE0E150F04069
:102680002040E1F700C000000E9499096FEF7FEF42
:1026900090E080E00E946A1E0E94AC0E81E0E6CFCE
:1026A00080E0E4CFC6010E949A07182F8FCF212F18
:1026B0002F70A22E107F19F0A29490EFA922802FE4
:1026C0007720B9F0AA2069F090E2900F983010F0CE
:1026D000011109C08091D401A82AA092D4010E94BE
:1026E000630B802F41C08091AB01A82AA092AB015F
:1026F000F6CF0E94D30EAA20C9F1005E083010F078
:10270000811004C08A2D0E94610706C0A0948091A8
:10271000AB01A822A092AB010E94630B27C0312F0E
:102720003F70A32E107F103219F0A29480EFA822E0
:10273000882051F041E0841609F45DC0772009F447
:1027400069C0992061F1CDCF80910A0282FD23C03A
:102750007720D9F0AA2039F08091D4018A2980937A
:10276000D4010E94630B80E00E94060FF8E0CF1AAC
:10277000D10824E0C216D10408F06EC10E94BA0448
:1027800060E0C7010E94200B6DCD80E00E94D30E57
:10279000AA2061F3B7CF772099F0911004C08A2D59
:1027A0000E94C90EE3CF51E09512E0CF8091AA01BB
:1027B0009A2D9823A916D1F28A298093AA01D6CFFF
:1027C0009110D4CF8A2D0E94C20E9091AA018A2D19
:1027D000892329F08A2D809589238093AA019091DD
:1027E0008F018A2D892309F4C1CF8A2D80958923F1
:1027F00080938F01BBCF772029F085E0891508F4FD
:10280000B5CFCDCF94E0991508F4B0CF8A2D0E94B2
:10281000C20EACCF9920D1F3093349F4EFEFF7EEB4
:1028200023E0E150F0402040E1F700C00000802F9D
:102830000E94D30E9BCF812F86958695837061F081
:10284000813009F093CFC8019370711002C080E00D
:1028500090E00E946E048ACFC8019370711002C08C
:1028600080E090E00E94940481CF672D802F0E9429
:102870005A087CCF812F837091F5711077CF402F4C
:10288000429546954770440F440F802F8F70042E59
:1028900001C0880F0A94EAF7202F207104FF07C0B7
:1028A0002FE030E001C0220F4A95EAF720951695F7
:1028B00016951370123071F0133051F03091E2011F
:1028C000113029F0822B83230E9457084FCF832B8E
:1028D000822BFACF282B8091E2018227F5CF8695B3
:1028E000772011F0812F8170882309F43FCF402F8A
:1028F000429546954770440F440F802F8F70042EE9
:1029000001C0880F0A94EAF7202F207104FF07C046
:102910002FE030E001C0220F4A95EAF72095169586
:1029200016951370123071F0133051F03091E301AD
:10293000113029F0822B83230E94040817CF832BA8
:10294000822BFACF282B8091E3018227F5CF1F70CD
:10295000772029F0812F0E944B08802F21CF802FD4
:102960000E94C20E812F0E94270800CF802F32EFD5
:102970008316B1F1381570F040EF8416D1F051EFA5
:10298000851691F0772009F457C09110AACE812FB7
:102990008F712AC093EF891651F1E4EF8E12F2CFB6
:1029A00090910A0292FD2FC0812F8F717720D9F26A
:1029B0001BC0772081F0F4E0F91508F4D7CE1F7121
:1029C00081E090E0012E01C0880F0A94EAF790910F
:1029D000E3018927B1CF25E0291508F4C7CEEFCF51
:1029E000812F8F717110BFCF0E944B08BFCE80E046
:1029F000772009F4A1CF1F7181E0012E01C0880F5B
:102A00000A94EAF799CF772061F0812F8F7192FFB6
:102A1000EBCF48E0849F9001112423602093A9010B
:102A2000E3CF81E00E94340851E0591508F09ECEB2
:102A300082E00E9434089ACE992059F0893309F037
:102A4000F6CE8FEF97EEE3E081509040E040E1F763
:102A5000ECCE812F8F7187CFBB2009F491CE80916E
:102A6000A90180FD8DCEF701158286958695869504
:102A70000E944B08C7010E94A4108091A90186956D
:102A8000869586950E9427087BCE0631FCE71F07B6
:102A900009F044CD8091D4018A7A91E009F490E064
:102AA00090938E01811136CD89E20E943A040E94F2
:102AB000630BC9CB06312CE7120749F580918E01D3
:102AC00081112ACD89E20E940D04F1CFF801E8516D
:102AD000FC47E730F10508F43ECC10926102980102
:102AE00030572332310588F684E090E00E94361E8C
:102AF00090930A0280930902F801E150F047E23214
:102B0000F10508F04ACCE455F14E0C94D61D073778
:102B10003CE7130709F006CD81E00E94270824CD89
:102B2000CF93DF938091A801807F09F04DC0809101
:102B3000A701882309F448C0E0915E025091250264
:102B4000C091A301D091A2016091A4017091A5014F
:102B500047E05E17C9F18E2F90E0E49FF001112449
:102B6000EA5DFD4F2481222391F1489FF001499FA6
:102B7000F00D1124DF01AA5DBD4F11962C91119724
:102B80002C1325C02C912D1322C015962C9115972E
:102B900021111DC012962D913C91261B370B283C0C
:102BA0003105A8F48091A8018F7080618093A801FD
:102BB000E45DFD4F80818F708061808382EA91E0C7
:102BC0000E94A4100E949007DF91CF910895FC010C
:102BD0003196E770BECFADE0B0E0E1EFF5E10C94E7
:102BE000E91D8C0186E0F801DE01189601900D9236
:102BF0008A95E1F7F8018481E58092EAA92E91E0B7
:102C0000B92E9091A601911128C0882319F1EE20C8
:102C1000F1F0C8010E94F90AF82E8823C1F087E07C
:102C2000F801D50101900D928A95E1F78091A601F6
:102C3000813031F48091A2019091A3010E94EA0AAF
:102C40000E9490158F2D2D96ECE00C94051EC80166
:102C50000E94A410FF24F394F5CFD080C18082801D
:102C60009380F090A7012091A4013091A501A401C7
:102C7000421B530BFF2009F4BCC0483C510508F02F
:102C800092C08823F9F29091A3018091A801282F86
:102C9000207F09F056C0C91214C09091A201D91228
:102CA00010C0E11048C08F7080618093A80182EA53
:102CB00091E00E94A4108091A801F8018683F12C74
:102CC000C1CFE11038C06C2D8D2D0E948A026C2D71
:102CD0008D2D0E948A02E82E8111F1CFD886C986F7
:102CE000888599850E94EA0A292F22952F709034B1
:102CF00058F49F70223088F0992399F0F80196815A
:102D0000907F79F4FE2C9ECF2A5F2F70223068F0DE
:102D1000C8010E94A410EF2CF5CF992311F088234D
:102D200089F3805E883070F3F3CF803F58F3815F82
:102D3000833040F3EDCF8091A80181608093A8019A
:102D4000BECFC91207C09091A201D91203C0EE20D4
:102D500009F470C0C8010E94F90A882309F477CFEA
:102D6000EE2009F474CF8091A801803288F0209180
:102D7000A2013091A3013A8329839C828B82909196
:102D8000A6019D831E828F83CE0101960E94A4100E
:102D900087E0F801A2EAB1E001900D928A95E1F78F
:102DA0000E94901557CF9091A801292F207F51F4B0
:102DB00082EA91E00E94A41087E0F50111928A95C1
:102DC000E9F77DCF882309F43DCF8091A3018C11D1
:102DD000C1CF8091A201D812BDCFE110BBCF9683A5
:102DE000C8010E94A41087E0F50111928A95E9F7C5
:102DF00029CF483C5105B8F7882309F42BCFFE2C86
:102E0000EE2009F424CF8091A3018C1120C0809181
:102E1000A201D8121CC08091A80180FD0FC0982F7C
:102E2000907F61F08683903F31F0982F907F905F84
:102E30008F70892B8683C8010E94A41087E0F80157
:102E4000A2EAB1E001900D928A95E1F7FBCEC801AC
:102E50000E94F90A81119CCF8091A8018160809322
:102E6000A801C8010E94A410EDCEABE1B0E0EBE3F5
:102E7000F7E10C94F21D4E8B5F8B688F798F8A8FF0
:102E80009B8F91111092AB011D8A86E0FE01769610
:102E9000DE011F9601900D928A95E1F78B898823B8
:102EA00051F061E0CE010F960E94200B61E0CE014F
:102EB0000F960E94200B87E0FE013F96DE011896D8
:102EC00001900D928A95E1F7CE0108960E94EB15CC
:102ED00081110CC087E0FE013896DE011196019049
:102EE0000D928A95E1F74C8541110BC017E0809156
:102EF0005E0290912502891332C06B96E3E00C9438
:102F00000E1E2091250230E0C90101968770992795
:102F100050915E0258171906A1F04D8397E0929FD9
:102F2000D001939FB00D1124AA5DBD4FFE013196D3
:102F300001900D929A95E1F7809325020E949007E7
:102F4000D5CF0E94B50B1092250210925E0287E049
:102F5000E2EAF1E0DF011D928A95E9F7C7CF819F90
:102F6000C00111248A5D9D4F0E94EB15882329F230
:102F700080915E0290E001968770992780935E02AF
:102F8000B6CFA6E0B0E0E7ECF7E10C94F11D0E94AB
:102F9000FE038C018091D5019091D6018017910795
:102FA00081F019821A820E94FE03682F49815A819A
:102FB000792F80E090E00E9435171093D60100939E
:102FC000D5012696E4E00C940D1E1F920F920FB6C9
:102FD0000F9211242F933F934F935F936F937F939F
:102FE0008F939F93AF93BF93CF93DF93EF93FF9311
:102FF000D091E900DF708091EC00C82FC17080FD96
:10300000C0E81092E9008091F000877F8093F00083
:1030100078940E94E60B1092E9008091F00088609D
:103020008093F000CD2BCF70C093E900FF91EF911A
:10303000DF91CF91BF91AF919F918F917F916F91D0
:103040005F914F913F912F910F900FBE0F901F9066
:1030500018951F920F920FB60F9211242F933F9342
:103060004F935F936F937F938F939F93AF93BF9390
:10307000EF93FF938091E10082FF09C08091E2000D
:1030800082FF05C08091E1008B7F8093E1008091F9
:10309000DA0080FF24C08091D80080FF20C080919A
:1030A000DA008E7F8093DA008091D90080FFA9C07A
:1030B00080E189BD82E189BD09B400FEFDCF81E0D8
:1030C00080931B0280911002811109C00E94A80206
:1030D0000E9449038091E20084608093E200809125
:1030E000E10080FF1AC08091E20080FF16C080914D
:1030F000E2008E7F8093E2008091E2008061809305
:10310000E2008091D80080628093D80019BC85E0ED
:1031100080931B0283E080930D018091E10084FF86
:103120002FC08091E20084FF2BC080E189BD82E145
:1031300089BD09B400FEFDCF8091D8008F7D8093BA
:10314000D8008091E1008F7E8093E1008091E200C1
:103150008F7E8093E2008091E20081608093E200A4
:1031600080911C02882309F452C084E080931B02E2
:1031700080911B02843009F452C081E080930D01DC
:103180008091E10083FF2CC08091E20083FF28C082
:103190008091E100877F8093E10082E080931B02B1
:1031A00010921C028091E1008E7F8093E10080915B
:1031B000E2008E7F8093E2008091E2008061809344
:1031C000E20042E060E080E00E9417038091F0009E
:1031D00088608093F00081E080930D0180930C0162
:1031E000FF91EF91BF91AF919F918F917F916F91DF
:1031F0005F914F913F912F910F900FBE0F901F90B5
:10320000189519BC10921B021092100268CF809181
:10321000E30087FD02C081E0A9CF83E0A7CF82E071
:10322000ADCF78941F921FB61F9211248F939F9356
:10323000AF93BF9380910C0290910D02A0910E026A
:10324000B0910F020196A11DB11D80930C029093C5
:103250000D02A0930E02B0930F02BF91AF919F9108
:103260008F911F901FBE1F9018951F921FB61F921F
:1032700011248F939F93AF93BF9380910B02811181
:1032800013C080910C0290910D02A0910E02B0919A
:103290000F024196A11DB11D80930C0290930D0267
:1032A000A0930E02B0930F02BF91AF919F918F91A7
:1032B0001F901FBE1F901895CDB7DEB7A4970FB60D
:1032C000F894DEBF0FBECDBF85B7806885BF85B7D8
:1032D000806885BF84B7877F84BF0FB6F894A895B0
:1032E00080916000886180936000109260000FBE42
:1032F00080E890E00FB6F8948093610090936100AD
:103300000FBE81E080930D018DE395E09093650100
:10331000809364010E94A8020E9449038091E20008
:1033200084608093E200789480911B028823A1F04E
:103330001091E9001F709091EC00892F817090FD31
:1033400080E8182B1092E9008091E80083FD0E942C
:10335000E60B1F701093E90082E084BD93E095BDF9
:103360009AEF97BD80936E000E94560A811102C0A9
:103370000E94460A80E30E943F0581E30E943F05C8
:1033800082E30E943F0587E60E943F0508E411E0C2
:10339000D8018D918D018F3F11F00E943F05B1E062
:1033A00004351B07A9F788E0EEEEF1E0DF01282FD6
:1033B0001D922A95E9F7EAEDF1E0DF011D928A9569
:1033C000E9F790E080E00E94361E853E9E4F21F492
:1033D0000E94560A811163C065EE7EEF90E080E0A6
:1033E0000E946A1E60E082E090E00E944C1E81E034
:1033F0008093E20161E083E090E00E944C1E60E077
:1034000074E184E090E00E946A1E60E086E090E053
:103410000E944C1E60E087E090E00E944C1E40E05D
:1034200050E0BA0188E090E00E945E1E60E083E216
:1034300090E00E944C1E60E08CE090E00E944C1EE8
:1034400060E08DE090E00E944C1E19821A821B827F
:103450001C821D821E821F82188648E050E067E1B0
:1034600070E0CE0101960E943C1E40E050E0BA019F
:103470008FE190E00E945E1E80E00E94BD090E94E4
:10348000460A40E050E0BA018FE090E00E945E1EE4
:1034900040E050E0BA0183E190E00E945E1E82E0CD
:1034A00090E00E942E1E8093E40184E090E00E9450
:1034B000361E90930A02809309020E94750FEFEF67
:1034C000F6E721E0E150F0402040E1F700C00000C5
:1034D0000E94750F8091EE0180FF08C06FEF7FEFB3
:1034E00090E080E00E946A1E0E94990983E090E0CB
:1034F0000E942E1E0E94570880E091E090930602E1
:1035000080930502FDEE6F2EF1E07F2E442443945C
:103510002224239480911B0210E4853009F493C087
:103520000E94750F75EEA72E71E0B72EEEEE8E2E6F
:10353000E1E09E2ED401F501219131918D919D9173
:103540006E167F0609F489C028173907A9F3512C94
:10355000F401019111914F01D501CD90DD905D01F4
:10356000C016D10659F1C026D126312CEE24E394A1
:10357000F12CC6018E219F21892BB1F039825A820C
:103580000E94FE039C838B832D8291E098012E2163
:103590003F21232B09F490E09E8349815A816B815E
:1035A0007C818D810E9435173394EE0CFF1CBCE0AA
:1035B0003B12DFCFF5013297118300835394E4E08F
:1035C0005E12C6CF8FB7F89440910C0250910D0255
:1035D00060910E0270910F028FBF45C080911B0257
:1035E000843019F110920B0248E150E00FB6F894C4
:1035F000A895409360000FBE1093600083B7817F51
:10360000846083BF83B7816083BF7894889583B7D4
:103610008E7F83BF0FB6F894A89580916000886173
:1036200080936000109260000FBE0E94750FEEEE56
:10363000F1E081919191892B09F074C286EF91E0BC
:103640008E179F07B1F780911B02853009F4C6CF12
:103650000E94B50B0E94BA0463CF2817390709F0FE
:1036600076CF0E94C11786E0EDEFF1E0DE01119602
:1036700001900D928A95E1F7B090FE010091FF0153
:10368000D0900002C0900102109102021092FF013E
:10369000109200021092010210920202802F8D29D6
:1036A00009F447C0E090FB01F090FC010E94FE038A
:1036B0009C012E193F099091F601992309F45DC2EE
:1036C00025313105B0F19F3F19F09F5F9093F601CE
:1036D000002359F00E940F059FEF10160CF491E0A3
:1036E000899F802D11248093FF01DD2059F00E94D5
:1036F0000F0591E01D140CF09FEF899F802D112480
:10370000809300028091FF01882399F0F0900002DD
:10371000FF2079F00E942F05882309F4C2C080930E
:10372000FF018F2D0E942F05882309F4BDC08093CF
:103730000002812F8C2909F447C0E090F901F09034
:10374000FA010E94FE039C012E193F099091F70196
:10375000992309F40DC221353105B0F19F3F19F0CD
:103760009F5F9093F701CC2059F00E94ED049FEFEA
:103770001C140CF491E0899F802D11248093010288
:10378000112359F00E94ED0491E011160CF09FEF07
:10379000899F802D11248093020280910102882349
:1037A00099F0F0900202FF2079F00E942F05882303
:1037B00009F47DC0809301028F2D0E942F0588237C
:1037C00009F478C0809302028091FE018B1119C028
:1037D0008091FF01882311F0081313C0209100028B
:1037E000222311F0D2120DC090910202992311F000
:1037F000191307C030910102311103C0822B892BAC
:1038000011F00E94C704BA820B83DC82CD821E8332
:1038100086E0FE013196ADEFB1E001900D928A9500
:10382000E1F70E94BA049091ED01891769F0809345
:10383000ED018FB7F89440910C0250910D02609108
:103840000E0270910F028FBF80911B02843009F02D
:1038500061CE83E08093E9008091E80082FF5ACE38
:103860008091E80090E085FF0BC00E94C70240E213
:10387000E42EF12C8E010F5F1F4F882339F191E068
:103880008091E8008B778093E800992309F442CE79
:10389000E981E150E331A8F5F0E0E253F14E0C94F8
:1038A000D61D4092FF013DCF4092000242CF409290
:1038B000010282CF4092020287CF8091F100D801AD
:1038C0008D938D01B1E0EB1AF108C9F28091E80007
:1038D00085FDF3CF8091E8008B778093E8000E940C
:1038E000C702882399F3CBCF1A828CE08B832CC03C
:1038F0008A81833091F140F4813069F0823009F49B
:103900002EC18FEF898320C08430D9F71B821C829F
:103910001D821E8219C08FB7F89420910C0230913D
:103920000D0240910E0250910F0229A33AA34BA31E
:103930005CA38FBF69A17AA18BA19CA10E94DC1D11
:103940006B837C838D839E8340E250E0BE016F5F7A
:103950007F4F82E00E943209DDCD2B81822F90E0E3
:10396000FE013196225F8430910570F7DC01AA0FC9
:10397000BB1FA251BE4F3C9111964C91438334839F
:10398000019632962813EFCFDFCF8A81823019F06B
:103990008530D1F2B6CF8B819C81AD81BE8189A368
:1039A0009AA3ABA3BCA3BC01CD010E94DC1D87E29E
:1039B00090E00E944C1EC8CF4C816B818A810E948E
:1039C000820A9827892798279E838D83BDCF2D81D2
:1039D0003E813227232732274C816B818A810E94C6
:1039E000E609B2CF0E940D0AAFCF90E19A83ACCF27
:1039F00082E08A8388E57ACF0A811B81102701271C
:103A00001027DE0111966D01EC80FD01EE0DF11D18
:103A10007F01C80188559E4FEC14FD0409F494CF32
:103A20000835F2E01F0758F40E942E1ED6011496A6
:103A30008C930F5F1F4FFFEFCF1ADF0AEACFF6011B
:103A40001482F7CF0A811B811027012710279E01BE
:103A50002F5F3F4F6901EC80E00EF12EF11CC80191
:103A600088559E4FE016F10609F46ECF083532E016
:103A7000130728F4D60114966C910E944C1EBFEFD8
:103A8000CB1ADB0A0F5F1F4FEACF0E94D6095CCF2B
:103A900084E08A8359CF0A811B81102701271027D0
:103AA000FE0131966F01EC809F012E0D311D7901D1
:103AB000C8018896EC14FD0409F446CF003831E0C3
:103AC000130758F40E942E1ED60114968C930F5F94
:103AD0001F4FFFEFCF1ADF0AEBCFF6011482F7CFAB
:103AE0000A811B811027012710279E012F5F3F4F5E
:103AF0006901EC80E00EF12EF11CC8018896E016F9
:103B0000F10609F421CF003831E0130728F4D6017B
:103B100014966C910E944C1EBFEFCB1ADB0A0F5F0C
:103B20001F4FEBCF80911A02882309F48CCD90E1CE
:103B300099BDA2E1A9BD09B400FEFDCF8091D800D6
:103B40008F7D8093D8008091E00082608093E000B8
:103B50008091E00081FDFCCF0E94B50B74CD87E21F
:103B600090E00E942E1E1B821C821D828E83ECCE52
:103B70002B30310508F0F4CD27CE2B30310508F07D
:103B8000A4CDD7CD97FB072E16F4009407D077FD70
:103B900009D00E941A1E07FC05D03EF4909581952D
:103BA0009F4F0895709561957F4F0895EE0FFF1F09
:103BB0000590F491E02D09946927962769277827C5
:103BC0008727782708952F923F924F925F926F92A6
:103BD0007F928F929F92AF92BF92CF92DF92EF929D
:103BE000FF920F931F93CF93DF93CDB7DEB7CA1B1E
:103BF000DB0B0FB6F894DEBF0FBECDBF09942A8849
:103C0000398848885F846E847D848C849B84AA84F0
:103C1000B984C884DF80EE80FD800C811B81AA817D
:103C2000B981CE0FD11D0FB6F894DEBF0FBECDBF48
:103C3000ED010895AA1BBB1B51E107C0AA1FBB1FC2
:103C4000A617B70710F0A61BB70B881F991F5A9528
:103C5000A9F780959095BC01CD010895F999FECF03
:103C600092BD81BDF89A992780B50895A8E1B0E08A
:103C700042E050E00C94721EDC01A40FB51F4150CD
:103C8000504048F0CB01840F951F2E910E944D1E8D
:103C900041505040D0F70895262FF999FECF92BD9C
:103CA00081BDF89A019700B4021639F01FBA20BD01
:103CB0000FB6F894FA9AF99A0FBE08950396272F33
:103CC0000E944D1E0E944C1E252F0E944D1E242F27
:103CD0000C944D1E0196272F0E944D1E0C944C1ED5
:103CE000DC01CB01FC01F999FECF06C0F2BDE1BDBC
:103CF000F89A319600B40D9241505040B8F70895AB
:103D0000FB01DC0104C08D910190801921F4415028
:103D10005040C8F7881B990B0895F894FFCFC80C42
:103D2000F00C430DF00C430D230D550D430D510EBA
:103D30005E0EBA11BE11AF11B611C211C611CA1171
:103D4000571357138F138F131B143514B613B61351
:103D50003A14A714B614B61411127C121912E311F6
:103D6000E7111D12EB1121122D12F7117512FB1123
:103D70003112FF1135125D12031239126412091249
:103D80003F124712EF112512F31129120D1243129F
:103D900053126D127312DD1115128312741C781CEC
:103DA000C51CDC1CE71CF21C811C811C811C811CB5
:103DB000811CF51CF81CFC1C221D451D481D4B1DBB
:023DC000701D74
:103DC2000A0482097B0974096D0900000100E200FE
:103DD200E900EA00B500B600B700CD008301CC00CF
:103DE2008A01920194012102230224022502260261
:103DF20027022A02B300B4006F0070009F01CB01BA
:103E02009F02A00230313267F0F1F4F5F6F7663620
:103E1200353497964422B684016201AC000A042329
:043E22000443040051
:00000001FF
