:100000000C9450020C9488020C9488020C94880280
:100010000C9488020C9488020C9488020C94880238
:100020000C9488020C9488020C9405230C94D82319
:100030000C94891D0C9488020C9488020C948802FC
:100040000C9488020C9488020C9488020C94880208
:100050000C9488020C94121E0C9488020C94880252
:100060000C9488020C9488020C9488020C948802E8
:100070000C9488020C9488020C9488020C948802D8
:100080000C9488020C9488020C9488020C948802C8
:100090000C9488020C9488020C9488020C948802B8
:1000A0000C9488020C9488020C9488022B00140093
:1000B0001A000800150017001C0018000C001200A0
:1000C00013002A00E00004001600070009000A00DF
:1000D0000B000D000E000F0033003400E1001D0086
:1000E0001B00060019000500110010003600370043
:1000F0003800E5002900E000E300E200777C2C00F6
:100100002800787CE600E700E400290001001E00DA
:100110001F002000210022002300240025002600CB
:1001200027002A000100000000000000000000007D
:100130005000510052004F0000000000010000007C
:1001400000000000000000000000000000000000AF
:100150000000000001000100010001000100010099
:1001600001000100010001000100010001001E0268
:100170001F0220022102220223022402250226025B
:1001800027022A000100000000000000000000001B
:100190002D002E002F023002310235000100000038
:1001A00000000000000000002D022E022F00300091
:1001B00031003502010001000100010001000100D1
:1001C0000100010001000100010001000100000028
:1001D000000000000000000000000000000000001F
:1001E000000000000100000000000000000000000E
:1001F00000000000000000000000000001000000FE
:1002000000000000000000000000000000000000EE
:1002100000000000010001000100010001000100D8
:1002200001000100010001000100010000000000C8
:10023000000000002A2B2800000000000000000041
:100240000000000000000029000000002C1E3420E7
:10025000212224342627252E362D3738271E1F200D
:100260002122232425263333362E37381F04050652
:100270000708090A0B0C0D0E0F1011121314151696
:100280001718191A1B1C1D2F3130232D3504050694
:100290000708090A0B0C0D0E0F1011121314151676
:1002A0001718191A1B1C1D2F3130354C0000000087
:1002B000000000000000000000000000000000003E
:1002C000000000000000000000000000000000002E
:1002D0007E0F00D4FFFFFFC7000000781E0343001D
:1002E0006F0072006E0065006C006900750073009D
:1002F00020007200650076003100000014035900F0
:1003000075007300680061006B006F0062006F0091
:1003100000000403090409025B00030100A0FA09BC
:100320000400000103010100092111010001224420
:100330000007058103080001090401000203000011
:10034000000921110100012222000705820320007B
:100350000107050303200001090402000103000056
:100360000009211101000122B600070584032000C5
:1003700001120100020000000865320500000101C1
:100380000200010660FF0961A1010962150026FF54
:10039000009520750881020963150026FF0095204D
:1003A00075089102C005010902A10185020901A198
:1003B0000005091901290815002501950875018115
:1003C000020501093009311581257F9502750881E3
:1003D0000609381581257F950175088106050C0AE7
:1003E00038021581257F950175088106C0C0050179
:1003F0000980A101850319012AB700150126B7005C
:10040000950175108100C0050C0901A10185041931
:10041000012AA002150126A002950175108100C0D5
:1004200005010906A1018506050719E029E7150060
:1004300025019508750181020507190029EF1500AE
:10044000250195F075018102050819012905950519
:1004500075019102950175039101C005010906A17D
:1004600001050719E029E7150025019508750181A7
:10047000029501750881010507190029FF1500265D
:10048000FF0095067508810005081901290515006A
:100490002501950575019102950175039101C00033
:1004A00011241FBECFEFDAE0DEBFCDBF04B603FEDE
:1004B00018C08091B3029091B402A091B502B0919E
:1004C000B6028730904BA740B04B59F41092B3025C
:1004D0001092B4021092B5021092B602E0E0F8E376
:1004E000099511E0A0E0B1E0EEE4FDE402C0059062
:1004F0000D92A83AB107D9F722E0A8EAB1E001C00D
:100500001D92A33BB207E1F70E9409120C945326F7
:100510000C9400008430B8F46430A8F44C3098F4A3
:10052000E42FF0E09CE0699FE00DF11D112490E3C1
:10053000899FE00DF11D1124EE0FFF1FE455FF4FC1
:1005400085919491089581E090E0089581E0089567
:100550000E94A60208950E94A602089581E00895CF
:100560000E94A60208950E94A60208950E94B30266
:100570000895089508950E94B90208950895089570
:10058000A6E0B0E0E6ECF2E00C94AF2549835A8394
:100590009E833091AF0189819A8131111AC03E81C9
:1005A000332399F0222389F00E947B08182F682FAB
:1005B00089819A810E94570869817A81812F0E94DE
:1005C000A50F2696E3E00C94CB250E946908182F0E
:1005D000F3CF0E947B0869817A81F1CFFC01262F3D
:1005E0004081518162817381848195810E94C00222
:1005F0000895CF93DF93D82FC92F61E00E94EE02B8
:100600006D2F7C2F0E94A802882369F061E08D2F56
:100610009C2F0E94EE026D2F7C2F0E94AB028170F6
:10062000DF91CF91089580E0FACF0F931F93CF937E
:10063000DF93D82FC92F60E00E94EE028C016D2F4E
:100640007C2F0E94BA026D2F7C2FC8010E94BB0232
:10065000DF91CF911F910F91089591E001C0990F03
:100660008A95EAF7892F0E949D070895CF93C82F96
:1006700081E00C2E01C0880F0A94EAF70E94F10C69
:100680008C2F0E942D03CF91089581E008950E9440
:10069000450308950E9445030895CF93C82F0E94F3
:1006A0004F078C2F0E9447038C2F0E944A032FEF85
:1006B00084E39CE0215080409040E1F700C00000BE
:1006C000CF91089581E00E944D030E94361E089547
:1006D00080E00E944D030E945A1E08950F931F93BD
:1006E000CF93DF938C0161E00E94EE02EC01B80130
:1006F0000E94B002811106C080E0DF91CF911F916E
:100700000F910895B801CE010E94B6028823A1F38B
:10071000B801CE010E94B719882371F3B801CE0148
:100720000E94BA18882341F3B801CE010E94DD135C
:10073000882311F3B801CE010E94B3138823E1F29C
:10074000B801CE010E94FD188823B1F2B801CE0194
:100750000E94A910882381F2F8018581882381F005
:10076000CA35FCE7DF0711F178F4C130ECE7DE07AA
:10077000D1F0C330FCE7DF07A1F0C115DC4771F011
:10078000C8010E94AE02B9CFCB35ECE7DE0789F095
:10079000CC35DC47A9F70E94C20CF2CF0E9462035D
:1007A000ABCF0E94D40C0E946803A6CF0E94CC0C51
:1007B000E7CF0E94D00CE4CF0E94BE020E945B1DD6
:1007C0000E94000408950E9404040E94BF020E9437
:1007D000601D089581E008950895CF93DF93D82F89
:1007E0000E94EA03C82F882319F08D2F0E94EC0382
:1007F0008C2FDF91CF91089508950E94ED03089505
:1008000080E00E94FD0308950E94FF1A0E94FD03EC
:100810000895CF930E94FF1AC82F8091AA018C17C8
:1008200079F0C093AA010E94F51D6093AB0170930B
:10083000AC018093AD019093AE018C2F0E94FD031B
:10084000CF910895ADE0B0E0E8E2F4E00C94B0257B
:10085000488759876A877B878C879D8791110E947B
:10086000D20B1F8286E0FE013896DE0111960190C0
:100870000D928A95E1F78D8181110DC029813A8110
:100880004B815C816D817E818F810E94190B2D9639
:10089000E2E00C94CC25CE0101960E94F902811170
:1008A000EDCFF5CFFC018481813021F480819181ED
:1008B0000E94A4080895662329F00E943E150E9414
:1008C000111608950E949815FACFCF93C82F882348
:1008D00099F08CEF8C0F813A88F48C2F0E94A31B27
:1008E000882329F08C2F0E944A1C0E94660C8C2FB2
:1008F0000E94301C0E94660CCF91089580E28C0FFC
:10090000883048F4C77081E001C0880FCA95EAF7C3
:100910000E94B30BEFCF8BE58C0F833038F42C2F74
:100920002452330BC9010E94351BE6CFE8E5EC0FDA
:10093000EB3150F4F0E0EE0FFF1FE35EFE4F8081DD
:1009400091810E945B1BD8CF83E38C0F8331A0F68B
:1009500061E08C2F0E945B04CFCF882381F19CEF54
:10096000980F913A28F40E944A1C0E94660C089540
:1009700090E2980F983050F4877091E001C0990F81
:100980008A95EAF7892F0E94B90BEFCF9BE5980F64
:10099000933028F490E080E00E94351B089598E59C
:1009A000980F9B3128F490E080E00E945B1B089533
:1009B00093E3980F933118F460E00E945B0408956C
:1009C0001F93CF93DF93182FEB010E9465042097AC
:1009D00039F4812F0E94AD04DF91CF911F910895CA
:1009E0008FE99FE00197F1F700C000002197EFCF5A
:1009F00070E060E0893311F460E570E00E94E0048B
:100A00000895882321F00E94B30B0E94660C08957C
:100A1000882321F00E94B90B0E94660C0895B0E073
:100A2000A0E0E5E1F5E00C94A8256C01D62FC72FD6
:100A3000FC011581068102950F700E94A90BE82E1A
:100A40008823F9F0E12E1123E1F08C2F807F803490
:100A500061F080E28D0F883000F18C2F807E803233
:100A600021F4D230D0F00023C1F08091910282FFB6
:100A700014C082E00E94960C0E94A90B91E0E82E1F
:100A8000E9268C2F82958F70A82EB12C8C30B0F572
:100A9000F501EB5AF94D0C949325E12CF2CF0C2F74
:100AA0000F70C07F11F00295007F112399F0002391
:100AB00059F080E28D0F883010F0D11107C0802FDF
:100AC0000E94B30B0E94660C8D2F4AC0802F0E949B
:100AD000C40BF8CF8D2F0E94AD04002379F080E283
:100AE0008D0F883010F0D11104C0802F0E94B90BF7
:100AF00003C0802F0E94CA0B0E94660C88E0A81ACF
:100B0000B10894E0A916B10408F063C10E94FF1A6D
:100B10000E94FD03CDB7DEB7EAE00C94C425FC2F9C
:100B2000FF70FF2EC07FC03219F0F29480EFF822E0
:100B3000DD2341F0D130C9F1112309F443C0002372
:100B4000E9F0C2CF8091910282FD14C0112359F0C7
:100B5000FF2029F08F2D0E94B30B0E94660C80E0CD
:100B60000E946504CBCF80E00E94AD04FF2031F2EB
:100B70008F2DBCCF112369F0011104C08F2D0E946D
:100B80000105BCCF013009F0B9CF8F2D0E94E90BD0
:100B9000B5CF0111B3CF8F2D0E9408058F2D0E9474
:100BA000F50B8F2D0E94D90BA9CF112321F0063010
:100BB00008F0A4CFE3CF053008F0A0CF8F2D0E941E
:100BC00008059CCF0023D1F3D93349F42FEF87EEEA
:100BD00093E0215080409040E1F700C000008D2F4D
:100BE0000E94AD048BCF8C2F86958695837069F01B
:100BF000813009F083CF8D2F9C2F9370111102C08B
:100C000080E090E00E945B1B79CF8D2F9C2F93702A
:100C1000111102C080E090E00E94351B6FCF612F60
:100C20008D2F0E945B046ACF8C2F837081F5111188
:100C300065CF4D2F429546954770440F440F8D2F39
:100C40008F70042E01C0880F0A94EAF72D2F2071AF
:100C5000D4FF07C02FE030E001C0220F4A95EAF729
:100C60002095C695C695C370822BC23051F0C33013
:100C700059F0C13019F00E94A60740CF0E94A0078A
:100C80003DCF0E94AC073ACF0E949D0737CF869593
:100C9000112311F08C2F8170882309F42FCF4D2F51
:100CA000429546954770440F440F8D2F8F70042E48
:100CB00001C0880F0A94EAF72D2F2071D4FF07C0D6
:100CC0002FE030E001C0220F4A95EAF72095C69543
:100CD000C695C370822BC23051F0C33059F0C13079
:100CE00019F00E94F5070ACF0E94EF0707CF0E9474
:100CF000FB0704CF0E94B80701CFCF70112329F062
:100D00008C2F0E94CA078D2F3ACF8D2F0E94080585
:100D10008C2F0E94D607F2CED23F41F160F4D03F33
:100D2000B9F0D13F81F0112309F443C00111CCCEB9
:100D30008C2F8F711FC0D33F01F1D43FA1F7809159
:100D4000910282FD24C08C2F8F71112311F312C0E8
:100D5000112341F0053008F0D1CE8C2F8F710E9405
:100D6000E307CCCE063008F0C9CEF7CF8C2F8F71B9
:100D70001111CFCF0E94CA07C1CE112329F08C2FA9
:100D80008F710E94C107BACE0E94BD07B7CE112352
:100D900031F063E08C2F8F710E94780CAFCE81E030
:100DA0000E94960C023008F4A9CE82E00E94960CB4
:100DB000A5CE002359F0D93309F011CFEFEFF7EEAC
:100DC00023E0E150F0402040E1F707CF8C2F8F71F6
:100DD000A0CFEE2009F49ECE0E94A50B80FD9ACEF6
:100DE000F60115820E949F0B0E94CA07C6010E944D
:100DF00016070E949F0B0E94D6078CCE0F931F935D
:100E0000CF93DF93EC01688179818D810E94B108D5
:100E10008C010E9401080E949C07B801CE010E942B
:100E20000F05DF91CF911F910F910895CF93DF931D
:100E3000EC018C81882399F0CE010E946E03811110
:100E400011C00E94A90B882351F08D81882339F0AD
:100E50008091910282FF03C082E00E94960CDF9194
:100E6000CF910895CE010E94FE06CE010E94150387
:100E7000F6CF90E080E00E94351B90E080E00E9479
:100E80005B1B0E94D20B0E94660C0E942C160E94D3
:100E9000111608950E94641C0E94390708950E944B
:100EA000C10B0E944A070895282F92959F70963093
:100EB00091F060F4925F9F70923030F481E0203FB7
:100EC00081F030F4283E30F080E008959A5FF3CF4F
:100ED000243FD1F7089581E0283EE0F3213FA1F7B8
:100EE000F9CF0895FC018481882339F080819181B4
:100EF0000E94A4080E945407089580E00895A6E087
:100F0000B0E0E5E8F7E00C94B0252696E2E00C941A
:100F1000CC25A7E0B0E0EFE8F7E00C94B0252796E9
:100F2000E2E00C94CC2508950E94930708950E9456
:100F300094078093C301089508950E949707089528
:100F40009091C301892B0E94970708959091C30146
:100F500089230E94970708959091C30189270E94D1
:100F6000970708950E94930708950E94B207089575
:100F70000E94B5078093C201089580E00E94B807DF
:100F8000089591E001C0990F8A95EAF7892F0E9490
:100F9000B807089521E030E001C0220F8A95EAF7F2
:100FA0008091C201822B0E94B807089521E030E0B1
:100FB00001C0220F8A95EAF720958091C201822311
:100FC0000E94B807089521E030E001C0220F8A9501
:100FD000EAF78091C20182270E94B8070895909194
:100FE000C201892B0E94B80708959091C2018923FC
:100FF0000E94B80708959091C20189270E94B807FE
:10100000089508959B01677091E001C0990F6A955A
:10101000EAF763E0369527956A95E1F7F901EE0F57
:10102000FF1FE20FF31FE40FF51F50E040E0682FB1
:1010300070E08191DF0111979B01042E02C036956B
:1010400027950A94E2F7217021952827292328273C
:101050002C934F5F5F4F4330510559F708959C0122
:10106000982F977083E0369527958A95E1F7F901D7
:10107000EE0FFF1FE20FF31FE60FF71F50E040E0F7
:1010800080E0219130E0092E02C0369527950A9420
:10109000E2F721703327042E01C0220F0A94EAF7E9
:1010A000822B4F5F5F4F4330510559F70895282F2A
:1010B000862F943068F42C3058F4622F70E02CE0C6
:1010C000929F600D711D112440EB51E00E940208B7
:1010D0000895292F943068F48C3058F490E060EB38
:1010E00071E03CE0239F800D911D11240E942F0888
:1010F000089580E00895B0E0A0E0E1E8F8E00C9405
:10110000AB257C010091C2018091C301082BC5E091
:10111000D0E010E0DC2EC8010C2E02C0959587951A
:101120000A94E2F780FD09C02197A0F7D12C8D2DFC
:10113000CDB7DEB7E7E00C94C725B7018C2F0E942E
:10114000B10F019789F3F3CFCF93DF93D82FC92F36
:101150000E947B086D2F7C2F0E94B10FDF91CF91F1
:1011600008951F93CF93DF93162FD72F9091AF0140
:10117000992341F0862F972F0E94A408DF91CF91E9
:101180001F910895882381F0862F972F0E947B0856
:10119000C82F682F812F9D2F0E945708612F7D2F08
:1011A0008C2F0E94B10FEACF862F972F0E946908DB
:1011B000C82FF4CFE1E0F0E0DF0102C0AA0FBB1FAF
:1011C0006A95E2F7BD01DF0102C0AA0FBB1F4A9575
:1011D000E2F76A2B01C0EE0F2A95EAF7962F9823C3
:1011E000961302C08E2B0895E0958E230895242F28
:1011F000462F682F8091C2010E94DA080E94B8072A
:1012000008951F93CF93DF93E091C40117E080917D
:10121000C5018E1304C0DF91CF911F910895CE2F89
:10122000D0E01E9FF0011124EA53FE4F208131814E
:10123000428153816481758186810E948907FE0104
:101240003196E770E4CF2091FE013091FF0140918B
:10125000000250910102609102027091030280919C
:1012600004020E9489070895CF93DF9380910402BE
:10127000807F09F04DC080910302882309F448C0A3
:10128000E091C4015091C501C091FF01D091FE01D0
:10129000609100027091010247E05E17C9F18E2F44
:1012A00090E0E49FF0011124EA53FE4F24812223B1
:1012B00091F1489FF001499FF00D1124DF01AA53DD
:1012C000BE4F11962C9111972C1325C02C912D13E4
:1012D00022C015962C91159721111DC012962D91A3
:1012E0003C91261B370B283C3105A8F48091040261
:1012F0008F70806180930402E453FE4F80818F7071
:10130000806180838EEF91E00E9416070E940109A0
:10131000DF91CF910895FC013196E770BECF982FF1
:10132000E091C4014091C50157E0E41302C080E0A0
:1013300008952E2F30E05E9FF0011124EA53FE4FF6
:101340008181681306C08081981303C08581811153
:10135000EFCFF9013196E770E8CFADE0B0E0E3EB15
:10136000F9E00C94A6258C0186E0F801DE011896C0
:1013700001900D928A95E1F7F8018481E5809EEF56
:10138000A92E91E0B92E9091020291111FC08823DD
:10139000D1F0EE20A9F0C8010E947207F82E882330
:1013A00079F087E0F801D50101900D928A95E1F777
:1013B000C5010E9452040E9434090E9423095FC0A3
:1013C000C8010E941607FF24F39459C0C080D18041
:1013D00082809380F09003022091000230910102FC
:1013E000A401421B530BFF2009F4DBC0483C51050C
:1013F00008F0A7C0882309F442C09091FF018091B2
:101400000402282F207F09F05CC0D91216C09091E9
:10141000FE01C91212C0E1104EC08F70806180932E
:1014200004020E9423098EEF91E00E94160780912A
:101430000402F8018683F12C22C0E1103CC06D2D1E
:101440008C2D0E948F096D2D8C2D0E948F09E82E06
:101450008111F1CFC886D986888599850E94A40814
:10146000292F22952F70903478F49F702230A8F0A5
:101470009923B9F0F8019681907F99F4FE2C8F2D75
:101480002D96ECE00C94C2252A5F2F70223068F074
:10149000C8010E941607EF2CF1CF992311F0882381
:1014A00069F3805E883050F3F3CF803F38F3815F7B
:1014B000833020F3EDCF8091040281608093040299
:1014C000BACFD91213C09091FE01C9120FC0E1101A
:1014D0000DC08683C8010E94160787E0F801AEEFB1
:1014E000B1E001900D928A95E1F767CFC8010E94A3
:1014F0007207882309F464CFEE2009F461CF80914C
:101500000402803288F02091FE013091FF013A837D
:1015100029839C828B82909102029D831E828F83FD
:10152000CE0101960E94160787E0F801AEEFB1E008
:1015300001900D928A95E1F70E9434090E942309D7
:1015400042CF90910402292F207FA1F4682D9B8621
:101550008A86A6017B859E2D0E947F078EEF91E0F3
:101560000E94160787E0F50111928A95E9F70E941B
:10157000230961CF882309F482CF8091FF018D1167
:10158000B5CF8091FE01C812B1CFE110AFCF9683E5
:10159000C8010E94160787E0F50111928A95E9F7C4
:1015A0006ECF483C5105B8F5882309F40CCFFE2CCA
:1015B000EE2009F405CF8091FF018D111EC08091AE
:1015C000FE01C8121AC08091040280FD0DC0982F40
:1015D000907F51F08683903F09F47CCF982F907FC5
:1015E000905F8F70892B75CF87E0F801AEEFB1E087
:1015F00001900D928A95E1F742CFC8010E947207CF
:10160000811192CF80910402816080930402C8010D
:101610000E94160734CF682D9B868A86A6017B859B
:101620009E2D0E947F0787E0F50111928A95E9F7C8
:10163000C4CEAEE0B0E0EFE1FBE00C94AF2528872C
:1016400039874A875B876C877D878E87CE010896AE
:101650000E94AD098823B1F06C85662341F028858E
:1016600039854A855B857D858E850E94890717E0CF
:101670008091C4019091C50189133EC02E96E3E08C
:101680000C94CB2587E0FE013896DE01119601907F
:101690000D928A95E1F74C85442349F32091C501C9
:1016A00030E0C9010196877099275091C4015817FD
:1016B0001906A1F04D8397E0929FD001939FB00D42
:1016C0001124AA53BE4FFE01319601900D929A95B6
:1016D000E1F78093C5010E940109C9CF0E944F071D
:1016E0001092C5011092C40187E0EEEFF1E0DF0136
:1016F0001D928A95E9F7BBCF819FC00111248A53BF
:101700009E4F0E94AD09882309F4B8CFE091C4012F
:101710001E9FF0011124EA53FE4F20813181428146
:1017200053816481758186810E9489078091C401FB
:1017300090E00196877099278093C40199CF80919A
:101740002D02869586958695089580912D02877045
:10175000089590912D02977081E009F480E008953A
:1017600080915902089590915902982B90935902B3
:101770000895982F9095809159028923809359025A
:10178000089510925902089590915802982B9093C1
:1017900058020895982F909580915802892380933C
:1017A0005802089510925802089508950E94D50B8A
:1017B000089590912E02292F282331F080958923B6
:1017C00080932E020E94D60B089508950E94E50B87
:1017D000089590912F02292F2823281729F0982B5C
:1017E00090932F020E94E60B089590912F02292FCB
:1017F000282331F08095892380932F020E94E60BE5
:10180000089580912F02882329F010922F0280E002
:101810000E94E60B0895CF93C0915902809158021F
:10182000C82B80912F02882331F0C82B0E94811B86
:1018300081110E94010C8C2FCF910895CF93DF93DB
:10184000C0910201D09103010E940B0C8883C091CA
:101850000201D091030148E050E065E272E0CE0160
:101860000E94EB25892B59F088E0FE01A5E2B2E049
:1018700001900D928A95E1F7CE010E940C1BDF9139
:10188000CF910895CF93DF93C0910001D0910101D2
:101890000E940B0C8983C0910001D091010140E2AC
:1018A00050E065E072E0CE010E94EB25892B59F0F3
:1018B00080E2FE01A5E0B2E001900D928A95E1F789
:1018C000CE010E94171BDF91CF9108950E94201D29
:1018D000813039F48091900287FF03C00E94420C4E
:1018E00008950E941E0C089508950E94740C089596
:1018F0009091910292FF11C098E0899F900111246C
:10190000622B60932D020E94CA0780912D0286955A
:10191000869586950E94750C08950E94CA070895C1
:1019200010922D0280E00E94750C089590912D0276
:101930008095892380932D02282F277069F48917B9
:1019400059F09091910292FF07C0869586958695F1
:101950000E94D6070E94900C08959091910292FBEC
:10196000222720F9281769F080FB92F990939102C1
:1019700080919002909191020E94FC0C82E00E9462
:10198000960C08958091910282FB882780F991E05E
:1019900089270E94AD0C089581E00E94AD0C089546
:1019A00080E00E94AD0C08956FEF7FEF90E080E043
:1019B0000E943D26089590E080E00E940926853E21
:1019C0009E4F19F40E944619089580E0089582E020
:1019D00090E00E940126089583E090E00E94012695
:1019E0000895682F83E090E00E941F26089584E008
:1019F00090E00E9409260895BC0184E090E00E94D6
:101A00003D260895AB01BC018FE090E00E94312695
:101A10000895AB01BC0183E190E00E943126089556
:101A200060E070E0CB010E94090D089560E070E075
:101A3000CB010E94020D0E94100D0895A8E0B0E0B5
:101A4000E4E2FDE00C94B02565EE7EEF90E080E0EE
:101A50000E943D2660E082E090E00E941F2681E027
:101A60008093C3010E94F10C60E074E184E090E097
:101A70000E943D2660E086E090E00E941F2660E024
:101A800087E090E00E941F2640E050E0BA0188E025
:101A900090E00E94312660E083E290E00E941F26E1
:101AA00060E08CE090E00E941F2660E08DE090E016
:101AB0000E941F2619821A821B821C821D821E828E
:101AC0001F82188648E050E067E170E0CE01019681
:101AD0000E940F2640E050E0BA018FE190E00E94A2
:101AE000312680E00E945F190E9499190E94160D0C
:101AF0002896E2E00C94CC250E941E0D0895682FD4
:101B00008EE090E00E941F260895A6E0B0E0EBE88A
:101B1000FDE00C94AE250E94E91D8C0180915A02D3
:101B200090915B028017910781F019821A820E94BE
:101B3000E91D682F49815A81792F80E090E00E9449
:101B4000220410935B0200935A022696E4E00C9460
:101B5000CA250E94F51D6093680270936902809304
:101B60006A0290936B0260936402709365028093A3
:101B70006602909367020895089508950E94BC0D2F
:101B8000089508950E94C10D0E94BE0D0895089504
:101B90000E94C70D089508950E94CB0D0E94C80DA4
:101BA000089587EA90E10E9420120E94BD0D0E94D4
:101BB000C20D089581E008950E94DA0D08950E94F3
:101BC000DA0D08950895089508950E94E20D0E9487
:101BD000E30D0E94E40D08950E94DB0C811102C008
:101BE0000E947C0D0E94E70C80936C020E94F70C0F
:101BF00090939102809390020E9443120E94EC0CF9
:101C00000E949D078091C2010E94B50708950E941D
:101C1000E01D0E94A9190E9472110E94EC0D0E9401
:101C2000FC030E94CC0D0895A6E0B0E0EAE1FEE0DE
:101C30000C94A4250E94DC0D81110AC00E94850D20
:101C40000E944D160E9409042696EEE00C94C025D1
:101C50000E9488112CE5822E22E0922E640110E071
:101C6000F601E190F1906F01812F0E94C3101F5F78
:101C7000143009F44DC0E816F90691F380916C0216
:101C800081FD0E94CC100E94DF0D782EF12C66247D
:101C900063948F2D0E94C3108C01F401A190B19028
:101CA0004F018A159B0569F1A826B126E12CCC24A9
:101CB000C394D12CC5018C219D21892BC1F07720A3
:101CC000B1F0E982FA820E94E91D9C838B836D82C8
:101CD00021E0C8018C219D21892B09F420E0498154
:101CE0005A816B817C818D81922F0E942204E39422
:101CF000CC0CDD1CFCE0EF12DDCFF4013297118338
:101D00000083F39484E0F812C4CF0E94A90D98CF09
:101D1000E816F90609F0B2CF91CF1F93CF93DF9366
:101D20000E94B60FEC018115924508F05FC0C11505
:101D300080E5D80708F0DDC0C03ED10538F5CD3CC0
:101D4000D10508F0AEC0C83AD10580F4C53AD10536
:101D500008F0A4C0C130D10509F443C0CE010497F6
:101D6000813A9105F0F1D0E0C0E03BC0CE01885A45
:101D700091094B97C0F7C85AD0E0CC0FDD1FCD5A60
:101D8000DE4F0990D881C02DD4642BC0C11590E4DA
:101D9000D907F0F4C11520E2D20708F0C4C0C83E4C
:101DA000D105F8F0CE019A9581159F41E0F68D2F6F
:101DB0000E945810182FCE0199270E94B60FC12FEC
:101DC000D0E0DC2FCC27CC27DF71C82BD92B09C062
:101DD000CE0199270E94B60FCC27DF70C82BD92BD4
:101DE000D06ACE01DF91CF911F910895C03882E56E
:101DF000D807B8F5C03692E5D90708F05BC0C03403
:101E000022E5D207C8F4C03282E5D80708F04BC0FB
:101E10002C2F2695269590E2299F900111248C2F36
:101E20008370C1E0D0E002C0CC0FDD1F8A95E2F7DD
:101E3000C22BD32BDD68D5CF2C2F26952695277066
:101E400080E2289F900111248C2F8370C1E0D0E0A4
:101E500002C0CC0FDD1F8A95E2F7C22BD32BDC68C2
:101E6000C0CFC03C92E5D90760F48C2F8F71C03A87
:101E7000D245A8F5C82FD0E0DC2FCC27C46FD06A9C
:101E8000B0CFCE01805C9245809708F06CCFDC2FFC
:101E9000CC27CC27DF71C06FD06AA3CFA497D064C2
:101EA000A0CFD0659ECFCF71D0E0DC2FCC27C16F03
:101EB000D06A97CF2C2F26952695277080E2289FF1
:101EC000900111248C2F8370C1E0D0E002C0CC0FB0
:101ED000DD1F8A95E2F7C22BD32BDA6882CF0E94EE
:101EE0005810C82FD0E0DC2FCC27CC27DF71D06270
:101EF00078CF8C2F8F710E94581055E0D695C795DA
:101F00005A95E1F7CF70D0E0DC2FCC27282F30E0B6
:101F100084FF05C044E0220F331F4A95E1F7C22B2E
:101F2000D32BD0695ECF8D2F8F710E945810182F40
:101F3000CE0199270E94B60FC12FD0E0DC2FCC270D
:101F4000CC27DF71C82BD92BD2CF462F672F743007
:101F500028F44C3018F40E941113089580E090E0AA
:101F600008950E94A50F0E948D0E0895803E910550
:101F7000C1F1C8F48133910509F47DC048F4893278
:101F8000910509F46DC08A32910509F47BC008956A
:101F900089339105D1F082389105B9F085339105E7
:101FA00009F459C00895843E9105C1F138F4823E88
:101FB000910521F1833E910531F10895863E910509
:101FC000C1F1873E9105E1F10895209190022370BF
:101FD00009F065C02091910223FF14C089E290E0CE
:101FE00008952091900220FD43C03091910230FF6E
:101FF00009C024FF4EC090E080E008952091900237
:1020000022FDF7CF08952091900222FD45C0309126
:10201000910230FD44C024FFF5CFEDCF2091910215
:1020200021FFF0CF8091900284FDE5CF87EE90E014
:1020300008952091900223FFE5CF24FDDCCFF6CF59
:102040002091900223FD2EC03091910231FFE3CF09
:1020500084EE90E008952091900225FFD3CFBECF6B
:102060002091900225FD21C02091910223FFCACF2B
:1020700089E390E0C7CF2091900226FFC3CF8AE288
:1020800090E008952091900226FFBCCF81E390E07C
:10209000089583EE90E0089582EE90E0089580EE3A
:1020A00090E0089586EE90E0089585E390E008952D
:1020B0009091900292FF10C041E0282F24712430AB
:1020C00009F040E031E0282F2871283009F030E095
:1020D000431711F02CE0822793FF10C041E0282F16
:1020E0002471243109F040E031E0282F2871283193
:1020F00009F030E0431711F02CE082273091910273
:1021000030FF10C051E0282F2171213009F050E03C
:1021100041E0282F2871283009F040E0541711F0D1
:1021200029E0822731FF10C041E0282F21712131A1
:1021300009F040E031E0282F2871283109F030E023
:10214000431711F029E0822794FD877E089580E0EF
:102150000895CF939C01FB01805E9245C1E080977A
:1021600038F4C581C11104C0822F8F710E943603DB
:102170008C2FCF91089508950E94BB100895089563
:102180000E94BF100895E82FF0E0EE0FFF1FE65603
:10219000FD4F808191810895089580EA8A95F1F735
:1021A000089500C008950E94CD100895F894E82F76
:1021B000E295EF70F0E041A18F7021E030E0B901CD
:1021C00002C0660F771F8A95E2F7CB01962F909594
:1021D000942391A392A1892B82A378940895CF93FD
:1021E000DF9380E30E94D61081E30E94D61082E341
:1021F0000E94D61087E60E94D610C9E8D1E08991E6
:102200008F3F11F00E94D61081E0C539D807B9F789
:10221000DF91CF910895B0E0A0E0E1E1F1E10C940D
:10222000A925EC01B62E062F10E0C8018B569E4F53
:102230007C01FC0120812F3F09F44CC0F894E22F6F
:10224000E295EF70F0E031A12F7081E090E001C0E5
:10225000880F2A95EAF7932F982B91A392A1809546
:10226000892382A378940E94D110E9E8F1E041E04B
:1022700050E0D12CC12C21912F3F89F1A22FA295A2
:10228000AF70B0E090968C9190E02F7002C0959561
:1022900087952A95E2F780FD22C0CA01C82AD92A6B
:1022A000440F551F81E0E539F80729F7F7018081D0
:1022B0008F3F11F00E94D61061E0C114D10409F4DF
:1022C00060E08B2D0E94D310000F111FC00FD11F93
:1022D000D982C882CDB7DEB7E9E00C94C52590E07D
:1022E00080E0DCCF0E94EF1088E0EAE9F2E0DF0155
:1022F000982F1D929A95E9F7E2E9F2E0DF011D922D
:102300008A95E9F784E00E94C4110E94BC100895E8
:10231000A8E0B0E0EEE8F1E10C94AD258E010F5F8E
:102320001F4F88E0F80111928A95E9F7F12C6F2D83
:10233000C8010E940B11F394F4E0FF12F8CF48E0BB
:1023400050E0B80182E992E00E94EB25AC0121E067
:10235000892B09F420E0452B41F088E0F801A2E93F
:10236000B2E001900D928A95E1F744E06AE972E0EB
:1023700082E992E00E94C511182F0E94C010812F9F
:102380002896E5E00C94C9250895B0E0A0E0EBECB8
:10239000F1E10C94AA25D82EE92EF62ED72F042F82
:1023A000C22F222379F081E080936F020E94E91D01
:1023B00090936E0280936D0280E0CDB7DEB7E8E0C7
:1023C0000C94C625C0906F02CC20B1F380916D02B1
:1023D00090916E020E94781D059770F310E0000F37
:1023E000111FA8016D2D7E2D8F2D9D2F0E94EB2595
:1023F000892B41F0A8016D2D7E2D8F2D9D2F0E94E0
:10240000F825CC2D10926F028C2FD7CF0E94140E7E
:1024100008950E94821D0E94F41F0E94D10D0E9407
:102420000E200E94070E0E941B200E9420200E9466
:1024300006120E943A200E94C11E0E94E50DF5CFAF
:102440009093A9018093A80108950E94D40C089547
:1024500080E00E94C310817008950E9488112FEFC0
:1024600086E791E0215080409040E1F700C00000F5
:102470000E9488110E942812882321F00E942512B0
:102480000E94361E08950E942D1208950F931F93E7
:10249000CF93DF93EC0108811981C8010E940126C6
:1024A0000F5F1F4F19830883DF91CF911F910F9109
:1024B000089586E0089550E0440F551F98E1699F04
:1024C000400D511D112490E6899F400D511D11248E
:1024D000CA01889608950F931F93CF93DF93863098
:1024E000C8F46430B8F44C30A8F40E945B128C013C
:1024F0000E940126C82FD0E0DC2FCC27C80101960E
:102500000E9401269E01282BC901DF91CF911F91C6
:102510000F91089590E080E0F8CF0F931F93CF9331
:10252000DF93122F032F863078F4643068F44C3038
:1025300058F40E945B12EC01602F0E941F26612F4D
:10254000CE0101960E941F26DF91CF911F910F911E
:1025500008951F93CF93DF93D0E0C0E011C0412FC7
:102560006C2F8D2F0E948A029C01412F6C2F8D2F82
:102570000E948D121F5F1C3091F7CF5FC43011F0A5
:1025800010E0EDCFDF5FD63041F7DF91CF911F91A3
:102590000895EF92FF920F931F93CF93DF93EC0177
:1025A0008A017C01E60EF71ECE018896CE15DF0566
:1025B00029F4CDB7DEB7E6E00C94C825C03422E09C
:1025C000D20740F40E940126F80180830F5F1F4F5D
:1025D0002196EACFF8011082F9CFB0E0A0E0E3EF56
:1025E000F2E10C94AA258C016A017C01E60EF71E2B
:1025F000EC01CE018896CE15DF0529F4CDB7DEB704
:10260000E8E00C94C625C03422E0D20740F4FE0175
:10261000E01BF10BEC0DFD1D60810E941F26219631
:10262000E8CF863038F4643028F44C3018F40E9437
:102630006B12089580E090E0089580E1089588E9A4
:1026400091E00895EF92FF920F931F93CF93DF9342
:10265000EC018A017C01E60EF71ECE0188599D4FE0
:10266000CE15DF0529F4CDB7DEB7E6E00C94C8251A
:10267000C83921E0D20740F40E940126F801808386
:102680000F5F1F4F2196E9CFF8011082F9CFB0E01C
:10269000A0E0EDE4F3E10C94AA258C016A017C0131
:1026A000E60EF71EEC01CE0188599D4FCE15DF05D1
:1026B00029F4CDB7DEB7E8E00C94C625C83921E08F
:1026C000D20740F4FE01E01BF10BEC0DFD1D608113
:1026D0000E941F262196E7CFCF93DF93C8E6D2E072
:1026E00060E0CE010E941F262196C11584E0D80724
:1026F000B9F7DF91CF910895EF92FF921F93CF9397
:10270000DF9300D0CDB7DEB7182F8031B0F48FEF54
:1027100093E00E940126811110C088E6E82E82E035
:10272000F82E111112C0FA82E98240E0BE016F5FFB
:102730007F4F86E492E10E94DF170F900F90DF91A8
:10274000CF911F91FF90EF900895E11484E0F80677
:10275000A1F3C7010E940126811101C011508FEF22
:10276000E81AF80ADECFCF93DF93EB0186319C475E
:1027700011F50E94B00B9D81992399F08A7A91E01E
:1027800009F490E090937002811109C089E20E94DF
:10279000301C0E94660C80E0DF91CF91089585E3A4
:1027A000F6CF80917002811104C089E20E944A1C18
:1027B000F0CF85E3FBCF81E0EFCFCF93DF93EC0148
:1027C000FB018581882309F4D2C09E013057233252
:1027D000310508F0B2C00E94F70C909391028093EB
:1027E0009002FE01E150F047E232F10520F4EF598A
:1027F000F94D0C9493258091900281608093900212
:1028000093C0809191028860809391028DC08091E5
:1028100090028260F3CF809190028460EFCF80912C
:1028200090028860EBCF809191028160EDCF809122
:1028300091028260E9CF809190028061DFCF809128
:1028400090028062DBCF809190028064D7CF0E949B
:102850004F07809190028068D1CF809190028C6068
:10286000CDCF809191028360CFCF809190028E7FF7
:10287000C5CF80919102877FC7CF809190028D7FD5
:10288000BDCF809190028B7FB9CF80919002877FDE
:10289000B5CF809191028E7FB7CF809191028D7FCD
:1028A000B3CF809190028F7EA9CF809190028F7DCF
:1028B000A5CF809190028F7BA1CF0E944F0780917E
:1028C00090028F779BCF80919002837F97CF8091EA
:1028D00091028C7F99CF8091900282FB992790F989
:1028E00021E0922790FB82F990FB83F987CF8091BA
:1028F0009102982F909591708E7F892B90FB81F992
:1029000083CF90919002892F8F7B96FF806476CF42
:102910000E944F0790919002892F97FB87F980586A
:102920006DCF81E00E947F0D809190029091910285
:102930000E94FC0C0E944F0780E0DF91CF91089528
:1029400080E0F0CF90919002892F8F7E94FF80617C
:1029500055CF90919002892F8E7F90FF81604ECF4E
:1029600090919102892F877F93FF88604DCF81E0FE
:10297000E4CF282F35EB2303C001112497FF04C0B7
:1029800080589109892F089580589F4FFBCF8091DF
:10299000770280FF0DC06091090170E0660F771F1C
:1029A0006038710570F56115710569F1862F08951C
:1029B00081FF07C06091090184E0689FB001112484
:1029C000EFCF6091090182FD0AC0809176028823D1
:1029D000A9F02091080160910901821710F088E0A8
:1029E000ECCF869FC001112433E0880F991F3A95E0
:1029F000E1F7622F70E00E947F25D2CF68E070E09F
:102A0000D5CF8FE7089581E008958091770280FF08
:102A10000CC06091050170E0759567957595679597
:102A20006115710549F1862F089581FF06C06091F7
:102A3000050170E075956795F3CF6091050182FD02
:102A40000BC0909175029923A1F0609104018091CF
:102A50000501961738F0682F70E06038710500F3B3
:102A60008FE70895899FC001112470E00E947F259F
:102A7000F4CF61E070E0D7CF81E008958D3C31F470
:102A80000E94C714819580937B0208958E3C19F4AF
:102A90000E94C714F8CF8F3C31F40E94C71481956F
:102AA00080937A020895803D19F40E94C714F8CFEC
:102AB000893D29F40E94051580937C0208958A3D82
:102AC00021F40E9405158195F7CF8B3D31F40E94CA
:102AD0000515819580937D0208958C3D19F40E941F
:102AE0000515F8CF9FE2980F983070F4815D990B2F
:102AF00021E030E001C0220F8A95EAF78091790247
:102B0000822B8093790208958D3D31F48091770274
:102B100081608093770208958E3D21F48091770241
:102B20008260F7CF8F3DB9F7809177028460F1CF53
:102B300040917A028D3C59F480917B0287FF0DC051
:102B400010927B0241110BC01092760208C08E3C9D
:102B500081F480917B0218169CF3442381F08091CC
:102B60007C0290917D02892B09F05AC01092750267
:102B700008958F3C49F447FFF0CF10927A0280917C
:102B80007B028111ECCFE0CF803D19F41416ACF339
:102B9000E4CF90917C02893D29F41916F4F6109245
:102BA0007C02DBCF8A3D19F497FFD7CFF8CF909105
:102BB0007D028B3D29F497FFD0CF10927D02CDCFBF
:102BC0008C3D19F41916CCF3C8CF9FE2980F9830BA
:102BD00090F4815D990B21E030E0B90102C0660FED
:102BE000771F8A95E2F7CB0180959091790289232E
:102BF00080937902B2CF8D3D31F4809177028E7F40
:102C000080937702AACF8E3D21F4809177028D7F49
:102C1000F7CF8F3D09F0A1CF809177028B7FF0CF66
:102C200008950E94E91D20917A0230917B02232BA6
:102C300021F0809373029093740220917C02309172
:102C40007D02232B21F0809371029093720288E71A
:102C500092E00E94261B089586E0E8E7F2E0DF019B
:102C60001D928A95E9F710927602109275021092E1
:102C700077020895FC01828181110DC08381811149
:102C80000AC08481811107C081E09581911101C042
:102C900080E08170089581E0FCCFA6E0B0E0E3E53C
:102CA000F6E10C94AF2586E0E8E7F2E0DE0111964C
:102CB00001900D928A95E1F710927A0210927B02B0
:102CC00010927C0210927D028B819C81892B89F06D
:102CD00080917302909174020E94781D9C018091F2
:102CE00076028823C9F190910A019217130608F41D
:102CF00040C08D819E81892B91F0809171029091CD
:102D000072020E94781D9C0180917502882309F44B
:102D10006AC0909106019217130608F472C0BE01B2
:102D20006F5F7F4F88E792E00E947E1C811105C093
:102D300088E792E00E943A1681110E94111686E0FF
:102D4000FE013196A8E7B2E001900D928A95E1F775
:102D50002696E3E00C94CB2540910B019AE0499F25
:102D6000A00111244217530720F68F5F809376024B
:102D700002C08F3FD1F71B81112359F00E94C71465
:102D80009FEF11160CF491E0899F802D1124809300
:102D90007A021C81112359F00E94C7149FEF11166B
:102DA0000CF491E0899F802D112480937B02809107
:102DB0007A02882309F49DCF10917B02112309F434
:102DC00098CF0E94B914882351F080937A02812F02
:102DD0000E94B914882329F080937B028ACF81E076
:102DE000F4CF81E0F9CF409107019AE0499FA0011B
:102DF00011244217530708F092CF8F5F809375021A
:102E000002C08F3FD1F71D81112359F00E94051593
:102E10009FEF11160CF491E0899F802D112480936F
:102E20007C021E81112359F00E9405159FEF111697
:102E30000CF491E0899F802D112480937D02809174
:102E40007C02882309F46BCF10917D02112309F4D1
:102E500066CF0E94B914882351F080937C02812FA1
:102E60000E94B914882329F080937D0258CF81E015
:102E7000F4CF81E0F9CFB0E0A0E0E1E4F7E10C9419
:102E8000A925E82FF0E0E45DFD4FB490282F2695AA
:102E90002695269530E0F901E453FD4F04918770A3
:102EA00010E0082E02C0159507950A94E2F701700C
:102EB0001127F901E454FD4FE490F12C082E02C0D3
:102EC000F594E7940A94E2F791E0E922FF24F901EE
:102ED000E455FD4FC491D0E002C0D595C7958A95C1
:102EE000E2F7C170DD27C62ED12C0115110549F579
:102EF000E114F10431F086EE0E946504C6010097EA
:102F000071F5B6018B2D0E94E004C601009779F59A
:102F1000E114F104A1F50115110531F081EE0E94D3
:102F2000AD04C6010097C9F5CD2B31F08CE20E94AB
:102F3000F804C114D104C9F5CDB7DEB7E9E00C94AB
:102F4000C52581EE0E946504C601009789F2EFE96C
:102F5000FFE03197F1F700C000000197F6CFEFE9ED
:102F6000FFE03197F1F700C000000197C8CFEFE90B
:102F7000FFE03197F1F700C000000197C7CF86EE60
:102F80000E94AD04C601009731F2EFE9FFE03197EE
:102F9000F1F700C000000197F6CFEFE9FFE03197AD
:102FA000F1F700C000000197BDCF8FE99FE00197C6
:102FB000F1F700C0000091E0C91AD108BACFB0E023
:102FC000A0E0E5EEF7E10C94A9258C01D62FF72EB1
:102FD000E42E8AE0B82E8D2F9F2DF80109958823C5
:102FE000B9F0813009F05EC08D2F9F2DF801099551
:102FF000C82F813091F48D2F9F2DF80109950E94E3
:10300000F8048E2D90E0009709F044C0C111E3CF81
:10301000CDB7DEB7E9E00C94C525823039F48D2FA9
:103020009F2DF80109950E946504EBCF833039F498
:103030008D2F9F2DF80109950E94AD04E2CF8430B9
:1030400001F78D2F9F2DF8010995C82FD12CC12C88
:103050002C2F2053330BC9012A30310568F0C114DD
:10306000D10479F28FE99FE00197F1F700C00000E9
:1030700091E0C91AD108F3CFBC9C9001BD9C300DE2
:1030800011246C01C20ED31E8D2F9F2DF8010995BE
:10309000C82FDECFEFE9FFE03197F1F700C0000065
:1030A0000197B1CF6E2D0E943B1795CF0F931F93C1
:1030B000CF93DF93C42FD22FFC0185818823C9F0E1
:1030C000409380020E94E91D90937F0280937E02CC
:1030D00080E28C0F883040F4C77081E001C0880F17
:1030E000CA95EAF70E940105DF91CF911F910F91D8
:1030F000089510918002141332C080917E02909145
:103100007F020E94781D883C910548F5C0E2CD0FF2
:103110001D17B9F080E2810F883040F4177081E00C
:1031200001C0880F1A95EAF70E940805C83048F4D4
:1031300081E09D2F977001C0880F9A95EAF70E9451
:103140000105802F0E94F804C83070F6D77081E026
:1031500001C0880FDA95EAF70E940805C5CF80E222
:103160008C0F883008F6C77081E001C0880FCA95BF
:10317000EAF7F2CF0F93FC01CB01E851FC47E730AF
:10318000F10590F5ED57F94D0C94932506E221EEEB
:1031900041EE6AE17CE70E94561880E00F910895A5
:1031A00007E225EE45EE6BE17CE7F5CF06E221EE86
:1031B00040EE68E17CE7EFCF07E225EE44EE69E1FF
:1031C0007CE7E9CF06E221EE42EE6CE17CE7E3CF5B
:1031D00007E225EE46EE6DE17CE7DDCF08E221E077
:1031E00045EE6EE17CE7D7CFFB018581882319F09E
:1031F00010928002D3CF81E0D1CF1F93CF93DF9382
:103200009C01FB0127378CE7380751F0C1E02837D4
:103210003C47D1F4C581CC2369F10E94401905C017
:10322000C581CC23B1F00E943D190E94CA070E94BB
:103230004319D82F0E944019C82F0E943D194D2FC5
:103240006C2F0E94F708C0E08C2FDF91CF911F9167
:1032500008950E943D190E94D6070E944319182F15
:103260000E944019D82F0E943D19412F6D2F0E94B6
:10327000F708EACF0E944019EECF80910E01089521
:1032800080910D01089580910C01089584E290E0F1
:103290000E940126853289F485E290E00E94012691
:1032A000853059F486E290E00E94012691E0813158
:1032B00009F090E0892F8170089580E0FCCFCF93D2
:1032C000C82F6FEF811165E284E290E00E941F2613
:1032D0006FEFC11165E085E290E00E941F266FEF5D
:1032E000C11161E186E290E00E941F26CF9108950E
:1032F0000895A4E0B0E0EFE7F9E10C94B02587E28F
:1033000090E00E940126282F30E050E040E0CA0102
:10331000B9012496E2E00C94CC250895CF93C62FF2
:103320000E948D196C2F87E290E00E941F26CF919A
:10333000089580E00E945F1960E070E0CB010E9478
:103340008E190E94A9120E946C1381E00E945F19DD
:1033500008950E9478190E9479190E948D190E947F
:103360004619811102C00E949919089508959C017F
:10337000FB018581882351F0A90157574038510539
:1033800030F4822F0E947C1380E0089581E008953C
:103390002FEFFC01208308950E94C819089580E052
:1033A0000895AEE0B0E0E7EDF9E10C94AA258D8335
:1033B0009E83162F8D819E810E94CF19811115C089
:1033C000AD81BE81EC91E150E331F0F4F0E0E657DD
:1033D000F94D0C949325ED81FE8111828CE082835E
:1033E000612F8D819E810E94B71E2E96E8E00C947D
:1033F000C625AD81BE8111968C91833091F148F440
:103400008130B9F0823001F18FEFED81FE81808350
:10341000E7CF8430C9F7AD81BE8112961C92129716
:1034200013961C92139714961C92149715961C923F
:10343000D7CF0E94F51D0E949925ED81FE81628300
:10344000738384839583CCCF0E9479190E94992538
:10345000AD81BE8112966D937D938D939C9315974C
:10346000BFCFED81FE810281E02EF12C6F01025F62
:10347000F4E0EF16F10408F0B3CF8E2D0E94C310D4
:10348000D60113969C93139714968C93BFEFEB1A67
:10349000FB0AE2E0CE0ED11C0E11EACFA1CFAD8126
:1034A000BE8111968C91823049F0853009F0ACCF05
:1034B000ED81FE8182810E94B61992CFAD81BE81DD
:1034C00012968D919D910D90BC91A02DBC01CD01C6
:1034D0000E9499250E948E1983CFAD81BE811396DB
:1034E0004C91139712966C91129711968C910E94A1
:1034F0006B12982789279827ED81FE819583848315
:103500006FCFAD81BE8114962D913C9115973227D6
:103510002327322713964C91139712966C9112978A
:1035200011968C910E948D125BCF0E94A91258CFE8
:10353000612F8D819E810E94CC1952CF0E941D1354
:10354000ED81FE8181834CCF0E941F13982789272C
:103550009827AD81BE8112969C938E93119740CF90
:10356000ED81FE81638170E081819281AF014C5FCA
:103570005F4F9827892798270E94221331CFAD816A
:10358000BE8113966C91139770E011968D919C916A
:103590001297AD014C5F5F4F9827892798270E94AB
:1035A00047131ECF0E946C131BCF0E945912C8CF25
:1035B000AD81BE8113966C91139770E011968D9139
:1035C0009C911297AD014C5F5F4F982789279827F0
:1035D0000E94C91205CFED81FE81638170E0818177
:1035E0009281AF014C5F5F4F9827892798270E94EF
:1035F000ED12F6CE90938602809385020895E091B5
:103600008502F0918602309729F00190F081E02D3B
:103610000995089580E00895E0918502F091860271
:10362000309721F00280F381E02D09950895DC01A7
:10363000E0918502F0918602309739F086E08C9314
:103640000480F581E02DCD0109950895DC01E0911C
:103650008502F0918602309739F082E08C930680E3
:10366000F781E02DCD0109950895A3E0B0E0EBE3EB
:10367000FBE10C94B0259C0180918302909184021F
:1036800082179307A1F03093840220938302E09184
:103690008502F0918602309751F083E089833B8365
:1036A0002A830084F185E02DCE01019609952396A9
:1036B000E2E00C94CC25A3E0B0E0E1E6FBE10C9461
:1036C000B0259C018091810290918202821793071C
:1036D000A1F03093820220938102E0918502F09163
:1036E0008602309751F084E089833B832A830084EB
:1036F000F185E02DCE01019609952396E2E00C9428
:10370000CC25CF93DF93C0910201D0910301229683
:103710000E94201D813081F48091900287FF0CC0AF
:10372000C0910001D091010122969EE180E091506C
:1037300028F4DF91CF91089596E0F8CF29912223C4
:10374000B1F38F5FF4CFCF93C82F882321F10E946C
:10375000201D813019F58091900287FF1FC0EC2F4A
:10376000E695E695E695C03FB0F480910001909112
:103770000101E80FF92FF11D228130E0C77081E0CF
:1037800090E002C0880F991FCA95E2F728233923D9
:1037900081E0232B09F480E0CF910895809102010C
:1037A00090910301FC013296089621912C1721F08B
:1037B000E817F907D1F7EFCF81E0EECF9C01FC01CC
:1037C00032968FEF90E04191461751F08F3F19F4F8
:1037D000411101C0892F9F5F9630A9F78F3F09F4EF
:1037E0000895280F311D87FD3A95F90162830895E8
:1037F0009C01FC013296285F3F4F8191861303C0E4
:10380000DF0111971C92E217F307B9F70895E62F2D
:10381000E695E695E695603F68F4E80FF92FF11D0F
:10382000677021E030E001C0220F6A95EAF78281DB
:10383000822B82830895E62FE695E695E695603F14
:1038400070F4E80FF92FF11D677081E090E001C07E
:10385000880F6A95EAF7809592818923828308957B
:10386000CF93C82F0E94201D6C2F813061F480916E
:10387000900287FF08C080910001909101010E9491
:10388000071CCF91089580910201909103010E943D
:10389000DE1BF7CFCF93C82F0E94201D6C2F8130E5
:1038A00061F48091900287FF08C08091000190919F
:1038B00001010E941B1CCF910895809102019091FB
:1038C00003010E94F81BF7CF0E94201D813079F47C
:1038D0008091900287FF0BC0E0910001F0910101FF
:1038E00032968EE1DF011D928A95E9F70895E09105
:1038F0000201F0910301329686E0F4CFDC01FB0176
:1039000011969C9111978181981322C012968C91E7
:103910001297882319F0928189131AC013968C91FB
:103920001397882319F09381891312C015968C91EF
:103930001597882319F0958189130AC014969C91D4
:10394000992321F081E02481291303C080E001C084
:1039500081E08170089508950E94AB1C0895A4E051
:10396000B0E0E5EBFCE10C94B025811113C081E0DF
:103970008093120180910F0190911001A09111018B
:10398000B0911201BC01CD010E94AC1C2496E2E072
:103990000C94CC2582E0ECCFA4E0B0E0E2EDFCE1B9
:1039A0000C94B02583E08093120180910F019091D7
:1039B0001001A0911101B0911201BC01CD010E9432
:1039C000AC1C2496E2E00C94CC250E94AF1C089518
:1039D000A4E0B0E0EEEEFCE10C94B02581E0809331
:1039E000120180910F0190911001A0911101B091ED
:1039F0001201BC01CD010E94AC1C2496E2E00C94A3
:103A0000CC250E94E81C0895A4E0B0E0EAE0FDE1C6
:103A10000C94B02591E0811101C090E090931101C8
:103A200080910F0190911001A0911101B0911201AC
:103A3000BC01CD010E94AC1C2496E2E00C94CC2584
:103A4000809111010895A4E0B0E0E9E2FDE10C9459
:103A5000B0258093100180910F0190911001A091E9
:103A60001101B0911201BC01CD010E94AC1C249641
:103A7000E2E00C94CC25809110010895A4E0B0E020
:103A8000E4E4FDE10C94B02580930F0180910F01D7
:103A900090911001A0911101B0911201BC01CD01D2
:103AA0000E94AC1C2496E2E00C94CC2580910F017E
:103AB0000895089508950E945A1D0895089508953F
:103AC0000E94591D0895CF930E945E1D0E94881187
:103AD0000E945F1DC0E08C2F0E94C310892B31F41F
:103AE000CF5FC430C1F780E0CF91089581E0FCCF73
:103AF000CF93DF93EC010E94E91D8C1B9D0BDF919E
:103B0000CF91089585B7806885BF85B7806885BFE8
:103B100008951F921FB61F9211248F939F93AF9306
:103B2000BF9380918702811113C08091A20290916E
:103B3000A302A091A402B091A5024196A11DB11DBE
:103B40008093A2029093A302A093A402B093A50233
:103B5000BF91AF919F918F911F901FBE1F9018959D
:103B60008091AA02843031F10E94DC031092870216
:103B700088E190E020E40FB6F894A8958093600067
:103B80000FBE2093600083B7817F846083BF83B7BB
:103B9000816083BF7894889583B78E7F83BF0FB68B
:103BA000F894A895809160008861809360001092DD
:103BB00060000FBE08950E944F070E94E30308951E
:103BC00082E084BD93E095BD9AEF97BD80936E002F
:103BD00008952FB7F8948091A2029091A302A0912A
:103BE000A402B091A5022FBF0895A4E0B0E0EBEFCE
:103BF000FDE10C94B0258FB7F8942091A20230918A
:103C0000A3024091A4025091A50229833A834B83D9
:103C10005C838FBF69817A818B819C812496E2E0ED
:103C20000C94CC2578941F921FB61F9211248F9369
:103C30009F93AF93BF938091A2029091A302A09112
:103C4000A402B091A5020196A11DB11D8093A2020C
:103C50009093A302A093A402B093A502BF91AF9149
:103C60009F918F911F901FBE1F90189581E08093A8
:103C7000E00080E28093D8001092C9008FE19EE4BA
:103C80000197F1F700C0000087E090EBDC01809322
:103C9000B3029093B402A093B502B093B60288E148
:103CA0009CE00FB6F894A895809360000FBE9093A7
:103CB0006000FFCF88E19CE00FB6F894A895809350
:103CC00060000FBE90936000FFCF282FCB01BA0198
:103CD0003091AA023430E1F42F702093E9002FEFE5
:103CE0003091E800215035FD06C035ED3A95F1F7E9
:103CF00000002111F5CF2091E80025FF09C050E018
:103D000040E00E94B2208091E8008E778093E80026
:103D10000895BC0143E050E084E00E94651E0895D0
:103D2000BC0146E050E084E00E94651E0895BC019D
:103D300040E250E084E00E94651E0895CF93DF9337
:103D4000D82FC92F0E94201D48E050E06D2F7C2FF6
:103D500081E00E94651E88E0ED2FFC2FA8E8B2E00C
:103D600001900D928A95E1F7DF91CF910895792F17
:103D7000603231F440E250E0682F82E00E94651E1C
:103D80000895A0E2B0E0E7ECFEE10C94B02580914C
:103D9000AA02843009F583E08093E9008091E8006D
:103DA00082FF1AC08091E80090E085FF09C050E0D2
:103DB00040E060E270E0CE0101960E94012191E0B6
:103DC0008091E8008B778093E800992329F060E2E6
:103DD000CE0101960E94D119A096E2E00C94CC2568
:103DE0008091A902811109C00E9489220E94E622C5
:103DF0008091E20084608093E20008951092A9020D
:103E000008950E94E81C81E00E94041D08956091BD
:103E1000A60281E0611101C080E00E94CC1C0895DF
:103E20009091AA0281E0943009F080E06091A602AE
:103E30000E94E51C089542E061EC81E00E940522A9
:103E400042E261EC84E00E94052242E261EC82E001
:103E50000E94052242E260EC83E00E9405229091DC
:103E6000AA0281E0943009F080E06091A6020E94ED
:103E7000AF1C08958091AC02893089F148F48230FA
:103E800009F4A1C0833009F45BC0813041F008958A
:103E90008A3009F488C08B3009F46DC00895809190
:103EA000AB02813A09F04BC08091E800877F809394
:103EB000E8008091AF029091B002892B61F468E034
:103EC00088E892E070E00E9450218091E8008B77B2
:103ED0008093E800089560E090E080E0F3CF809167
:103EE000AB02813261F58091AF029091B0028D7F7B
:103EF000892B29F58091E800877F8093E8008091E5
:103F0000E80082FF18C09091F3008091F2000297C0
:103F100031F48091F100813011F0863021F48091EC
:103F2000F1000E94231D8091E8008B778093E800C8
:103F30000E94392204C08091AA028111E0CF089525
:103F40008091AB02813AD9F78091AF029091B00293
:103F5000892BA9F78091E800877F8093E800809102
:103F6000E80080FFFCCF0E94201D8093F10080912B
:103F7000E8008E77DBCF8091AB02813201F7809130
:103F8000AF029091B002892BD1F68091E800877F33
:103F90008093E8000E9439228091AD020E94041DA6
:103FA0000E944F0708958091AB02813241F68091C3
:103FB000E800877F8093E8000E9439228091AE025A
:103FC0000E943E1D08958091AB02813A09F0B7CF5F
:103FD0008091E800877F8093E8008091E80080FF6F
:103FE000FCCF0E94561DC1CF84B7877F84BF0FB618
:103FF000F894A89580916000886180936000109289
:1040000060000FBE80E890E00FB6F89480936100E6
:10401000909361000FBE0E94011D08950E948922A5
:104020000E94E622E2EEF0E0808184608083789452
:104030000E946425089583E191E00E94FA1A089590
:104040008091AA02853031F48091AA02853019F05E
:104050000E94DB1D08950E94B01D0E94631D8823ED
:1040600099F38091A802882379F30E949C200E94F2
:104070004F07EACF08959A014091B1025091B202E0
:104080000E9443200895AC01CB01D901252F33278D
:1040900023303105D1F070F42130310509F447C0E7
:1040A0002230310569F48BE590E026E133E02D9371
:1040B0003C93089521323105E9F02232310539F17E
:1040C00090E080E030E020E0F2CFCA019927413053
:1040D00059F08230910559F0E2E1F3E0892B81F744
:1040E000849190E09F01E3CFECEFF2E0F9CFECEDAB
:1040F000F2E0F6CF8330910518F7880F991FFC0185
:10410000EE55FE4F2081318189E090E0D0CF8330A1
:104110009105B0F6FC01EE0FFF1FE456FE4F208123
:10412000318187569E4FFC01808190E0C0CF82E1B3
:1041300090E021E733E0BBCF80E189BD82E189BD1A
:1041400009B400FEFDCF8091D8008F7D8093D80008
:104150008091E00082608093E0008091E00081FD2A
:10416000FCCF0895AF92BF92CF92DF92FF920F9350
:104170001F93CF93DF936C01EB018A010E945822B9
:10418000F82E811123C00115110539F0F801808145
:104190009181C81BD90BC80ED91EB12CA12C209718
:1041A000A9F08091E80085FD22C08091E8008E771B
:1041B0008093E80001151105A1F0F801808191813B
:1041C000A80EB91EB182A08285E0F82E8F2DDF9156
:1041D000CF911F910F91FF90DF90CF90BF90AF9044
:1041E00008950E9458228823D1F2F82EEFCFF601CD
:1041F00081916F018093F1002197FFEFAF1ABF0A01
:10420000CECFAF92BF92CF92DF92FF920F931F93C8
:10421000CF93DF936C01EB018A010E945822F82EA4
:10422000811123C00115110539F0F80180819181B8
:10423000C81BD90BC80ED91EB12CA12C2097A9F0F0
:104240008091E80085FD22C08091E8008B77809303
:10425000E80001151105A1F0F80180819181A80EF7
:10426000B91EB182A08285E0F82E8F2DDF91CF910B
:104270001F910F91FF90DF90CF90BF90AF90089566
:104280000E9458228823D1F2F82EEFCF8091F100BE
:10429000F60181936F012197FFEFAF1ABF0ACECFCE
:1042A000FC01CB012091B1023091B20226173707F1
:1042B00090F0009729F42091E8002E772093E800F1
:1042C00040E0009751F4411108C08091E80082FF5E
:1042D00031C080E00895C901F3CF2091AA022223C2
:1042E000A9F12530A9F12091E80023FD2DC02091EE
:1042F000E80022FDEACF2091E80020FFE2CF3091D4
:10430000F3002091F200009719F02830310558F0A1
:1043100041E02830310509F040E02091E8002E7797
:104320002093E800CECF41914093F10001972F5F99
:104330003F4FE9CF8091AA02882341F0853041F0B8
:104340008091E80083FFC1CF81E0089582E0089565
:1043500083E00895FC01CB012091B1023091B202BB
:104360002617370790F0009729F42091E8002E7760
:104370002093E80040E0009751F4411108C080917B
:10438000E80082FF32C080E00895C901F3CF209198
:10439000AA022223B1F12530B1F12091E80023FDDA
:1043A0002EC02091E80022FDEACF2091E80020FFF6
:1043B000E2CF3091F3002091F200009719F02830FD
:1043C000310558F041E02830310509F040E02091F6
:1043D000E8002E772093E800CECF44914093F1007F
:1043E000319601972F5F3F4FE8CF8091AA02882333
:1043F00041F0853041F08091E80083FFC0CF81E03B
:10440000089582E0089583E00895982F973028F06A
:104410008F708093E90081E008959093E900242F44
:10442000762F50E0981731F07091EC002091ED005C
:104430005091F00021FD02C09F5FE8CF3091EB006A
:104440003E7F3093EB003091ED003D7F3093ED00E7
:104450003091EB0031603093EB007093EC002093CF
:10446000ED005093F0002091EE0027FDE5CF80E0B5
:1044700008958091AB0287FF13C08091E80082FF0E
:1044800006C08091E8008B778093E80004C080919B
:10449000AA028111F2CF08958091AA028823D9F34C
:1044A0008091E80080FFF8CF8091E8008E77ECCF14
:1044B0002091E4003091E50095E6A9012091EC00FF
:1044C000822F817020FF06C08091E80080FF06C027
:1044D00080E008952091E80022FD1AC08091AA0290
:1044E000882389F0853089F08091EB0085FD0FC02D
:1044F0002091E4003091E50042175307F9F2915002
:10450000E1F684E0089582E0089583E0089581E073
:1045100008950E94F8220E940023E0EEF0E08081DE
:1045200081608083E8EDF0E080818F77808319BC23
:10453000A7EDB0E08C918E7F8C9380818F7E8083FD
:104540001092A90208950F931F93CF93DF930E94B7
:10455000F8220E940023C8EDD0E088818F778883FD
:1045600088818068888388818F7D888319BC1092B8
:10457000AA021092A6021092A8021092A70200EEC0
:1045800010E0F80180818B7F80838881816088833F
:1045900042E060E080E00E940522E1EEF0E08081F0
:1045A0008E7F8083E2EEF0E0808181608083808175
:1045B00088608083F80180818E7F8083888180611C
:1045C0008883DF91CF911F910F910895E8EDF0E07E
:1045D00080818F7E8083E7EDF0E080818160808341
:1045E00084E082BF81E08093A9020E94A322089503
:1045F000E8EDF0E080818E7F80831092E2000895E4
:104600001092DA001092E10008951F920F920FB6F7
:104610000F9211242F933F934F935F936F937F9348
:104620008F939F93AF93BF93EF93FF938091E1009C
:1046300082FF0BC08091E20082FF07C08091E10001
:104640008B7F8093E1000E9463258091DA0080FFD8
:1046500019C08091D80080FF15C08091DA008E7F4C
:104660008093DA008091D90080FF94C080E189BDF9
:1046700082E189BD09B400FEFDCF81E08093AA02EA
:104680000E94F01E8091E10080FF19C08091E2003D
:1046900080FF15C08091E2008E7F8093E2008091C0
:1046A000E20080618093E2008091D8008062809374
:1046B000D80019BC85E08093AA020E94071F809150
:1046C000E10084FF29C08091E20084FF25C080E1E1
:1046D00089BD82E189BD09B400FEFDCF8091D8007B
:1046E0008F7D8093D8008091E1008F7E8093E100E0
:1046F0008091E2008F7E8093E2008091E2008160F1
:104700008093E2008091A602882309F449C084E0E6
:104710008093AA020E94101F8091E10083FF29C0AC
:104720008091E20083FF25C08091E100877F809324
:10473000E10082E08093AA021092A6028091E1003B
:104740008E7F8093E1008091E2008E7F8093E20073
:104750008091E20080618093E20042E060E080E0CE
:104760000E9405228091F00088608093F0000E94F2
:10477000011FFF91EF91BF91AF919F918F917F9119
:104780006F915F914F913F912F910F900FBE0F90BE
:104790001F90189519BC1092AA020E94FE1E72CF9B
:1047A0008091E30087FD02C081E0B2CF83E0B0CF0B
:1047B0001F920F920FB60F9211242F933F934F9396
:1047C0005F936F937F938F939F93AF93BF93CF9399
:1047D000DF93EF93FF93D091E900DF708091EC00BD
:1047E000C82FC17080FDC0E81092E9008091F000F0
:1047F000877F8093F00078940E941C241092E90037
:104800008091F00088608093F000CD2BCF70C09332
:10481000E900FF91EF91DF91CF91BF91AF919F910F
:104820008F917F916F915F914F913F912F910F9059
:104830000FBE0F901F901895AAE2B0E0E2E2F4E2FA
:104840000C94AF258BEA92E0FC0101962091F100D7
:10485000208322E0833B9207B9F70E943A1F8091A0
:10486000E80083FF1EC18091AB029091AC029A30A8
:1048700008F017C1E92FF0E0E356F94D0C949325A9
:10488000803899F0823809F00CC18091AF028F70A6
:10489000873008F006C18093E9008091EB0085FB2A
:1048A000882780F91092E90006C08091A7029091B4
:1048B000A802911182609091E800977F9093E800A0
:1048C0008093F1001092F1008091E8008E77E5C0AE
:1048D000882309F4D3C0823009F0E3C08091AD028F
:1048E0008111D6C08091AF028F702FEF280F263034
:1048F00008F0D7C08093E9002091EB0020FFC8C0EA
:10490000933031F48091EB0080628093EB00C0C063
:104910009091EB0090619093EB0021E030E001C0BA
:10492000220F8A95EAF72093EA001092EA0080911C
:10493000EB008860EACF8111B4C01091AD021F77FF
:104940008091E3008078812B8093E3008091E800E0
:10495000877F8093E8000E9439228091E80080FFE1
:10496000FCCF8091E30080688093E30082E0111126
:1049700083E08093AA0295C08058823008F091C0ED
:104980008091AD029091AE028C3D23E09207A1F59B
:1049900083E08A838AE289834FB7F894DE01139615
:1049A00020E03EE051E2E32FF0E050935700E49125
:1049B00020FF03C0E295EF703F5FEF708E2F90E015
:1049C000EA30C0F0C7968D939D932F5F243159F73D
:1049D0004FBF8091E800877F8093E8006AE270E033
:1049E000CE0101960E9450218091E8008B77809340
:1049F000E80057C0C096E7CF6091AF027091B00257
:104A0000AE014F5F5F4F0E943B20BC01892B09F430
:104A100048C08091E800877F8093E80089819A816F
:104A20000E94AA21E1CF8038E1F58091E800877FDC
:104A30008093E8008091A6028093F10045CF811118
:104A400030C09091AD02923060F58091E800877F90
:104A50008093E8009093A6020E9439228091A602DA
:104A6000882311F084E005C08091E30087FDFACF30
:104A700081E08093AA020E941B1F13C08091AD02A7
:104A8000813079F481E0933009F080E08093A802CE
:104A90001092E9008091E800877F8093E8000E94EF
:104AA00039228091E80083FF0AC08091E800877F67
:104AB0008093E8008091EB0080628093EB00AA96DF
:104AC000E3E00C94CB250895CF938091AA0288232C
:104AD000A1F0C091E900CF709091EC00892F817016
:104AE00090FD80E8C82B1092E9008091E80083FDDA
:104AF0000E941C24CF70C093E900CF91089597FBCA
:104B0000072E16F4009407D077FD09D00E94D72510
:104B100007FC05D03EF4909581959F4F08957095C0
:104B200061957F4F0895EE0FFF1F0590F491E02DE2
:104B30000994692796276927782787277827089572
:104B40002F923F924F925F926F927F928F929F929D
:104B5000AF92BF92CF92DF92EF92FF920F931F938B
:104B6000CF93DF93CDB7DEB7CA1BDB0B0FB6F8943C
:104B7000DEBF0FBECDBF09942A88398848885F847C
:104B80006E847D848C849B84AA84B984C884DF80ED
:104B9000EE80FD800C811B81AA81B981CE0FD11DD1
:104BA0000FB6F894DEBF0FBECDBFED010895AA1B6E
:104BB000BB1B51E107C0AA1FBB1FA617B70710F008
:104BC000A61BB70B881F991F5A95A9F7809590953A
:104BD000BC01CD010895FB01DC0104C08D91019061
:104BE000801921F441505040C8F7881B990B089553
:104BF000FB01DC0102C001900D9241505040D8F7FA
:104C00000895F999FECF92BD81BDF89A992780B594
:104C10000895A8E1B0E042E050E00C944526DC01A4
:104C2000A40FB51F4150504048F0CB01840F951F91
:104C30002E910E94202641505040D0F70895262FF3
:104C4000F999FECF92BD81BDF89A019700B4021682
:104C500039F01FBA20BD0FB6F894FA9AF99A0FBE30
:104C600008950396272F0E9420260E941F26252F95
:104C70000E942026242F0C9420260196272F0E9484
:104C800020260C941F26DC01CB01FC01F999FECFF4
:104C900006C0F2BDE1BDF89A319600B40D924150C4
:104CA0005040B8F70895F894FFCF4F054F058F0592
:104CB0008F05F3050F067E057E0514067D068C061E
:104CC0008C063514A9143D1407140B1441140F1449
:104CD000451451141B14A2141F14551423145914F1
:104CE000811427145D1488142D1463146B14131489
:104CF000491417144D143114671477149114A01427
:104D000001143914B014D618DC18C618D018E218DB
:104D1000E818EE18EB19F9194F1A6D1A811A951A3D
:104D2000981A981A981A041A041A9E1AA41AB01AF1
:104D3000BF1AD21AD51AD81AEB1A40246824512562
:0E4D4000682451259B24BC24512513251F25D2
:104D4E0030025002280850011E0A1401030201000D
:104D5E000001003B1D9E1E971E901E891EE200E95B
:104D6E0000EA00B500B600B700CD008301CC008A82
:104D7E000192019401210223022402250226022718
:104D8E00022A02B300B4006F0070009F01CB019F96
:104D9E0002A002E200E900EA00B500B600B700CDBD
:104DAE00008301CC008A0192019401210223022486
:104DBE00022502260227022A02B300B4006F0070F9
:104DCE00009F01CB019F02A002F0F1F4F5F6F76609
:104DDE003635349796303132674422B65B048303FE
:084DEE00A50328034103610342
:00000001FF
