:100000000C9437060C9454060C9454060C94173137
:100010000C9454060C9454060C9454060C945406F8
:100020000C9454060C9454060C94441B0C94001B22
:100030000C942E270C9454060C9454060C945406DD
:100040000C9454060C9454060C9454060C945406C8
:100050000C9454060C942C1C0C9454060C945406CA
:100060000C9454060C9454060C9454060C945406A8
:100070000C9454060C9454060C9454060C94540698
:100080000C9454060C9454060C9454060C94540688
:100090000C9454060C9454060C9454060C94540678
:1000A0000C9454060C9454060C94540605010980D3
:1000B000A101850319012AB700150126B700950192
:1000C00075108100C0050C0901A101850419012AE0
:1000D000A002150126A002950175108100C005013E
:1000E0000906A1018506050719E029E71500250184
:1000F0009508750181020507190029EF15002501F2
:1001000095F075018102050819012905950575010C
:100110009102950175039101C00660FF0961A1017B
:100120000962150026FF00952075088102096315F4
:100130000026FF00952075089102C005010906A15F
:1001400001050719E029E7150025019508750181CA
:10015000029501750881010507190029FF15002680
:10016000FF0095067508810005081901290515008D
:100170002501950575019102950175039101C02036
:100180002020206162636465666768696A6B6C6DD4
:100190006E6F707172737475767778797A313233E5
:1001A00034353637383930524542545F2D3D5B5D2A
:1001B0005C233B27602C2E2F202020000000000015
:1001C000000000000000000000000000000000002F
:1001D0000000000000000000000000000000007EA1
:1001E0000F00D4FFFFFFC7000000780000000000F0
:1001F0000000002A2B280000000000000000000082
:1002000000000000000029000000002C1E34202106
:100210002224342627252E362D3738271E1F20214D
:1002200022232425263333362E37381F04050607AC
:1002300008090A0B0C0D0E0F1011121314151617C6
:1002400018191A1B1C1D2F3130232D3504050607E4
:1002500008090A0B0C0D0E0F1011121314151617A6
:1002600018191A1B1C1D2F3130354C00DA0281FF82
:10027000D9F1DB20A4A62EAF00A0C0D30000A1C8F6
:10028000D30000AED580A81F408D1420001E0F059E
:1002900000047F3F1F643214643214783C1E1E1425
:1002A0000A05556E6465660041646A757374005290
:1002B00061697365004C6F776572004465666175AE
:1002C0006C74004C617965723A20003A002C206B06
:1002D000007800808182838485868788898A8B8CD8
:1002E0008D8E8F9091929394A0A1A2A3A4A5A6A76E
:1002F000A8A9AAABACADAEAFB0B1B2B3B4C0C1C2E5
:10030000C3C4C5C6C7C8C9CACBCCCDCECFD0D1D245
:10031000D3D4000001010101010101010102020227
:1003200002020202020203030303030303030404A1
:10033000040404040405050505050606060606076B
:100340000707070708080808090909090A0A0A0B24
:100350000B0B0C0C0C0D0D0D0E0E0E0F0F0F1010C5
:10036000111111121213131414151516161717184C
:100370001819191A1A1B1B1C1D1D1E1E1F202021B7
:100380002222232424252626272829292A2B2C2DFE
:100390002D2E2F30313232333435363738393A3B1F
:1003A0003C3D3E3F404142434445464748494A4C14
:1003B0004D4E4F50515354555658595A5B5D5E5FE0
:1003C000616264656668696B6C6D6F707273757776
:1003D000787A7B7D7E8082838587888A8C8E8F91D8
:1003E000939596989A9C9EA0A2A3A5A7A9ABADAF02
:1003F000B1B3B5B7BABCBEC0C2C4C6C9CBCDCFD1EC
:10040000D4D6D8DBDDDFE2E4E7E9EBEEF0F3F5F894
:10041000FAFDFFFFAA7F55402223252628292A2CF2
:100420002D2F3032333536383A3B3D3E404243453E
:1004300047494A4C4E5051535557595A5C5E606279
:10044000646668696B6D6F71737577797B7D7F8189
:10045000838587898A8C8E90929496989A9C9E9F89
:10046000A1A3A5A7A8AAACAEAFB1B3B4B6B8B9BBA7
:10047000BCBEBFC1C2C3C5C6C7C9CACBCCCDCED016
:10048000D1D2D2D3D4D5D6D7D7D8D9D9DADADBDB03
:10049000DBDCDCDCDCDCDDDDDDDDDCDCDCDCDCDB9A
:1004A000DBDBDADAD9D9D8D7D7D6D5D4D3D2D2D1E3
:1004B000D0CECDCCCBCAC9C7C6C5C3C2C1BFBEBCD6
:1004C000BBB9B8B6B4B3B1AFAEACAAA8A7A5A3A147
:1004D0009F9E9C9A98969492908E8C8A8987858309
:1004E000817F7D7B79777573716F6D6B69686664E9
:1004F00062605E5C5A5957555351504E4C4A4947B9
:10050000454342403E3D3B3A3836353332302F2D5D
:100510002C2A29282625232200AF00AE2B00140008
:100520001A00080015001700E0000400160007007C
:1005300009000A00E1001D001B000600190005006B
:10054000000000000000E300777C2C002A0013006C
:1005500012000C0018001C00340033000F000E00C5
:100560000D000B0029003800370036001000110084
:10057000000000000000E600787C28002B001E0030
:100580001F00200021002200E00000000000000009
:1005900000000000E100000000000000000000007A
:1005A000000000000000E30001002C002A002700EA
:1005B0002600250024002300000000004F00520008
:1005C000510050000000000000000000000000008A
:1005D000000000000000E600010028002B001E02C1
:1005E0001F02200221022202E000000000000000A1
:1005F00000000000E100000000000000000000001A
:10060000000000000000E30001002C002A00270287
:1006100026022502240223023500310030002F007B
:100620002E002D003502310230022F022E022D0243
:10063000000000000000E60001002800007C00002F
:10064000000000000000000020782378257827783B
:100650000000000021782478267828780000000027
:10066000000000000000E30001002C00000000007A
:10067000000000000000000000000000000000007A
:10068000000000000000000000000000000000006A
:10069000000000000000E6000100280009025B00E5
:1006A000030100A0FA09040000010301010009216F
:1006B000110100012244000705810308000109041B
:1006C00001000203000000092111010001222200A3
:1006D0000705820320000107050303200001090428
:1006E00002000103000000092111010001226D0038
:1006F00007058403200001120100020000000853D6
:100700004601000100010200010C0343006F00726A
:10071000006E0065000000100366006F006F00733C
:1007200000740061006E0000000403090400000072
:100730000000003E5B4F5B3E003E6B4F6B3E001C7B
:100740003E7C3E1C00183C7E3C18001C577D571C0C
:10075000001C5E7F5E1C0000183C180000FFE7C311
:10076000E7FF00001824180000FFE7DBE7FF003078
:10077000483A060E00262979292600407F050507FC
:1007800000407F05253F005A3CE73C5A007F3E1C55
:100790001C0800081C1C3E7F0014227F2214005FEE
:1007A0005F005F5F0006097F017F00006689956A30
:1007B0000060606060600094A2FFA2940008047E64
:1007C00004080010207E20100008082A1C080008D9
:1007D0001C2A0808001E10101010000C1E0C1E0C05
:1007E0000030383E383000060E3E0E060000000095
:1007F00000000000005F0000000007000700001478
:100800007F147F1400242A7F2A12002313086462B5
:1008100000364956205000000807030000001C2243
:100820004100000041221C00002A1C7F1C2A0008F5
:10083000083E08080000807030000008080808081A
:10084000000000606000002010080402003E5149D2
:10085000453E0000427F4000007249494946002160
:1008600041494D33001814127F1000274545453982
:10087000003C4A49493100412111090700364949E4
:10088000493600464949291E0000001400000000B6
:100890004034000000000814224100141414141401
:1008A000000041221408000201590906003E415D82
:1008B000594E007C1211127C007F49494936003E96
:1008C00041414122007F4141413E007F4949494128
:1008D000007F09090901003E41415173007F08086A
:1008E000087F0000417F4100002040413F01007F20
:1008F00008142241007F40404040007F021C027FDC
:10090000007F0408107F003E4141413E007F0909FD
:100910000906003E4151215E007F09192946002643
:10092000494949320003017F0103003F4040403FF5
:10093000001F2040201F003F4038403F0063140844
:100940001463000304780403006159494D43000017
:100950007F41414100020408102000004141417FD5
:100960000004020102040040404040400000030730
:100970000800002054547840007F28444438003850
:100980004444442800384444287F003854545418C0
:100990000000087E0902001824241C78007F080447
:1009A00004780000447D4000002040403D00007F6E
:1009B000102844000000417F4000007C0478047847
:1009C000007C08040478003844444438007C18242F
:1009D000241800182424187C007C0804040800480B
:1009E000545454240004043F4424003C4040207CE0
:1009F000001C2040201C003C4030403C004428109B
:100A00002844004C9090907C004464544C44000076
:100A10000836410000000077000000004136080061
:100A2000000201020402003C2623263C00000000D4
:100A300000000000000000000000000000C0E0F026
:100A4000F8F81800C0F0FCFEFFFFFFFFFFFFFF7E7D
:100A500000000000000000000080C0E0E0E0E0E0F6
:100A6000E0E0E0C0800000000080C0E0E0E0E0E006
:100A7000E0E0E0C080000000E0E0C0C0E0E0E0E0D6
:100A80000000E0E0C0C0E0E0E0E0E0C08000000086
:100A90000080C0E0E0E0E0E0E0E0E0C080000000D6
:100AA0000000000000000000000000E0F0F0F0E0B6
:100AB000ECEEF7F37020007C7C7C7E007E7E7E7FF7
:100AC0007F7F000080C0E07E5B4F5BFEC00000C007
:100AD00000DCD7DEDEDED7DC00C000000000000056
:100AE0000000000000000000000000000000000006
:100AF000000000000000F8FCFEFFE000FFFFFFFF29
:100B0000FFFF80FFFFFFFFFFFFFFFFFF1F07010049
:100B10000000000000000000FFFFFF810000000057
:100B2000000081C3C3C30000FFFFFF81000000007D
:100B3000000081FFFFFF0000FFFFFF010000000039
:100B40000000FFFFFF010000000001FFFFFF0000A9
:100B5000FFFFFF9D1C1C1C1C1C1C9DDFDFDF000019
:100B600000000000000000000000000F1F3F7F7F1A
:100B70007F7F7F3F1E0C001F1F1F3F003F3F3F7FB7
:100B80007F7F00307B7F7830202030787F3B0003F0
:100B9000000F7F0F0F0F7F0F000300000000000009
:100BA0000000000000000000000000000000000045
:100BB000000000000000030F1F3F3F3F3F1F1F3F8B
:100BC0003F7F7F7F3F3F1F3F7F7F7F7F7C787838ED
:100BD0001C0F0000000000000001030707070707C3
:100BE00007070703010000000001030707070707C5
:100BF00007070703010000000707070000000000C7
:100C000000000707070000000000000707070000BA
:100C10000001030707070707070707030100000094
:100C200000000000000000000000000000000000C4
:100C300000000000000000000000000000000000B4
:100C400000000000000000000000000000000000A4
:100C50000000000000000000000000000000000094
:100C6000000000000000000000000000000011244F
:100C70001FBECFEFDAE0DEBFCDBF27E0ACEDB1E0C5
:100C800001C01D92A031B207E1F711E0A0E0B1E090
:100C9000E2E6F9E602C005900D92AC3DB107D9F746
:100CA0000E9455270C945E340C940000982FE0911C
:100CB00001054091C80457E0E41302C080E00895A4
:100CC0002E2F30E05E9FF0011124E753FB4F81810E
:100CD000681306C08081981303C085818111EFCF0E
:100CE000F9013196E770E8CFFC01AC014C5F5F4F32
:100CF0008FEF91E32191822728E030E087FF09C040
:100D0000880F892721503109C9F7E417F50791F7B2
:100D10000895880FF7CFE8EDF0E080818E7F808323
:100D20001092E2001092DA001092E100A0EEB0E022
:100D30008C9181608C9380818F77808319BCA7ED23
:100D4000B0E08C918E7F8C9380818F7E8083109217
:100D5000B30408952091E4003091E50095E6A901DF
:100D60002091EC00822F817020FF06C08091E80066
:100D700080FF06C080E008952091E80022FD1AC09F
:100D80008091BE04882389F0853089F08091EB0042
:100D900085FD0FC02091E4003091E5004217530714
:100DA000F9F29150E1F684E0089582E0089583E03D
:100DB000089581E008958091C00487FF13C0809159
:100DC000E80082FF06C08091E8008B778093E800FE
:100DD00004C08091BE048111F2CF08958091BE04B9
:100DE0008823D9F38091E80080FFF8CF8091E80054
:100DF0008E77ECCF982F9093E900242F762F50E038
:100E0000891731F07091EC002091ED005091F000C5
:100E100021FD07C09F5F973071F78093E90081E063
:100E200008953091EB003E7F3093EB003091ED0060
:100E30003D7F3093ED003091EB0031603093EB005B
:100E40007093EC002093ED005093F0002091EE00A1
:100E500027FDE0CF80E00895B0E0A0E0E2E3F7E016
:100E60000C945232C8EDD0E088818F7E8883E7ED04
:100E7000F0E080818160808384E082BF81E08093A4
:100E8000B30488818E7F888302EE10E0F80110821F
:100E90001092DA0081EEC82ED12CF60110828881E2
:100EA0008F77888388818068888388818F7D888315
:100EB00019BC1092BE041092BF041092BD0410928F
:100EC000BC0490EEE92EF12CF70180818B7F8083AA
:100ED00088818160888342E060E080E00E94FA06B9
:100EE000F60180818E7F8083F8018081816080831C
:100EF000808188608083F70180818E7F80838881F4
:100F000080618883CDB7DEB7E8E00C946E32FC01D7
:100F1000CB012091C6043091C7042617370790F003
:100F2000009729F42091E8002E772093E80040E014
:100F3000009751F4411108C08091E80082FF31C050
:100F400080E00895C901F3CF2091BE042223A9F1C6
:100F50002530A9F12091E80023FD2DC02091E80063
:100F600022FDEACF2091E80020FFE2CF3091F3008C
:100F70002091F200009719F02830310558F041E037
:100F80002830310509F040E02091E8002E772093C9
:100F9000E800CECF41914093F10001972F5F3F4F82
:100FA000E9CF8091BE04882341F0853041F08091E3
:100FB000E80083FFC1CF81E0089582E0089583E0D7
:100FC00008950895089587E797E79093010880931F
:100FD000000888E19AE00FB6F894A8958093600025
:100FE0000FBE90936000FFCFA4E0B0E0EAEFF7E01F
:100FF0000C9458328FB7F8942091AF043091B0041C
:101000004091B1045091B20429833A834B835C83AD
:101010008FBF69817A818B819C812496E2E00C9458
:101020007432809155010895909156019130E1F408
:101030009091AC0497FF18C0E82FE695E695E695E9
:10104000803FF0F4F0E0EA51FE4F877021E030E09D
:10105000A90102C0440F551F8A95E2F7CA01809585
:101060009281892382830895E0EEF1E091918913C2
:1010700003C0DF0111971C9251E0E63EF507B1F77E
:101080000895909156019130C1F49091AC0497FF6E
:1010900014C0E82FE695E695E695803FF8F4F0E079
:1010A000EA51FE4F877021E030E001C0220F8A959F
:1010B000EAF78281822B82830895A0EEB1E0EFEF00
:1010C00090E02D91821751F0EF3F19F4211101C0EA
:1010D000E92F9F5F9630A9F7EF3F09F408950E2E90
:1010E000000CFF0BE252FE4FE6CFA3E0B0E0EBE7CF
:1010F000F8E00C9458329C018091AA049091AB04C2
:1011000082179307A1F03093AB042093AA04E091D7
:10111000A804F091A904309751F084E089833B83BF
:101120002A830084F185E02DCE010196099523964E
:10113000E2E00C947432A3E0B0E0E1EAF8E00C9451
:1011400058329C018091A6049091A70482179307BE
:10115000A1F03093A7042093A604E091A804F09195
:10116000A904309751F083E089833B832A8300846C
:10117000F185E02DCE01019609952396E2E00C94CD
:1011800074328091A404882359F0E091A804F0916E
:10119000A904309729F00190F081E02D0995089578
:1011A00080E00895FC01EE0FFF1FE80FF91FEE5FCE
:1011B000FB4F6183408322830895539A0895E1EEA3
:1011C000F2E011828281846082830895CF938091BE
:1011D000F40380FF04C00E94A914CF910895C09128
:1011E000510180915201C817B0F780914F019C2F97
:1011F000981B892F20E040E060E090E00E94D20838
:10120000CF5FEFCF0F931F93CF93DF93D82F162F7E
:10121000042F8091F403C091510180FD11C0DF9132
:10122000CF911F910F91089580914F019C2F981B92
:10123000892F202F412F6D2F90E00E94D208CF5F81
:1012400080915201C81780F30E94E608E8CFCF933F
:10125000DF93EC014091F7039C81892F817090FD11
:10126000842F692F627091FD642F92FF40E00E94ED
:1012700002098C8190E00196877099278C83DF9119
:10128000CF910895E4EFF3E080818E7F80830E9408
:10129000DF08E1EEF2E08281816082830E94E6084D
:1012A00008958091F403982F9C7F61F4837084608B
:1012B0008093F4038091F703833318F082E38093E3
:1012C000F70308958C3AB0F38370886AF1CFB0E0E9
:1012D000A0E0EDE6F9E00C945032262FD72EE82F4F
:1012E000F0E0ED5EFC4F71110AC0E4918E2F9E2F4D
:1012F0006E2F792FCDB7DEB7EAE00C946C32072F52
:1013000010E0E4914E2F56E0659F70011124CFEF5D
:10131000D0E0C701BE010E943432822F90E0880FD6
:10132000991F55E5569F9001579F300D1124821B40
:10133000930B582F550F580FCE01801B910BE89F30
:101340009001E99F300D1124932FD59ED0011124D7
:10135000AB2FBB276E01CA1ADB0AEC9DD001ED9DB5
:10136000B00D11248B2F5E01A51AB108A09E60015B
:10137000A19ED00CB09ED00C1124CD2CDD24CC1914
:10138000DD09EC9F8001ED9F100D11246330710584
:10139000D1F05CEFE51653E0F50670F461307105AD
:1013A000B1F062307105B9F04FEFE416F10408F0C6
:1013B0009FCF832F912F9CCF6430710579F06630D9
:1013C0007105B9F395CFE32F9B2F842F91CFEB2F8E
:1013D000832F942F8DCF812FE32FFBCF8E2FE12FE3
:1013E00087CF982F762F842F2091F40320FF0CC0F5
:1013F000433308F082E3692F0E946709962F672F15
:10140000482F892F0E9402090895CF93DF93EC01A2
:10141000E4EFF3E0438162818C810E94F1098C81C9
:101420008F5F8C83DF91CF910895CF93DF93EC0191
:10143000EC81F0E0E85EFB4F4491E4EFF3E0628181
:1014400081810E94F1098C818F5F8C83DF91CF9124
:101450000895CF93982F762F842FC22F692F0E9443
:101460006709472F282F80914F01C81B8C2F90E0D0
:101470000E94D208CF9108950F931F93CF93DF93CB
:10148000EC0110E000E0909153019017110609F073
:101490006CF40E94E6088C8190E001968170992797
:1014A0008C83DF91CF911F910F9108954C812091F2
:1014B0005101200F312F311D6091F6038091F5030A
:1014C00096959017110669F064F0442361F04091FD
:1014D000F703433308F042E30E94290A0F5F1F4FCE
:1014E000D2CF4423A1F340E0F7CFAEE0B0E0EBE78A
:1014F000FAE00C9454328D879E87AD85BE85149694
:101500001C91212F30E0D9010E944F349B01AC0186
:101510000E941A3469837A838B839C83E0E2F0E033
:10152000E11BF109A5E5B0E09B01AC010E941A3472
:1015300069877A878B879C879F01DF010E94BA3277
:101540009B01AC010E9425346D837E838F83988735
:101550009B01AC0189819A81AB81BC81280F391F25
:101560004A1F5B1F69857A858B859C850E942D3477
:10157000F22E822F90E0A9E2A21740F1B3E02B9F58
:101580009001112435952795122F109500E085E5DF
:10159000E82EEF1880915301081738F10E94E608F1
:1015A000AD85BE8514969C9181E0992319F0903207
:1015B00019F48FEF80934E0180914E01890FED85D4
:1015C000FE8584832E96E6E00C94703225E530E0AB
:1015D000F901E81BF90B9F01220F331F2E0F3F1F4C
:1015E00037FFD0CF2F5F3F4FCDCF8E2D01FD8F2DF9
:1015F00020915101200F3327331F412F133308F05F
:1016000042E36091F6030E94290A0F5FC3CF1F9344
:10161000CF93DF93EC018C81811109C081E08C8331
:101620001092E50292E090934D0180934C0110914D
:10163000510180915201181748F110E06091530157
:10164000161788F10E94E60880914C012091E5026E
:10165000280F2093E50290914D01980F90934D0132
:10166000191654F4022E000C330B409153014150D3
:10167000550B2417350734F0819580934C01813048
:1016800009F41C82DF91CF911F91089580914F0141
:10169000912F981B892F20E040E060E090E00E94AD
:1016A000D2081F5FC6CFE12FF0E070E0CF010E94AB
:1016B000993220915101820F2091E502022E000CF7
:1016C000330BE217F307BCF020914D01022E000C02
:1016D000330B2E173F077CF0282F30E04091F703A3
:1016E000433308F042E36091F6038091F5030E94D2
:1016F000290A1F5FA3CF90914F01891B20E040E092
:1017000060E090E00E94D208F4CFB0E0A0E0EBE807
:10171000FBE00C945132EC018A81DD24DA9480FDE7
:1017200002C0DD24D3948C8181110AC081E0D812DB
:1017300020C08091530181508093E40281E08C832A
:10174000C12C80915301C816B8F00E94E608809120
:10175000E40291E0D9125AC0811153C08091530123
:1017600081508093E4021C82CDB7DEB7E9E00C948F
:101770006D321092E402E2CF8091510190914F01BD
:10178000891B8C0D20E040E060E090E00E94D208D0
:1017900004E010E0B12CEC2CF12C8091E4028B0DD4
:1017A00087334CF166E30E948B32892F082E000CA0
:1017B000990BE816F906C9F4209151012E0D3F2D21
:1017C000311D8091F703809FA001819F500D11244E
:1017D0005595479555954795433308F042E36091F9
:1017E000F6038091F5030E94290ABD0C01501109EE
:1017F000A1F6C394A6CF87FFD9CF90915301890F4B
:10180000D5CF81508093E402DC82AECF90E0019688
:101810006091530170E00E9499328093E4028C83BE
:10182000A3CFEF92FF921F93CF93DF93EC0110E0D1
:10183000EE24EA94F12C60915301161770F00E9487
:10184000E6089A818C8190FF21C08F5F8C83DF91A5
:10185000CF911F91FF90EF90089520915101210F9A
:101860003327331F4091F703433308F042E370E01E
:10187000C7010E949932962F8C816091F603199FBF
:10188000800D11240E94290A1F5FD5CF8150DECF21
:1018900080E00895F894E82FE295EF70F0E041A120
:1018A0008F7021E030E0B90102C0660F771F8A9582
:1018B000E2F7CB01962F9095942391A392A1892BC7
:1018C00082A378940895A4E0B0E0E9E6FCE00C94EB
:1018D00058328091A404882371F00E94F407698330
:1018E0007A838B839C8369817A818B819C81249606
:1018F000E2E00C9474320E94F40769837A838B834C
:101900009C838091860290918702A0918802B09179
:10191000890229813A814B815C81280F391F4A1F36
:101920005B1F29833A834B835C83DDCF9091AC04AA
:1019300092FF10C041E0282F2471243009F040E0CC
:1019400031E0282F2871283009F030E0431711F0DA
:101950002CE0822793FF10C041E0282F247124310E
:1019600009F040E031E0282F2871283109F030E0FB
:10197000431711F02CE082273091AD0430FF10C0E6
:1019800051E0282F2171213009F050E041E0282F4B
:101990002871283009F040E0541711F029E082271F
:1019A00031FF10C041E0282F2171213109F040E0C2
:1019B00031E0282F2871283109F030E0431711F069
:1019C00029E0822794FD877E0895803E9105C1F12C
:1019D000C8F48133910509F47DC048F4893291053A
:1019E00009F46DC08A32910509F47BC008958933EA
:1019F0009105D1F082389105B9F08533910509F44C
:101A000059C00895843E9105C1F138F4823E910594
:101A100021F1833E910531F10895863E9105C1F192
:101A2000873E9105E1F108952091AC04237009F0FF
:101A300065C02091AD0423FF14C089E290E00895B1
:101A40002091AC0420FD43C03091AD0430FF09C0AB
:101A500024FF4EC090E080E008952091AC0422FD68
:101A6000F7CF08952091AC0422FD45C03091AD041C
:101A700030FD44C024FFF5CFEDCF2091AD0421FF10
:101A8000F0CF8091AC0484FDE5CF87EE90E008951F
:101A90002091AC0423FFE5CF24FDDCCFF6CF2091CD
:101AA000AC0423FD2EC03091AD0431FFE3CF84EEB2
:101AB00090E008952091AC0425FFD3CFBECF2091B4
:101AC000AC0425FD21C02091AD0423FFCACF89E3DA
:101AD00090E0C7CF2091AC0426FFC3CF8AE290E00C
:101AE00008952091AC0426FFBCCF81E390E00895D7
:101AF00083EE90E0089582EE90E0089580EE90E00D
:101B0000089586EE90E0089585E390E008951F9390
:101B1000CF93DF930E94E50CEC018115924508F00C
:101B20005FC0C11580E5D80708F0DDC0C03ED10513
:101B300038F5CD3CD10508F0AEC0C83AD10580F4E7
:101B4000C53AD10508F0A4C0C130D10509F443C09D
:101B5000CE010497813A9105F0F1D0E0C0E03BC09E
:101B6000CE01885A91094B97C0F7C85AD0E0CC0FE4
:101B7000DD1FC85ADE4F0990D881C02DD4642BC018
:101B8000C11590E4D907F0F4C11520E2D20708F09E
:101B9000C4C0C83ED105F8F0CE019A9581159F4189
:101BA000E0F68D2F0E94960C182FCE0199270E94E7
:101BB000E50CC12FD0E0DC2FCC27CC27DF71C82B60
:101BC000D92B09C0CE0199270E94E50CCC27DF70E4
:101BD000C82BD92BD06ACE01DF91CF911F910895E8
:101BE000C03882E5D807B8F5C03692E5D90708F0C5
:101BF0005BC0C03422E5D207C8F4C03282E5D80702
:101C000008F04BC02C2F2695269590E2299F900135
:101C100011248C2F8370C1E0D0E002C0CC0FDD1FF7
:101C20008A95E2F7C22BD32BDD68D5CF2C2F2695D2
:101C30002695277080E2289F900111248C2F8370B5
:101C4000C1E0D0E002C0CC0FDD1F8A95E2F7C22BC5
:101C5000D32BDC68C0CFC03C92E5D90760F48C2F51
:101C60008F71C03AD245A8F5C82FD0E0DC2FCC2721
:101C7000C46FD06AB0CFCE01805C9245809708F0E7
:101C80006CCFDC2FCC27CC27DF71C06FD06AA3CFFD
:101C9000A497D064A0CFD0659ECFCF71D0E0DC2FC9
:101CA000CC27C16FD06A97CF2C2F26952695277009
:101CB00080E2289F900111248C2F8370C1E0D0E036
:101CC00002C0CC0FDD1F8A95E2F7C22BD32BDA6856
:101CD00082CF0E94960CC82FD0E0DC2FCC27CC27D7
:101CE000DF71D06278CF8C2F8F710E94960C55E0F7
:101CF000D695C7955A95E1F7CF70D0E0DC2FCC2769
:101D0000282F30E084FF05C044E0220F331F4A959E
:101D1000E1F7C22BD32BD0695ECF8D2F8F710E943C
:101D2000960C182FCE0199270E94E50CC12FD0E008
:101D3000DC2FCC27CC27DF71C82BD92BD2CF982F03
:101D4000909580914C02892380934C020895809154
:101D50004C0290912302892B90912202992391F0B9
:101D6000892B90915601913071F49091AC0497FFBA
:101D70000AC09EE128EE31E040E0915040F441116C
:101D800010922202089596E020EE31E0F5CFF9019D
:101D900051919F01552389F34F5FEFCF809101054A
:101DA0009091C804981301C008958F5F8770FACF8F
:101DB000292F983078F5863068F590E036E0239F3B
:101DC000800D911D1124682F677023E096958795EB
:101DD0002A95E1F7FC01EE0FFF1FE80FF91FE85FFE
:101DE000FD4F50E040E080E0219130E0062E02C03F
:101DF000369527950A94E2F721703327042E01C007
:101E0000220F0A94EAF7822B4F5F5F4F4330510550
:101E100059F7089580E00895292F983090F586307D
:101E200080F590E036E0239F800D911D1124282F2E
:101E3000277041E001C0440F2A95EAF723E0969508
:101E400087952A95E1F7FC01EE0FFF1FE80FF91FB8
:101E5000E85FFD4F90E080E070E05191DF01119765
:101E60009B01082E02C0369527950A94E2F721704F
:101E700021952527242325272C930196833091052E
:101E800061F708958093A20208959091A20221E043
:101E900030E0F90101C0EE0F8A95EAF7D90102C0DE
:101EA000AA0FBB1F6A95E2F7EA2B01C0220F4A95E1
:101EB000EAF7892F8E23E81305C0292B822F0E9471
:101EC000420F089520952923F9CF21E030E001C089
:101ED000220F8A95EAF720958091A20282230E9420
:101EE000420F0895909121028095892380932102C9
:101EF000282F277069F4891759F09091AD0492FF4B
:101F000007C08695869586950E94650F10922102DE
:101F1000089521E030E001C0220F8A95EAF7809110
:101F2000A202822B0E94420F08958093940208958A
:101F3000982F82958F7011F0982F84E0292F269585
:101F4000269511F08E5F922F969509F08F5F089578
:101F5000CF93DF93682F81E06A3019F06D3031F450
:101F600080E00E943610DF91CF91089580910E0796
:101F700090910F0726E0FC01A8E0B7E001900D92D8
:101F80002A95E1F7603E08F458C026E0FC01119262
:101F90002A95E9F7C0910E07D0910F0746E050E06F
:101FA000BE0188E097E00E948D339E0128503540A5
:101FB000892B41F1C90145E0969587954A95E1F74E
:101FC00041E050E0BA0102C0660F771F8A95E2F740
:101FD000CB016091060570910705862B972BB901FF
:101FE0006B5F7F4FE5E076956795EA95E1F702C074
:101FF000440F551F6A95E2F7842B952B90930705A4
:10200000809306052A5F3F4F40910505642F70E0DD
:10201000C9010E943432481B463010F4240F311D90
:10202000211572E0370710F030E020E0285F3A4FCA
:1020300030930F0720930E0796CFF6E06F9FB00105
:102040001124635D784F46E050E00E947733A2CFC1
:10205000CF93DF93EC01FE018491811103C0DF91E6
:10206000CF9108950E94A80F2196F5CFCF93382FD6
:10207000E0910E07F0910F07E850F540209105051B
:10208000622F70E0CF010E943432281B822F33234D
:1020900061F066E00E947F32C82FC15010F4CF91EA
:1020A000089580E20E94A80FF8CF9F01280F311DEC
:1020B0002115324018F080E0F0E0E0E08E0F9F2F15
:1020C000911D885F9A4F90930F0780930E07E7CF7B
:1020D0000E94281081E00E943610089580915601D8
:1020E000813059F58091AC0487FF27C00E94A70E6C
:1020F0008093E70140E250E064E272E086EE91E016
:102100000E948D33892BC1F080E2E6EEF1E0A4E27B
:10211000B2E001900D928A95E1F7E091A804F09168
:10212000A904309749F086E08093E6010480F581A8
:10213000E02D86EE91E0099508950E94A70E809308
:10214000DE0148E050E064E472E08EED91E00E9430
:102150008D33892B89F388E0EEEDF1E0A4E4B2E061
:1021600001900D928A95E1F7E091A804F091A904FD
:10217000309711F30280F381E02D8EED91E0DBCFFB
:1021800010924C02809156018130C1F48091AC04D0
:1021900087FF14C0E8EEF1E08EE1DF011D928A9521
:1021A000E9F790E080E00E949B0890E080E00E94C8
:1021B0007508109223020E946E100895E0EEF1E07F
:1021C00086E0EBCFAAE2B0E0E8EEF0E10C94573203
:1021D00080EC94E0FC0101962091F100208324E042
:1021E000883C9207B9F78091C104893009F45AC03C
:1021F000C8F4823009F4B7C0833009F486C0813056
:1022000091F18091E80083FF3AC18091C0049091E0
:10221000C1049A3008F033C1E92FF0E0E05AFB4CDA
:102220000C94AD328A3009F48DC08B3051F7809117
:10223000C004813231F78091C4049091C504892B88
:1022400001F78091E800877F8093E8000E94DB0619
:1022500081E09091C204911101C080E08093560109
:102260000E94C010CECF8091C004813A51F6809177
:10227000E800877F8093E8008091C4049091C504B2
:10228000892B61F468E084EB94E070E00E9487079A
:102290008091E8008B778093E800B3CF60E090E016
:1022A00080E0F3CF8091C004813209F0AACF809101
:1022B000C4049091C5048D7F892B09F0A2CF809131
:1022C000E800877F8093E8008091E80082FF18C0D3
:1022D0009091F3008091F200029731F48091F10027
:1022E000813011F0863021F48091F1008093550106
:1022F0008091E8008B778093E8000E94DB0681CF15
:102300008091BE048111E0CF7CCF8091C004813ADE
:1023100009F077CF8091C4049091C504892B09F00E
:1023200070CF8091E800877F8093E8008091E8007B
:1023300080FFFCCF809156018093F1008091E800EE
:102340008E77D9CF8091C004813209F05ACF809125
:10235000E800877F8093E8000E94DB068091C30439
:10236000809354014ECF8091C004813A09F049CF47
:102370008091E800877F8093E8008091E80080FFEB
:10238000FCCF80915401D8CF803899F0823809F081
:1023900076C08091C4048F70873008F070C080933D
:1023A000E9008091EB0085FB882780F91092E90015
:1023B00006C08091BC049091BD04911182609091FF
:1023C000E800977F9093E8008093F1001092F1006D
:1023D0008091E8008E77B7C1882309F4A4C18230C8
:1023E00009F04DC08091C2048111A8C18091C4043C
:1023F0008F702FEF280F263008F041C08093E9003E
:102400002091EB0020FF9AC1933031F48091EB00D2
:1024100080628093EB0092C19091EB009061909369
:10242000EB0021E030E001C0220F8A95EAF720930B
:10243000EA001092EA008091EB008860EACF8111F7
:102440001EC01091C2041F778091E3008078812B19
:102450008093E3008091E800877F8093E8000E94EA
:10246000DB068091E80080FFFCCF8091E30080686C
:102470008093E30082E0111183E08093BE04809199
:10248000E80083FF0AC08091E800877F8093E8001E
:102490008091EB0080628093EB00AA96E3E00C94BD
:1024A00073328058823058F74091C2045091C3046F
:1024B0004C3D83E05807A1F583E08A838AE2898353
:1024C0004FB7F894DE01139620E03EE051E2E32F8F
:1024D000F0E050935700E49120FF03C0E295EF70C5
:1024E0003F5FEF708E2F90E0EA30C0F0C7968D937B
:1024F0009D932F5F243159F74FBF8091E800877F6C
:102500008093E8006AE270E0CE0101960E9487079E
:102510008091E8008B778093E800B1CFC096E7CF39
:102520008091C4049091C504252F332723303105B1
:1025300009F44AC078F52130310509F479C08BE5FA
:1025400090E0ECE9F6E02230310509F098CF2091D7
:10255000E800277F2093E8002091C6043091C7044B
:102560008217930708F49C0140E02115310509F01A
:1025700064C0411162C08091E80082FDC9CF8091A2
:10258000BE04882329F2853019F28091E80083FF88
:10259000F2CFBECF2132310509F43BC022323105E2
:1025A00009F06DCF8330910508F069CFFC01EE0F83
:1025B000FF1FE053FE4F0190F081E02D83539E4FAB
:1025C000DC018C9190E011C0CA019927413089F05B
:1025D00082309105B1F0892B09F051CFE9E2F7E0A3
:1025E000E4918E2F90E0E9E2F7E0009709F447CFFD
:1025F000AECFE7E1F7E0E4918E2F90E0E7E1F7E07E
:10260000F4CFE9E0F7E0E4918E2F90E0E9E0F7E025
:10261000ECCF8330910508F032CF880F991FFC0171
:10262000EA52FE4F0190F081E02D89E090E08FCFDB
:1026300082E190E0E7EFF6E08ACF8091BE04882344
:1026400009F466CF853009F463CF8091E80083FDFB
:102650005FCF8091E80082FD8ECF8091E80080FFFF
:1026600084CF9091F3008091F2002115310519F08B
:102670008830910550F041E0089709F040E08091E2
:10268000E8008E778093E80070CF44914093F1008A
:102690003196215031090196E8CF803809F0EFCE0C
:1026A0008091E800877F8093E8008091BF04809349
:1026B000F1008ECE8111E3CE1091C204123008F0E9
:1026C000DECE8091E800877F8093E8001093BF04FE
:1026D0000E94DB06112311F084E005C08091E30025
:1026E00087FDFACF81E08093BE0442E061EC81E097
:1026F0000E94FA0642E261EC84E00E94FA0642E29D
:1027000061EC82E00E94FA0642E260EC83E00E9403
:10271000FA068091BE04843021F081E08093570155
:10272000AECE82E0FBCF8091C204813009F0A7CE0B
:1027300081E0933009F080E08093BD041092E900BD
:102740008091E800877F8093E8000E94DB0697CEA7
:10275000882321F00E949F0E0E946E100895882306
:1027600039F090914C02892B80934C020E946E109C
:102770000895882339F19CEF980F913A28F40E942C
:1027800014080E946E10089590E2980F983050F44B
:10279000877091E001C0990F8A95EAF7892F0E940E
:1027A0009F0EEFCF9BE5980F933028F490E080E0E8
:1027B0000E949B080895885A8B3120F490E080E0B5
:1027C0000E9475080895CF93C82F8823B1F18CEF2C
:1027D0008C0F813AA0F580915601813001F58091EE
:1027E000AC0487FF1CC0EC2FE695E695E695F0E07B
:1027F000EA51FE4F828190E04C2F477021E030E09B
:1028000002C0220F331F4A95E2F782239323892BBC
:1028100079F08C2F0E9414080E946E1009C0E0EE1F
:10282000F1E08191C817A9F321E0E63EF207C9F76C
:102830008C2F0E9441080E946E10CF91089580E273
:102840008C0F883068F4C77021E030E001C0220F9F
:10285000CA95EAF780914C02822B80934C02EBCF11
:102860008BE58C0F833038F42C2F2452330BC901A5
:102870000E949B08E2CFC85ACB31F8F6EC2FF0E06B
:10288000EE0FFF1FE85AFE4F808191810E9475086C
:10289000D4CF0F931F93CF93DF938B01EA019091D5
:1028A000BE04943061F58093E9008FEF9091E800C9
:1028B000815095FD06C095ED9A95F1F700008111C4
:1028C000F5CF8091E80085FF1AC00E94AA06811109
:1028D00011C08091E80085FD06C08091E8008E77E8
:1028E0008093E800F2CFF80181918F018093F1008D
:1028F000219779F78091E8008E778093E800DF9147
:10290000CF911F910F910895BC0143E050E084E006
:102910000E9449140895BC0140E250E084E00E9406
:1029200049140895CF93DF93D82FC92F48E050E082
:10293000682F792F81E00E94491488E0ED2FFC2F49
:10294000A4EBB4E001900D928A95E1F7DF91CF916D
:1029500008953BB1377F2BB128604FB7F89482E0E0
:1029600094E0FC010196508168E02BB9000000C0A2
:1029700057FF3BB9550F000000C000C000C03BB975
:1029800000C06A9591F754E0843A950751F74FBF1C
:102990008FE594E00197F1F700C000000895B0E0E2
:1029A000A0E0E5EDF4E10C945032F82EE92ED62E9D
:1029B000C72E8A0180918502AA24A394B12C8A3063
:1029C00018F48AE0A82EB12CC1E0D0E06D2D7C2D4A
:1029D0008F2D9E2DF8010995811104C02196AC160A
:1029E000BD062CF4CDB7DEB7EAE00C946C32CC9F78
:1029F0009001CD9F300D300D112490E080E045E333
:102A00004A95F1F70000019682179307C1F7DECFD0
:102A10000E94C0102FEF84E39CE021508040904042
:102A2000E1F700C0000088E19AE00FB6F894A8959D
:102A3000809360000FBE90936000FFCFCF93C82FAC
:102A40006FEF811165E284E290E00E94C7336FEF7F
:102A5000C11165E085E290E00E94C7336FEFC111BC
:102A600060E186E290E00E94C733CF910895CF9352
:102A7000DF93C8EAD1E060E0CE010E94C73321961F
:102A8000C11584E0D807B9F7DF91CF9108951F935E
:102A9000CF93DF93962F122F632F8430D8F4983082
:102AA000C8F44630B8F4C42FD0E0CC0FDD1F2CE0C2
:102AB000929FC00DD11D112490E6899FC00DD11D9C
:102AC0001124CE0188960E94C733612FCE018996CA
:102AD0000E94C733DF91CF911F910895AF92BF92AB
:102AE000CF92DF92FF920F931F93CF93DF93B12C7E
:102AF000A12C00E0650110E013C0FE012591349186
:102B00004F2D612F802F0E9447152296F39486E067
:102B1000F812F3CF86E0C80ED11C1F5F183039F0D1
:102B2000E601CC0FDD1FC45EDA4FF12CE6CF0F5F5C
:102B300080E3A80EB11C0430E9F6DF91CF911F911C
:102B40000F91FF90DF90CF90BF90AF90089580E0FD
:102B50000E941E1560E087E290E00E94C7330E9449
:102B60006E150E94371581E00E941E15089584E2BB
:102B700090E00E94A333853289F485E290E00E94C0
:102B8000A333853059F486E290E00E94A33391E0AC
:102B9000803109F090E0892F8170089580E0FCCFAA
:102BA0000F931F93CF93DF93EC0108811981C80124
:102BB0000E94A3330F5F1F4F19830883DF91CF91CA
:102BC0001F910F9108950F931F93CF93DF9384303C
:102BD00030F5683020F5463010F5C42FD0E0CC0F2A
:102BE000DD1F2CE0629FC00DD11D112430E6839FB4
:102BF000C00DD11D1124CE0188960E94A333082F49
:102C000010E0102F0027CE0189960E94A33398016F
:102C1000282BC901DF91CF911F910F91089590E06A
:102C200080E0F8CF462F672F783038F4463028F40C
:102C3000843018F40E94E315089580E090E0089530
:102C4000B0E0A0E0E6E2F6E10C9453327C010091A2
:102C5000A20280919402082BC3E0D0E010E0DC2EA9
:102C6000C8010C2E02C0959587950A94E2F780FD65
:102C700009C02197A0F7D12C8D2DCDB7DEB7E7E0A5
:102C80000C946F32B7018C2F0E9412160E94870D90
:102C9000019779F3F1CFCF93DF93D82FC92F0E94FB
:102CA00020166D2F7C2F0E9412160E94870DDF9137
:102CB000CF910895FC0184818823A1F080819181C6
:102CC0000E944B16282F92959F70963091F060F4D9
:102CD000925F9F70923030F481E0203F81F030F4B9
:102CE000283E30F080E004C09A5FF3CF243FD1F754
:102CF000089581E0283E20F0213FA1F7F9CF089503
:102D00000895A6E0B0E0E7E8F6E10C9457329C01A4
:102D100086E0F901DE01119601900D928A95E1F7A6
:102D2000F901258189819A81222399F0662389F00E
:102D30000E942016182F682F89819A810E940C0FFB
:102D400069817A81812F0E9412162696E3E00C9405
:102D500073320E94D80E182FF3CFAB0124E630E077
:102D6000BC0188E70E94DB2F9C0181E0232B09F046
:102D700080E008958091000490910104911103C0B6
:102D800091E089270895882369F062E070E08AE184
:102D900095E00E94AD16811103C080910004089552
:102DA0001092000480910004EBCFA5E0B0E0EBEDC1
:102DB000F6E10C945832809100048D8380910104D7
:102DC0008823F1F00E94F407DC01CB01805A954181
:102DD000AF4FBF4F8093FC039093FD03A093FE037E
:102DE000B093FF038D81811108C062E070E088E13B
:102DF00095E00E94AD16811108C0809100048D837A
:102E00008D812596E2E00C94743281E08093000479
:102E1000F4CFB0E0A0E0EFE0F7E10C944A32FC011F
:102E20006280448081E08483E8E1F4E07490E7E923
:102E3000F4E0E491C091F703C695C158D0E0CC0FFF
:102E4000DD1FED2EFF24812C25E0922EAA24AA94CA
:102E5000B12C55245A94E719CE2ED12C80915301D0
:102E6000881638F00E94E608CDB7DEB7E0E10C9492
:102E70006632082D10E082E0861568F0909EF00121
:102E8000919EF00D1124EA51FD4F8091F50380834E
:102E90008091F6038183411026C0909EF001919E9F
:102EA000F00D1124EA51FD4F13821282209151013D
:102EB000200F312F311D909EF001919EF00D1124B5
:102EC000EA51FD4F4281433308F042E3909EF00106
:102ED000919EF00D1124EA51FD4F618180810E9485
:102EE000290A8394BBCF909EE001919ED00D1124BE
:102EF000CA51DD4F8B818823E9F081508B83859DFA
:102F0000C00111246C8170E00E943432FB01FF2764
:102F1000E85EFB4F8491E82FE719E59DC00111247D
:102F2000B6010E9434328091F703689FB0011124EA
:102F30007A83BCCF0E946733B5010E9499328E1507
:102F40009F050CF0B3CF82E0861588F40E946733AA
:102F5000B5010E94993288830E9467332091F6035D
:102F60002695622F70E00E949932280F2983909E47
:102F7000F001919EF00D1124EA51FD4F12828091D3
:102F8000F703893C58F088EC909EF001919EF00D7B
:102F90001124EA51FD4F8483838388CF8431A0F7C5
:102FA00084E1F2CFB0E0A0E0E8EDF7E10C944E321E
:102FB00049015A018B01D82FC92F0E945109640180
:102FC0007501A401B50188E090E00E94D933940115
:102FD000A501B8018D2F9C2F00E20E94E432622FE0
:102FE00083E290E00E94C733CDB7DEB7ECE00C94EB
:102FF0006A32B0E0A0E0EFEFF7E10C945332182F03
:10300000062FD42FE22E9091F40390FF43C020911D
:10301000F503281308C08091F603861304C080913D
:10302000F703841729F08091E30282608093E30222
:10303000E92FE695E695AE2FB0E0AE55BE4F8C91E8
:103040008093E1029C7F943051F58D2FD33308F0AB
:1030500082E3612F702F0E946709962F672F482FF8
:10306000892F0E9402091093F5030093F603D09371
:10307000F703EE2079F02091F4036091F80370914A
:10308000F903312F402F5D2F8091FA039091FB03BC
:103090000E94D217CDB7DEB7E7E00C946F328230D2
:1030A00019F4D091F703DFCF863079F1893069F1D7
:1030B0008931C9F6E9518E2F8170D82EE695F0E05E
:1030C000ED5EFB4FC491F12C60915301F61618F0A0
:1030D0000E94E608C8CFFC9EC001112470E00E9447
:1030E0003432812FD1100FC0860F209151012F0D46
:1030F0003327331F4D2FD33308F042E3602F0E9454
:10310000290AF394E1CF861BF0CF122FACCFE4EF66
:10311000F3E0438121E1421B08F440E021E06281B9
:1031200081810E94F9170895E4EFF3E0438121E1E2
:10313000420F08F44FEF21E0628181810E94F9176C
:103140000895E4EFF3E0628121E1621B08F460E09E
:1031500021E0438181810E94F9170895E4EFF3E0B3
:10316000628121E1620F08F46FEF21E043818181E8
:103170000E94F9170895E4EFF3E0818121E0438193
:10318000628188500E94F9170895E4EFF3E081818D
:1031900021E043816281885F0E94F9170895809140
:1031A000F803882319F081508093F8032091F403E9
:1031B0003091F5034091F6035091F7036091F803C5
:1031C0007091F9038091FA039091FB030E94D2174A
:1031D00008958091F803833018F48F5F8093F8038B
:1031E0002091F4033091F5034091F6035091F703D9
:1031F0006091F8037091F9038091FA039091FB03B9
:103200000E94D21708959091AD0492FB222720F9D5
:10321000281779F080FB92F99093AD046091AC048B
:103220007091AD0484E090E00E94E53382E00E945A
:10323000720F08954F925F926F927F92AF92BF92FA
:10324000CF92DF92EF92FF920F931F93CF93DF9372
:1032500000D000D000D0CDB7DEB78D837B01A42E87
:10326000B22E3E836801DB014D905D906D907C90A5
:103270000E94F40769837A838B839C83DC01CB01F2
:1032800084199509A609B70984369105A105B105E8
:1032900010F4AA20E9F1BD810B2F0B2E000C110BAD
:1032A00088E0B802F0011124EC5FFE4F8181928129
:1032B0008B599D4F408150E0C416D50608F4A601F5
:1032C0006B2D7E810E949A33C8010E94BE31898392
:1032D000882341F00E94F407D7016D937D938D936D
:1032E0009C931397898126960FB6F894DEBF0FBE84
:1032F000CDBFDF91CF911F910F91FF90EF90DF90A5
:10330000CF90BF90AF907F906F905F904F90089557
:10331000B1E0B983E7CFABE0B0E0E1E9F9E10C94CB
:10332000563288E0E4EFF3E0DE01119601900D9251
:103330008A95E1F78091E1029091E202A091E30287
:1033400089879A87AB8741E08B85811101C040E076
:103350000BE010E09E012F5F3F4F61E872E084E0D8
:103360000E941A1981111092E3022B96E4E00C944A
:1033700072320F931F93CF93DF93D82FC92F44E05E
:1033800050E06AE672E00E948D3341E0892B09F437
:1033900040E004E010E02D2F3C2F61E672E082E077
:1033A0000E941A19DF91CF911F910F910895CF922A
:1033B000DF92EF92FF921F93CF93DF93CDB7DEB7EB
:1033C00028970FB6F894DEBF0FBECDBFC0907D0228
:1033D000D0907E02E0907F02F09080020E94F4077D
:1033E000DC01CB018C199D09AE09BF0911E08436BF
:1033F0009105A105B10578F10E94630CDC01CB01B8
:103400000296A11DB11D89839A83AB83BC838091F1
:103410001D0190911E018B599D4F20911C01422F3F
:1034200050E0253010F044E050E0BE016F5F7F4F68
:103430000E949A3383E090E00E94BE31182F8823C7
:1034400051F00E94F40760937D0270937E02809396
:103450007F0290938002812F28960FB6F894DEBFEA
:103460000FBECDBFDF91CF911F91FF90EF90DF9006
:10347000CF9008958F929F92AF92BF92EF92FF925A
:103480001F93CF93DF93CDB7DEB729970FB6F8948C
:10349000DEBF0FBECDBF7B0190E080E00E94BE3159
:1034A000182F882309F485C080910701482F50E028
:1034B000882311F041E050E060910801709109010A
:1034C0006B597D4FCE0105960E949A3380905D0224
:1034D00090905E02A0905F02B09060020E94F4079C
:1034E000DC01CB0188199909AA09BB098436910529
:1034F000A105B10540F486E692E00E9474069D8124
:10350000891709F456C081E090E00E94BE31811114
:103510001FC010E08091590290915A02A0915B0265
:10352000B0915C02F70180839183A283B383812FE2
:1035300029960FB6F894DEBF0FBECDBFDF91CF91B5
:103540001F91FF90EF90BF90AF909F908F90089544
:1035500080910F01482F50E0853010F044E050E09A
:1035600060911001709111016B597D4FCE01019650
:103570000E949A3386E692E00E9474069D81891328
:10358000C8CF0E94F40760935D0270935E0280933F
:103590005F029093600289819A81AB81BC818093A4
:1035A000590290935A02A0935B02B0935C0211E01F
:1035B000B1CF8091660290916702A0916802B091AC
:1035C000690289839A83AB83BC831111E4CFA2CFB4
:1035D0001F93CF93DF93182FEB010E94E3132097E3
:1035E00039F4812F0E94B913DF91CF911F91089573
:1035F0008FE99FE00197F1F700C000002197EFCF1E
:103600001F920F920FB60F9211242F933F934F9357
:103610005F936F937F938F939F93AF93BF93CF935A
:10362000DF93EF93FF93D091E900DF708091EC007E
:10363000C82FC17080FDC0E81092E9008091F000B1
:10364000877F8093F00078940E94E2101092E90046
:103650008091F00088608093F000CD2BCF70C093F4
:10366000E900FF91EF91DF91CF91BF91AF919F91D1
:103670008F917F916F915F914F913F912F910F901B
:103680000FBE0F901F9018951F920F920FB60F92BA
:1036900011242F933F934F935F936F937F938F9357
:1036A0009F93AF93BF93EF93FF938091E10082FFCD
:1036B00009C08091E20082FF05C08091E1008B7F0C
:1036C0008093E1008091DA0080FF24C08091D800CF
:1036D00080FF20C08091DA008E7F8093DA00809195
:1036E000D90080FFA9C080E189BD82E189BD09B40C
:1036F00000FEFDCF81E08093BE048091B304811170
:1037000009C00E948B060E942C078091E200846011
:103710008093E2008091E10080FF1AC08091E20076
:1037200080FF16C08091E2008E7F8093E20080913E
:10373000E20080618093E2008091D80080628093F3
:10374000D80019BC85E08093BE0483E080935701C4
:103750008091E10084FF2FC08091E20084FF2BC0A4
:1037600080E189BD82E189BD09B400FEFDCF809171
:10377000D8008F7D8093D8008091E1008F7E809368
:10378000E1008091E2008F7E8093E2008091E20070
:1037900081608093E2008091BF04882309F452C0C5
:1037A00084E08093BE048091BE04843009F452C04A
:1037B00081E0809357018091E10083FF2CC08091CC
:1037C000E20083FF28C08091E100877F8093E100C1
:1037D00082E08093BE041092BF048091E1008E7F4E
:1037E0008093E1008091E2008E7F8093E2008091DF
:1037F000E20080618093E20042E060E080E00E94AD
:10380000FA068091F00088608093F00081E0809358
:10381000570180935601FF91EF91BF91AF919F9116
:103820008F917F916F915F914F913F912F910F9069
:103830000FBE0F901F90189519BC1092BE041092E5
:10384000B30468CF8091E30087FD02C081E0A9CF77
:1038500083E0A7CF82E0ADCF78941F921FB61F926E
:1038600011248F939F93AF93BF938091AF04909156
:10387000B004A091B104B091B2040196A11DB11D94
:103880008093AF049093B004A093B104B093B204BA
:10389000BF91AF919F918F911F901FBE1F90189560
:1038A0002FB7F8948091AF049091B004A091B10427
:1038B000B091B2042FBF0895CF93DF93EC010E9423
:1038C000501C8C1B9D0BDF91CF910895EF92FF92BE
:1038D0000F931F93CF93DF93C62FD42F122FFC018A
:1038E00085818823A9F0609304050E94501C909361
:1038F000030580930205C77081E001C0880FCA9557
:10390000EAF70E94AF13CDB7DEB7E6E00C94703251
:1039100080910405681334C0E0900205F09003051F
:103920000E94501C8E199F09883C910548F500E2C1
:103930000D0FCD17A9F0C770FF24F3948F2D01C090
:10394000880FCA95EAF70E94A813083048F48D2F13
:10395000877001C0FF0C8A95EAF78F2D0E94AF1384
:1039600070E060E0812F0E94E81A083060F6D7709E
:1039700081E001C0880FDA95EAF70E94A813C3CF4F
:10398000C77081E001C0880FCA95EAF7F6CF809131
:10399000A404882319F00E94501C08950E94630C0F
:1039A000CB0108956091F4036695669570E04BE055
:1039B00050E081E491E00E948033892B19F481E08A
:1039C0008093E2020E94C71C9093DC028093DB028A
:1039D0008091E30284608093E30208959091F40360
:1039E00090FF3AC09370811138C094609093F403B3
:1039F0008091E30281608093E302662391F020913D
:103A0000F4033091F5034091F6035091F703609170
:103A1000F8037091F9038091FA039091FB030E94DF
:103A2000D2176091F4036695669570E04BE050E024
:103A300081E491E00E948033892BB9F00E94DF0875
:103A400081E08093DE0220E04091F7036091F6036D
:103A50008091F5030E94F91708958B3210F0986A4F
:103A6000C5CF880F880F982BC1CF0E94D21CE8CFFA
:103A70009091F403969596958FEF890F913009F404
:103A80008AE261E00E94EE1C08958091F40386951D
:103A900086958F5F8B3208F081E061E00E94EE1C1A
:103AA0000895A2E0B0E0E7E5FDE10C944E327C0120
:103AB000FC018481882309F4BEC061E0C7010E9433
:103AC00081168C01F7019581992309F426C1818122
:103AD0008093AD0280818093AC0280E280933901B3
:103AE0001093AB020093AA02980130522115304284
:103AF00038F4F7018681807F09F456C5F8010BC0C0
:103B0000980130542115304108F044C0F7018681F6
:103B1000807FF80109F0FF27ED33F10528F4E15823
:103B2000FE4FE491E0933901980137572038310571
:103B300008F033C5D02E2FE0201708F46DC08FEFAA
:103B400093E00E94A333811167C008EA11E0D1100D
:103B500030C01A8309832AE0922ECE0101960E947A
:103B6000D015882309F458C0813009F07EC0CE01F9
:103B700001960E94D015813049F5CE0101960E9430
:103B8000D01570E060E0893311F460E570E00E94C8
:103B9000E81AE3CF98013A9521153F4108F4AECFDA
:103BA0009801205A32452032310508F4BDCFF80182
:103BB000B3CF011534E0130779F1C8010E94A33394
:103BC000811101C0DA940F5F1F4FC1CF823039F4E9
:103BD000CE0101960E94D0150E94E313BECF833020
:103BE00039F4CE0101960E94D0150E94B913B5CFC9
:103BF000843081F4CE0101960E94D01510E000E0DF
:103C0000482F4053550B9A014A305105C0F0011519
:103C1000110511F58111A1CF80912102877059F012
:103C2000F7018581882339F08091AD0482FF03C0BC
:103C300082E00E94720F2296ECE00C946A32909E11
:103C4000C001919E900D11248901080F191FCE010A
:103C500001960E94D015D4CFEFE9FFE03197F1F73C
:103C600000C0000001501109D2CFE82FF0E0E5516B
:103C7000FE4F8490282F26952695269530E0F90151
:103C8000E552FE4FC4908770D12C082E02C0D59407
:103C9000C7940A94E2F7F1E0CF22DD24F901E5535D
:103CA000FE4FA490B12C082E02C0B594A7940A949C
:103CB000E2F741E0A422BB24F901E554FE4F049150
:103CC00010E002C0159507958A95E2F7017011275B
:103CD000C114D10419F081EE0E94E313A114B104C0
:103CE00019F086EE0E94E31370E060E0882D0E94D8
:103CF000E81AA114B10419F086EE0E94B913C11498
:103D0000D10419F081EE0E94B9130115110509F4CF
:103D100024CF70E060E08CE23ACFF801E851FC4734
:103D2000E730F10508F02DC4E659FB4C0C94AD3298
:103D300026E241EE61EEC7010E94661C6DCF27E2CC
:103D400045EE65EEF8CF26E241EE60EEF4CF27E2D5
:103D500045EE64EEF0CF26E241EE62EEECCF27E2D4
:103D600045EE66EEE8CF28E241E0EBCF8091AC046F
:103D700081608093AC046091AC047091AD0484E0E8
:103D800090E00E94E5330E94C01046CF8091AD04C0
:103D900088608093AD04EFCF8091AC048260E9CF5E
:103DA0008091AC048460E5CF8091AC048860E1CF61
:103DB0008091AD048160EDCF8091AD048260E9CF48
:103DC0008091AC048061D5CF8091AC048062D1CF6A
:103DD0008091AC048064CDCF0E94C0108091AC046F
:103DE0008068C7CF8091AC048C60C3CF8091AD0454
:103DF0008360CFCF8091AC048E7FBBCF8091AD0428
:103E0000877FC7CF8091AC048D7FB3CF8091AC0406
:103E10008B7FAFCF8091AC04877FABCF8091AD0417
:103E20008E7FB7CF8091AD048D7FB3CF8091AC04EE
:103E30008F7E9FCF8091AC048F7D9BCF8091AC040F
:103E40008F7B97CF0E94C0108091AC048F7791CF69
:103E50008091AC04837F8DCF8091AD048C7F99CF0E
:103E60008091AC0482FB992790F921E0922790FB86
:103E700082F990FB83F97DCF8091AD04982F9095C6
:103E800091708E7F892B90FB81F983CF9091AC0448
:103E9000892F8F7B96FF80646CCF0E94C010909119
:103EA000AC04892F97FB87F9805863CF61E08EE0DF
:103EB00090E00E94C7335FCF60E0F9CF9091AC04EF
:103EC000892F8F7E94FF806154CF9091AC04892F0D
:103ED0008E7F90FF81604DCF9091AD04892F877FB9
:103EE00093FF886056CF85E347C385E353C3992387
:103EF00009F429C380914C028272F801E052F8471C
:103F0000EB30F10508F061C0EF58FB4C0C94AD327A
:103F10008091F40380FF1EC0282F2E7F2093F4038E
:103F20003091F5034091F6035091F7036091F80347
:103F30007091F9038091FA039091FB030E94D217CC
:103F40000E94DF088091E30281608093E3020E9477
:103F5000E60862CE81608093F40361E086958695E1
:103F60000E94EE1C59CE882329F00E94381D54CEA1
:103F70008823D9F30E94451D4FCE882329F00E9443
:103F8000BB184ACE8823D9F30E94C51845CE882392
:103F900029F00E94A11840CE8823D9F30E94AE18C0
:103FA0003BCE882329F00E94871836CE8823D9F388
:103FB0000E94941831CE882329F00E94CF182CCE6D
:103FC0008823D9F30E94E91827CE81E007375CE700
:103FD000150701F108374CE71407D9F09801205E66
:103FE000324520323105F0F4911133C00F7181E078
:103FF00090E0FC0102C0EE0FFF1F0A95E2F78F016F
:104000006E2F83E090E00E94C733802F0E94950FAF
:1040100003CE82E00E94890F43E062E081E00E94CB
:10402000450FFACD9923A9F00A35FCE71F0709F4DB
:10403000A2C008F079C001303CE7130709F499C029
:1040400003304CE7140709F48EC001151C4709F42E
:104050007DC0F7018581C080D180882309F48FC09D
:10406000C6010E942016182F682FC6010E940C0F4F
:10407000B601812F0E9412160E94870D8C01982E86
:10408000F701B580A680A2949FE0A9228091210229
:10409000877009F1DB2CBB20F9F0812F807F803401
:1040A00069F080E2800F8830B0F0812F807E80320E
:1040B00029F4F1E0F01778F4AA2069F08091AD04BA
:1040C00082FF09C082E00E94720F809121028770F6
:1040D000DD24D3948111D12CC12EC2948FE0C8224B
:1040E00028E0C21609F430C12C1508F460C033E092
:1040F0003C1508F449C0812F807F1F7041E04C15AA
:1041000008F069C0803211F01295107F992009F4EF
:1041100097C0E1E09E1609F4DDC0BB2009F4E9C0B8
:10412000AA2009F4ABC06DC00B358CE7180729F144
:104130000C351C4709F08DCF8091AD0482FB882798
:1041400080F991E089270E94031983CF0E94C01053
:10415000EFEFF4E32CE0E150F0402040E1F700C045
:1041600000000E94E3076FEF7FEF90E080E00E9485
:10417000E5330E94081581E0E6CF80E0E4CFC60178
:104180000E94D80E182F74CF54E0C51609F4C2C08F
:104190004C2D4850550B8A014430510508F0BAC1E6
:1041A0000E94C10860E0C7010E94811644CD89E0E9
:1041B000C81609F436C186E08C0D8F70823040F746
:1041C000802F92EF99123CC1812F8F71B11035C1B0
:1041D0000E94890FDDCF882311F01295107F802F68
:1041E000BB20B9F0112369F090E2900F983010F0E5
:1041F000011109C080914C02182B10934C020E94AF
:104200006E10802F2DC080912302182B1093230253
:10421000F6CF0E94B913112309F4BACF005E08301B
:1042200010F0911004C0812F0E949F0E06C01095BF
:10423000809123021823109323020E946E10A8CFAE
:104240008091AD0482FD16C0BB2069F0112339F0C6
:1042500080914C02182B10934C020E946E1080E04B
:104260000E94E31395CF80E00E94B913112309F453
:104270008FCFD9CFBB20A1F0A11004C0812F0E9405
:10428000AF1386CFF1E0AF1283CF90912202812F3E
:104290008923181709F47CCF192B1093220278CFA9
:1042A000A11076CF812F0E94A81390912202812F16
:1042B000892329F0812F8095892380932202809180
:1042C0000702912F982309F463CF109518231093B8
:1042D00007025ECFBB2029F025E02A1508F458CF4D
:1042E000CDCF34E03A1508F453CF812F0E94A813A4
:1042F0004FCFAA20D1F3093349F44FEF57EE83E0B3
:10430000415050408040E1F700C00000802F0E94E3
:10431000B9133ECF812F86958695837061F08130E9
:1043200009F036CFC8019370B11002C080E090E070
:104330000E9475082DCFC8019370B11002C080E0B3
:1043400090E00E949B0824CF812F837091F5B110DB
:104350001FCF402F429546954770440F440F802F42
:104360008F70042E01C0880F0A94EAF7202F207165
:1043700004FF07C02FE030E001C0220F4A95EAF7A2
:104380002095169516951370123071F0133051F078
:1043900030919402113029F0822B83230E94950FD3
:1043A000F7CE832B822BFACF282B80919402822781
:1043B000F5CF8695BB2011F0812F8170882309F4F9
:1043C000E7CE402F429546954770440F440F802F0B
:1043D0008F70042E01C0880F0A94EAF7202F2071F5
:1043E00004FF07C02FE030E001C0220F4A95EAF732
:1043F0002095169516951370123071F0133051F008
:104400003091A202113029F0822B83230E94420FA7
:10441000BFCE832B822BFACF282B8091A20282273A
:10442000F5CF1F70BB2029F0812F0E94890F802FAC
:1044300026CF802F0E94A813812F0E94650FA8CE3F
:1044400092EF991570F0E0EF9E16D1F0F1EF9F1604
:1044500091F0BB2009F44EC0A110D3CE812F8F71F3
:10446000B7CE23EF921611F134EF9312F2CF909161
:10447000AD0492FD26C0812F8F71BB20F1F2A8CE32
:10448000BB2079F044E04A1508F482CE1F7181E028
:1044900090E001C0880F1A95EAF79091A20289274F
:1044A000B5CF55E05A1508F473CEF0CF80E0BB20AD
:1044B00009F4ACCF1F7181E001C0880F1A95EAF7AB
:1044C000A5CFBB2061F0812F8F7192FF81CE98E044
:1044D000899F9001112423602093210279CE81E0ED
:1044E0000E94720FE1E0EA1508F052CE82E00E94CD
:1044F000720F4ECEAA2059F0893309F007CFFFEF93
:1045000027EE33E0F15020403040E1F7FDCE812F1F
:104510008F7193CFDD2009F445CE8091210280FD7B
:1045200041CEF70115828695869586950E94890F62
:10453000C7010E94511D809121028695869586951E
:104540000E94650F2FCE0737FCE71F0709F046C012
:1045500081E00E94650F60CD06312CE7120709F05B
:10456000C6CC80914C028A7A91E009F490E0909355
:1045700006028111B8CC89E20E9441080E946E10A7
:104580004BCB06313CE71307F1F68091060281110F
:10459000ACCC89E20E941408F1CFF801E851FC4745
:1045A000E730F10508F4C0CB1092040598013057AC
:1045B0002332310588F684E090E00E94B133909375
:1045C000AD048093AC04F801E150F047E232F1050C
:1045D00008F0CCCBE458FB4C0C94AD3208375CE7C8
:1045E000150709F0FBCC82E0B4CFCF93DF93809125
:1045F0002002807F09F04DC080911F02882309F4BA
:1046000048C0E09101055091C804C0911B02D091AF
:104610001A0260911C0270911D0247E05E17C9F1F9
:104620008E2F90E0E49FF0011124E753FB4F24818B
:10463000222391F1489FF001499FF00D1124DF01E1
:10464000A753BB4F11962C9111972C1325C02C9179
:104650002D1322C015962C91159721111DC012966D
:104660002D913C91261B370B283C3105A8F48091F5
:1046700020028F70806180932002E153FB4F808184
:104680008F70806180838AE192E00E94511D0E94B8
:10469000CE0EDF91CF910895FC013196E770BECF29
:1046A000ADE0B0E0E6E5F3E20C944E328C0186E03A
:1046B000F801DE01189601900D928A95E1F7F80154
:1046C0008481E5809AE1A92E92E0B92E90911E0294
:1046D000911128C0882319F1EE20F1F0C8010E9441
:1046E0005A16F82E8823C1F087E0F801D501019011
:1046F0000D928A95E1F780911E02813031F480910C
:104700001A0290911B020E944B160E94F5228F2DD7
:104710002D96ECE00C946A32C8010E94511DFF24D2
:10472000F394F5CFD080C18082809380F0901F02F7
:1047300020911C0230911D02A401421B530BFF204B
:1047400009F4BCC0483C510508F092C08823F9F236
:1047500090911B0280912002282F207F09F056C0E3
:10476000C91214C090911A02D91210C0E11048C0A9
:104770008F708061809320028AE192E00E94511D37
:1047800080912002F8018683F12CC1CFE11038C05E
:104790006C2D8D2D0E9456066C2D8D2D0E94560677
:1047A000E82E8111F1CFD886C986888599850E9427
:1047B0004B16292F22952F70903458F49F70223079
:1047C00088F0992399F0F8019681907F79F4FE2C76
:1047D0009ECF2A5F2F70223068F0C8010E94511DC1
:1047E000EF2CF5CF992311F0882389F3805E883070
:1047F00070F3F3CF803F58F3815F833040F3EDCF08
:1048000080912002816080932002BECFC91207C030
:1048100090911A02D91203C0EE2009F470C0C801A9
:104820000E945A16882309F477CFEE2009F474CF3A
:1048300080912002803288F020911A0230911B0270
:104840003A8329839C828B8290911E029D831E82D3
:104850008F83CE0101960E94511D87E0F801AAE1E5
:10486000B2E001900D928A95E1F70E94F52257CFB0
:1048700090912002292F207F51F48AE192E00E943A
:10488000511D87E0F50111928A95E9F77DCF8823C4
:1048900009F43DCF80911B028C11C1CF80911A0287
:1048A000D812BDCFE110BBCF9683C8010E94511D25
:1048B00087E0F50111928A95E9F729CF483C510527
:1048C000B8F7882309F42BCFFE2CEE2009F424CF6F
:1048D00080911B028C1120C080911A02D8121CC03A
:1048E0008091200280FD0FC0982F907F61F0868319
:1048F000903F31F0982F907F905F8F70892B868347
:10490000C8010E94511D87E0F801AAE1B2E00190C0
:104910000D928A95E1F7FBCEC8010E945A168111CB
:104920009CCF80912002816080932002C8010E9468
:10493000511DEDCEABE1B0E0E0EAF4E20C94573269
:104940004E8B5F8B688F798F8A8F9B8F911110921E
:1049500023021D8A86E0FE017696DE011F960190F5
:104960000D928A95E1F78B89882351F061E0CE01A1
:104970000F960E94811661E0CE010F960E9481166B
:1049800087E0FE013F96DE01189601900D928A9510
:10499000E1F7CE0108960E94502381110CC087E0F8
:1049A000FE013896DE01119601900D928A95E1F78D
:1049B0004C8541110BC017E0809101059091C8040E
:1049C000891332C06B96E3E00C9473322091C804D3
:1049D00030E0C90101968770992750910105581759
:1049E0001906A1F04D8397E0929FD001939FB00DDF
:1049F0001124A753BB4FFE01319601900D929A9559
:104A0000E1F78093C8040E94CE0ED5CF0E94C0105B
:104A10001092C8041092010587E0EAE1F2E0DF019C
:104A20001D928A95E9F7C7CF819FC0011124875352
:104A30009B4F0E945023882329F28091010590E02A
:104A400001968770992780930105B6CFA7E1B0E062
:104A5000ECE2F5E20C944E321D861C86FE013E9679
:104A600086E0DF011D928A95E9F780E9E82E81E072
:104A7000F82E10E000E0CC24C394D12C2AE9A22E19
:104A800021E0B22EF70181917F018F3F09F445C0EB
:104A9000F894E82FE295EF70F0E021A18F70A60165
:104AA00002C0440F551F8A95E2F7CA01922F982B36
:104AB00091A392A18095892382A3789400C0E4E910
:104AC000F1E031E0912C21912F3F09F4A8C0A22FF1
:104AD000A295AF70B0E090968C9190E02F7002C0DC
:104AE000959587952A95E2F780FD99C0832F982A9E
:104AF000330FAE16BF0639F7F701319780818F3F2C
:104B000011F00E944A0C50EA5A95F1F7ECE0F0E0FF
:104B1000EC0FFD1FE00FF11F90820F5F1F4F04305D
:104B2000110509F0AFCF48E050E0BE01645F7F4F50
:104B30008AE892E00E948D339C01892B49F088E03D
:104B4000FE013C96AAE8B2E001900D928A95E1F749
:104B50000091930210E00D521D4F232B09F461C008
:104B600081E0809351020E94501C909350028093E8
:104B70004F02F12CE090A404EE2009F4B0C01A8298
:104B800019821C821B82809185028A3008F06FC0D6
:104B90004AE35AE1BE016F5F7F4FC8010E94CF1404
:104BA000882309F48BC049EB59E1BE016F5F7F4F49
:104BB000C8010E94CF14882309F480C047ED59E151
:104BC000BE016F5F7F4FC8010E94CF14882309F494
:104BD00075C04BE859E1BE016F5F7F4FC8010E946D
:104BE000CF14882309F46AC0109285028091920242
:104BF00090E044E050E0BE016F5F7F4F8D529D4FCB
:104C00000E948D3321E020935802892B09F048C07F
:104C1000E12C8E2D8F296796ECE00C946A3280E0AF
:104C200066CFF0905102FF2009F4A3CFC0904F024D
:104C3000D09050020E94501C8C199D09059708F4D1
:104C400098CF44E050E06AE872E0C8010E948D33DA
:104C5000892B59F084E0EAE8F2E0D80101900D9246
:104C60008A95E1F71092510285CFF12CFBCFC090CD
:104C70005202D09053020E94501C8C199D09843F0F
:104C8000914008F085CF80915802882309F284E092
:104C9000FE013196DF011D928A95E9F710925802C4
:104CA000E0919202F0E0ED52FD4F89819A81AB8153
:104CB000BC8180839183A283B383ABCF8091850233
:104CC0008F3F31F08F5F809385028A3008F48ECF5A
:104CD0000E94501C9093530280935202D4CFC090F4
:104CE0009202D12CF601ED52FD4F6F01F801808147
:104CF0009181A281B3818093660290936702A09311
:104D00006802B093690286E692E00E94740680937E
:104D1000650280916A0290916B02A0916C02B09141
:104D20006D02F60180839183A283B38380906E022B
:104D300090906F02A0907002B09071028091540226
:104D400090915502A0915602B0915702881699068B
:104D5000AA06BB06B1F08092540290925502A0922E
:104D60005602B09257020E94F407861A970AA80AC0
:104D7000B90A8092860290928702A0928802B0922D
:104D800089028BE0E2E7F2E0DE01119601900D92DC
:104D90008A95E1F78091720286958695D09073028C
:104DA000C0907402B090750200917B0210917C0259
:104DB00010927C02112309F42CCF10FF11C09981AD
:104DC0009370282F220F220F922B998390FF1CC0E3
:104DD0009091F40391609093F40360E00E94EE1CC4
:104DE00011FF06C020E04B2D6C2D8D2D0E94F91770
:104DF00012FF04C0002359F00E94D21C13FF09CFF8
:104E000081E08093DE0205CF0E944209E9CF0E9433
:104E1000DF08F4CFA6E0B0E0E0E1F7E20C94563210
:104E20000E94501C8C0180914D0290914E0280177F
:104E3000910781F019821A820E94501C682F4981C3
:104E40005A81792F80E090E00E949A2410934E02BC
:104E500000934D022696E4E00C9472321F921FB626
:104E60001F9211248F939F93AF93BF938091AE04B1
:104E7000811113C08091AF049091B004A091B1044E
:104E8000B091B2044196A11DB11D8093AF049093DF
:104E9000B004A093B104B093B204BF91AF919F91BD
:104EA0008F911F901FBE1F901895CDB7DEB7A697A4
:104EB0000FB6F894DEBF0FBECDBF85B7806885BF43
:104EC00085B7806885BF84B7877F84BF0FB6F894A5
:104ED000A8958091600088618093600010926000C6
:104EE0000FBE80E890E00FB6F89480936100909335
:104EF00061000FBE81E08093570188E49CE09093AD
:104F0000DD018093DC010E948B060E942C078091BA
:104F1000E20084608093E20078948091BE0488234C
:104F2000A1F01091E9001F709091EC00892F817021
:104F300090FD80E8182B1092E9008091E80083FD35
:104F40000E94E2101F701093E90082E084BD93E09C
:104F500095BD9AEF97BD80936E00109286021092D5
:104F6000870210928802109289020E94B71581115F
:104F700002C00E94A7158091D80080618093D8005C
:104F80002AE12A95F1F700C08091D900182F1170FD
:104F900080FD04C00E948B061092BE041093A404EE
:104FA0001093A50410932C01112309F4DAC0109278
:104FB0004F018BE1809350010E94D13080912C01F0
:104FC00080912C0194E0811190E09093930284E011
:104FD000891B8093920284E90E944A0C86E60E9413
:104FE0004A0C87E90E944A0C86EC0E944A0C04E9AC
:104FF00011E07AE9E72E71E0F72ED8018D918D014D
:105000008F3F11F00E944A0CE016F106B1F788E0DC
:10501000E3EDF2E0DF01282F1D922A95E9F7EAE897
:10502000F2E0DF011D928A95E9F790E080E00E94AE
:10503000B133853E9E4F21F40E94B715811163C0A4
:1050400065EE7EEF90E080E00E94E53360E082E074
:1050500090E00E94C73381E08093940261E083E096
:1050600090E00E94C73360E074E184E090E00E9429
:10507000E53360E086E090E00E94C73360E087E0BF
:1050800090E00E94C73340E050E0BA0188E090E031
:105090000E94D93360E083E290E00E94C73360E071
:1050A0008CE090E00E94C73360E08DE090E00E94C9
:1050B000C73319821A821B821C821D821E821F82A4
:1050C000188648E050E067E170E0CE0101960E944A
:1050D000B73340E050E0BA018FE190E00E94D9334D
:1050E00080E00E941E150E94A71540E050E0BA0122
:1050F0008FE090E00E94D93340E050E0BA0183E1B4
:1051000090E00E94D93382E090E00E94A333809324
:10511000960284E090E00E94B1339093AD048093B6
:10512000AC040E942625EFEFF6E721E0E150F040C5
:105130002040E1F700C000000E9426258091A504D0
:10514000E4E08111E0E0F0E0ED52FD4F808181FF6D
:105150000EC06FEF7FEF90E080E00E94E5330E9489
:10516000E3078BE180934F018093500127CF83E0C9
:1051700090E00E94A3330E94950F8091A4048111B6
:1051800040C182E08093CE0280E8809305050E94B2
:105190005D2F6BE070E082E892E00E94AD168823FC
:1051A00009F443C08091CE0265E070E081FD2BC11F
:1051B0008DE792E00E94AD168823B9F16DE070E0B2
:1051C0008BE692E00E94AD16882379F10E94F407E5
:1051D00069A37AA38BA39CA3DC01CB01805A9541E0
:1051E000AF4FBF4F8093FC039093FD03A093FE034A
:1051F000B093FF03E8E0F5E080E092E0DF019C017E
:105200001D9221503040E1F7F0930F07E0930E0715
:105210008FEF9FEF909307058093060581E08093C1
:105220000104809300041092CF02809195028111B5
:1052300082C088E090E00E94AB336B017C0183E286
:1052400090E00E94A333282F30E040E050E060E07F
:1052500070E080E090E000E20E94C9322601370150
:105260002C2935294E2957292093F4033093F5032F
:105270004093F6035093F7036093F8037093F90398
:105280008093FA039093FB033091E30233603093F1
:10529000E3022C7FF1F525E02093F4031092F5034F
:1052A0002FEF2093F60322E32093F7031092F803E5
:1052B00025E030E04FEF52E360E00E94D21788E033
:1052C00090E00E94AB336B017C0183E290E00E948E
:1052D000A333282F30E040E050E060E070E080E051
:1052E00090E00E94C93226013701C22A35294E2991
:1052F0005729C092F4033093F5034093F60350937B
:10530000F7036093F8037093F9038093FA03909383
:10531000FB030E9451090E94DF080E94DD08809172
:10532000F40380FF05C060E0869586950E94EE1C20
:1053300081E0809395028091A404811102C00E94B3
:10534000D4308DE291E09093A9048093A8046AE0A0
:10535000862E912CA12CB12C8091BE0410E402E188
:10536000853009F488C00E94262507E912E053ED34
:10537000E52E52E0F52ED701F80191918D912FE99C
:1053800032E02E173F0709F480C09817B1F3409020
:10539000A404D12CD701CD907D01F80151908F014B
:1053A0005C1431F15C24712C66246394862D852174
:1053B000B9F04420A9F07982DA820E94501C9C83C3
:1053C0008B83F1E0FD8391E0862D8C2109F490E040
:1053D0009E8349815A816B817C818D810E949A24B0
:1053E0007394660C26E07212E1CFF8013197C08207
:1053F000D39438E0D312CECF0E94630C77247394F9
:1054000049C080E0BFCE88E792E0D4CE8091BE0450
:10541000843029F10E94BA161092AE0448E150E09F
:105420000FB6F894A895409360000FBE10936000EB
:1054300083B7817F846083BF83B7816083BF7894A3
:10544000889583B78E7F83BF0FB6F894A895809117
:105450006000886180936000109260000FBE0E941F
:105460002625E3EDF2E081918111ADC48BED92E050
:105470008E179F07C1F78091BE04853009F4C6CF0F
:105480000E94C0100E94C1086ECF981380CF0E9466
:105490000A27712C8091E202882309F465C080916B
:1054A000E102E091F403E695E695E81BE093DD0266
:1054B000823009F02BC1F0E0E256FD4FE4910E2F4F
:1054C00010E045E1E42E4AE0F42E8091DE028823CC
:1054D00061F01092DE020E94C71C9093DC02809360
:1054E000DB021092E0021092DF020E94C71C9C01B6
:1054F000E091DB02F091DC028E1B9F0B8F3F9F47F8
:1055000098F58091A1028823B1F01092A1028091B8
:105510009F029091A002281B390B2F3F3F4758F460
:10552000805D9A489093A00280939F028091E3024D
:1055300088608093E302C090DF02D090E002E00F29
:10554000F11FF093DC02E093DB028BED92E0F701B8
:1055500009958091DF029091E002892B29F4CD28F2
:1055600019F0F1E0F093A10280910104882309F47D
:1055700096C00091D0021091D1020E94501C801B55
:10558000910BC29708F461C00E94501C9093D10205
:105590008093D00288E095E090930F0780930E07E8
:1055A0008091A404882309F476C183EC92E00E94E0
:1055B00028108091A2020E94980F823009F41AC12B
:1055C00008F010C1811113C18BEB92E00E946810AA
:1055D0008091AD02805D0E94A80F81ED92E00E9453
:1055E00028108091AC02805D0E94A80F8DEC92E0A3
:1055F0000E9428108091AA029091AB02209137015D
:10560000309138018217930709F0FAC02091A9025E
:10561000203209F0F5C0E3EAF2E08F018191803297
:10562000E1F3F80101900020E9F79F0121503109D1
:1056300079010E151F0508F428C18BEC92E00E9439
:105640002810809139010E94A80F80910605909141
:105650000705892B09F024C1809100048823F9F003
:105660000E94F40769A37AA38BA39CA38091FC03F7
:105670009091FD03A091FE03B091FF0329A13AA1EF
:105680004BA15CA1281B390B4A0B5B0BDA01C9014A
:105690008F3F9F4FAF4FBF4710F40E94BA16711053
:1056A0000E94D5160E94C1089091D202891721F05C
:1056B0008093D2020E94F4078091BE04843009F0E6
:1056C0004BCE83E08093E9008091E80082FF44CED6
:1056D0008091E80090E085FF06C00E94AA0688231A
:1056E00009F4BEC191E08091E8008B778093E800D7
:1056F000992309F431CE8981EFEFE80FE33108F007
:10570000D9C1F0E0E256FB4C0C94AD32863059F42E
:10571000F0E0E556FD4FE4910E2F10E035E0E32E6A
:105720003AE0F32ED2CE893061F4E695F0E0E85607
:10573000FD4FE4910E2F10E021E1E22E2CE0F22E3D
:10574000C4CE8F3061F4E695F0E0EB56FD4FE49166
:105750000E2F10E095E8E92E9BE0F92EB6CE8531AC
:1057600059F4F0E0EE56FD4FE4910E2F10E087E083
:10577000E82E8BE0F82EA9CE08E210E0F5E7EF2E38
:10578000FAE0FF2E883109F4A0CE833249F4E0E933
:10579000F2E005911491B7E2EB2EB9E0FB2E95CE25
:1057A0008432C9F000ED17E071EEE72E77E0F72EB6
:1057B000853209F08ACE8E2F63E00E947F32E92F76
:1057C000F0E0E357FD4FE4910E2F10E0A9E0EA2E40
:1057D000A7E1FA2E7ACE04EF11E0ECE3EE2EEAE038
:1057E000FE2E73CE833049F082EA92E0EFCE85EB55
:1057F00092E0ECCE8FEA92E0E9CE88EA92E0E6CE43
:10580000909338018093370120E22093A9029C01F4
:1058100050E040E029A33AA34BA35CA31092A80256
:1058200053EAC52E52E0D52E6EE9E62E62E0F62E42
:10583000860169A17AA18BA19CA1A50194010E9476
:105840002D34605D603319F4C016D10649F089A18A
:105850009AA1ABA1BCA1892B8A2B8B2B09F460E206
:10586000D80114966C9369A17AA18BA19CA1A50182
:1058700094010E942D3429A33AA34BA35CA30150A9
:105880001109E016F106A9F6C6CED8018D918D0159
:105890000E94A80FCECE83ED92E00E942810D5CEB4
:1058A00080910104882309F4D7CE8091CF02811121
:1058B000D3CE0E94D51620910605309107052115FB
:1058C000310509F4C9CE80E041E050E0082F10E036
:1058D0002A01082E02C0440C551C0A94E2F7B901B3
:1058E00064217521672B11F48F5FF0CF9091CE0268
:1058F00090FF9DC0880F880F880F80933C01109205
:105900003F01895F80933D0183E08093400124E65D
:1059100030E047E050E06AE371E088E70E94932FAF
:10592000892B09F099CEA80195E0440F551F9A954F
:10593000E1F78091CE0280FF8CC0EEEAF2E080E2D7
:10594000DF011D928A95E9F7EEE9F1E0FEA3EDA3F0
:105950006AE971E087E0E82EDD24D394EDA1FEA191
:10596000A191FEA3EDA3FB018191BF01840F952FAF
:10597000911D9C01285F3A4F3AA329A3EA2FF0E03A
:10598000E255FD4F90E080E06E2C681AFD2C082E49
:1059900001C0FF0C0A94EAF729A03AA000E0D10167
:1059A0001D911D011F21262D201B2770C22E022EA6
:1059B000000C330BB12F01C0BB0FCA94EAF7CB2EFA
:1059C0003195219531092770332701C016952A9505
:1059D000EAF7C12A1081C12AC0820F5F0830F9F6A8
:1059E000019631968830910579F6E2EAF1E02DA131
:1059F0003EA1E217F30709F0B1CF04E610E020E280
:105A000030E04EEA52E060E488E70E942530892BBE
:105A100009F022CE4094509480910605909107059C
:105A200048225922509207054092060515CE8295CC
:105A3000880F807680933C0198013695279536959E
:105A4000279520933F01815E80933D012093400183
:105A50005ECF485F5A4F04E610E020E230E0D3CF3B
:105A600000E210E0AE014F5F5F4F7A018091E800E5
:105A700085FD0AC08091E8008B778093E8000E9442
:105A8000AA06882399F32ECE8091F100D7018D9339
:105A90007D010150110951F725CE1A828CE08B83CC
:105AA0001BC08A81833009F140F4813069F0823073
:105AB00009F4A5C18FEF89830FC08430D9F71B8209
:105AC0001C821D821E8208C00E94F4070E94B3320D
:105AD0006B837C838D839E8340E250E0BE016F5FC9
